{
	"zombiefeeding.sol": {
		"ZombieFeeding": {
			"abi": [
				{
					"anonymous": false,
					"inputs": [
						{
							"indexed": false,
							"internalType": "uint256",
							"name": "zombieId",
							"type": "uint256"
						},
						{
							"indexed": false,
							"internalType": "string",
							"name": "name",
							"type": "string"
						},
						{
							"indexed": false,
							"internalType": "uint256",
							"name": "dna",
							"type": "uint256"
						}
					],
					"name": "NewZombie",
					"type": "event"
				},
				{
					"inputs": [
						{
							"internalType": "string",
							"name": "_name",
							"type": "string"
						}
					],
					"name": "createRandomZombie",
					"outputs": [],
					"stateMutability": "nonpayable",
					"type": "function"
				},
				{
					"inputs": [
						{
							"internalType": "uint256",
							"name": "_zombieId",
							"type": "uint256"
						},
						{
							"internalType": "uint256",
							"name": "_targetDna",
							"type": "uint256"
						},
						{
							"internalType": "string",
							"name": "_species",
							"type": "string"
						}
					],
					"name": "feedAndMultiply",
					"outputs": [],
					"stateMutability": "nonpayable",
					"type": "function"
				},
				{
					"inputs": [
						{
							"internalType": "uint256",
							"name": "_zombieId",
							"type": "uint256"
						},
						{
							"internalType": "uint256",
							"name": "_kittyId",
							"type": "uint256"
						}
					],
					"name": "feedOnKitty",
					"outputs": [],
					"stateMutability": "nonpayable",
					"type": "function"
				},
				{
					"inputs": [
						{
							"internalType": "uint256",
							"name": "",
							"type": "uint256"
						}
					],
					"name": "zombieToOwner",
					"outputs": [
						{
							"internalType": "address",
							"name": "",
							"type": "address"
						}
					],
					"stateMutability": "view",
					"type": "function"
				},
				{
					"inputs": [
						{
							"internalType": "uint256",
							"name": "",
							"type": "uint256"
						}
					],
					"name": "zombies",
					"outputs": [
						{
							"internalType": "string",
							"name": "name",
							"type": "string"
						},
						{
							"internalType": "uint256",
							"name": "dna",
							"type": "uint256"
						}
					],
					"stateMutability": "view",
					"type": "function"
				}
			],
			"devdoc": {
				"kind": "dev",
				"methods": {},
				"version": 1
			},
			"evm": {
				"assembly": "    /* \"zombiefeeding.sol\":437:1306  contract ZombieFeeding is ZombieArmy {\r... */\n  mstore(0x40, 0x80)\n    /* \"zombiearmy.sol\":182:184  16 */\n  0x10\n    /* \"zombiearmy.sol\":165:184  uint dnaDigits = 16 */\n  0x00\n  sstore\n    /* \"zombiearmy.sol\":215:224  dnaDigits */\n  sload(0x00)\n    /* \"zombiearmy.sol\":209:211  10 */\n  0x0a\n    /* \"zombiearmy.sol\":209:224  10 ** dnaDigits */\n  tag_1\n  swap2\n  swap1\n  tag_2\n  jump\t// in\ntag_1:\n    /* \"zombiearmy.sol\":191:224  uint dnaModulus = 10 ** dnaDigits */\n  0x01\n  sstore\n    /* \"zombiefeeding.sol\":501:543  0x06012c8cf97BEaD5deAe237070F9587f8E7A266d */\n  0x06012c8cf97bead5deae237070f9587f8e7a266d\n    /* \"zombiefeeding.sol\":481:543  address ckAddress = 0x06012c8cf97BEaD5deAe237070F9587f8E7A266d */\n  0x05\n  exp(0x0100, 0x00)\n  dup2\n  sload\n  dup2\n  0xffffffffffffffffffffffffffffffffffffffff\n  mul\n  not\n  and\n  swap1\n  dup4\n  0xffffffffffffffffffffffffffffffffffffffff\n  and\n  mul\n  or\n  swap1\n  sstore\n  pop\n    /* \"zombiefeeding.sol\":594:603  ckAddress */\n  0x05\n  0x00\n  swap1\n  sload\n  swap1\n  0x0100\n  exp\n  swap1\n  div\n  0xffffffffffffffffffffffffffffffffffffffff\n  and\n    /* \"zombiefeeding.sol\":548:604  KittyInterface kittyContract = KittyInterface(ckAddress) */\n  0x06\n  exp(0x0100, 0x00)\n  dup2\n  sload\n  dup2\n  0xffffffffffffffffffffffffffffffffffffffff\n  mul\n  not\n  and\n  swap1\n  dup4\n  0xffffffffffffffffffffffffffffffffffffffff\n  and\n  mul\n  or\n  swap1\n  sstore\n  pop\n    /* \"zombiefeeding.sol\":437:1306  contract ZombieFeeding is ZombieArmy {\r... */\n  callvalue\n  dup1\n  iszero\n  tag_3\n  jumpi\n  0x00\n  dup1\n  revert\ntag_3:\n  pop\n  jump(tag_4)\n    /* \"#utility.yul\":7:855   */\ntag_6:\n    /* \"#utility.yul\":68:73   */\n  0x00\n    /* \"#utility.yul\":75:79   */\n  dup1\n    /* \"#utility.yul\":99:105   */\n  dup3\n    /* \"#utility.yul\":90:105   */\n  swap2\n  pop\n    /* \"#utility.yul\":123:128   */\n  dup4\n    /* \"#utility.yul\":114:128   */\n  swap1\n  pop\n    /* \"#utility.yul\":137:849   */\ntag_8:\n    /* \"#utility.yul\":158:159   */\n  0x01\n    /* \"#utility.yul\":148:156   */\n  dup6\n    /* \"#utility.yul\":145:160   */\n  gt\n    /* \"#utility.yul\":137:849   */\n  iszero\n  tag_10\n  jumpi\n    /* \"#utility.yul\":253:257   */\n  dup1\n    /* \"#utility.yul\":248:251   */\n  dup7\n    /* \"#utility.yul\":244:258   */\n  div\n    /* \"#utility.yul\":238:242   */\n  dup2\n    /* \"#utility.yul\":235:259   */\n  gt\n    /* \"#utility.yul\":232:282   */\n  iszero\n  tag_11\n  jumpi\n    /* \"#utility.yul\":262:280   */\n  tag_12\n  tag_13\n  jump\t// in\ntag_12:\n    /* \"#utility.yul\":232:282   */\ntag_11:\n    /* \"#utility.yul\":312:313   */\n  0x01\n    /* \"#utility.yul\":302:310   */\n  dup6\n    /* \"#utility.yul\":298:314   */\n  and\n    /* \"#utility.yul\":295:746   */\n  iszero\n  tag_14\n  jumpi\n    /* \"#utility.yul\":727:731   */\n  dup1\n    /* \"#utility.yul\":720:725   */\n  dup3\n    /* \"#utility.yul\":716:732   */\n  mul\n    /* \"#utility.yul\":707:732   */\n  swap2\n  pop\n    /* \"#utility.yul\":295:746   */\ntag_14:\n    /* \"#utility.yul\":777:781   */\n  dup1\n    /* \"#utility.yul\":771:775   */\n  dup2\n    /* \"#utility.yul\":767:782   */\n  mul\n    /* \"#utility.yul\":759:782   */\n  swap1\n  pop\n    /* \"#utility.yul\":807:839   */\n  tag_15\n    /* \"#utility.yul\":830:838   */\n  dup6\n    /* \"#utility.yul\":807:839   */\n  tag_16\n  jump\t// in\ntag_15:\n    /* \"#utility.yul\":795:839   */\n  swap5\n  pop\n    /* \"#utility.yul\":137:849   */\n  jump(tag_8)\ntag_10:\n    /* \"#utility.yul\":7:855   */\n  swap5\n  pop\n  swap5\n  swap3\n  pop\n  pop\n  pop\n  jump\t// out\n    /* \"#utility.yul\":861:1146   */\ntag_2:\n    /* \"#utility.yul\":921:926   */\n  0x00\n    /* \"#utility.yul\":945:968   */\n  tag_18\n    /* \"#utility.yul\":963:967   */\n  dup3\n    /* \"#utility.yul\":945:968   */\n  tag_19\n  jump\t// in\ntag_18:\n    /* \"#utility.yul\":937:968   */\n  swap2\n  pop\n    /* \"#utility.yul\":989:1016   */\n  tag_20\n    /* \"#utility.yul\":1007:1015   */\n  dup4\n    /* \"#utility.yul\":989:1016   */\n  tag_19\n  jump\t// in\ntag_20:\n    /* \"#utility.yul\":977:1016   */\n  swap3\n  pop\n    /* \"#utility.yul\":1035:1139   */\n  tag_21\n    /* \"#utility.yul\":1072:1138   */\n  0xffffffffffffffffffffffffffffffffffffffffffffffffffffffffffffffff\n    /* \"#utility.yul\":1062:1070   */\n  dup5\n    /* \"#utility.yul\":1056:1060   */\n  dup5\n    /* \"#utility.yul\":1035:1139   */\n  tag_22\n  jump\t// in\ntag_21:\n    /* \"#utility.yul\":1026:1139   */\n  swap1\n  pop\n    /* \"#utility.yul\":861:1146   */\n  swap3\n  swap2\n  pop\n  pop\n  jump\t// out\n    /* \"#utility.yul\":1152:2225   */\ntag_22:\n    /* \"#utility.yul\":1206:1211   */\n  0x00\n    /* \"#utility.yul\":1397:1405   */\n  dup3\n    /* \"#utility.yul\":1387:1427   */\n  tag_24\n  jumpi\n    /* \"#utility.yul\":1418:1419   */\n  0x01\n    /* \"#utility.yul\":1409:1419   */\n  swap1\n  pop\n    /* \"#utility.yul\":1420:1425   */\n  jump(tag_23)\n    /* \"#utility.yul\":1387:1427   */\ntag_24:\n    /* \"#utility.yul\":1446:1450   */\n  dup2\n    /* \"#utility.yul\":1436:1472   */\n  tag_25\n  jumpi\n    /* \"#utility.yul\":1463:1464   */\n  0x00\n    /* \"#utility.yul\":1454:1464   */\n  swap1\n  pop\n    /* \"#utility.yul\":1465:1470   */\n  jump(tag_23)\n    /* \"#utility.yul\":1436:1472   */\ntag_25:\n    /* \"#utility.yul\":1532:1536   */\n  dup2\n    /* \"#utility.yul\":1580:1581   */\n  0x01\n    /* \"#utility.yul\":1575:1602   */\n  dup2\n  eq\n  tag_27\n  jumpi\n    /* \"#utility.yul\":1616:1617   */\n  0x02\n    /* \"#utility.yul\":1611:1802   */\n  dup2\n  eq\n  tag_28\n  jumpi\n    /* \"#utility.yul\":1525:1802   */\n  jump(tag_26)\n    /* \"#utility.yul\":1575:1602   */\ntag_27:\n    /* \"#utility.yul\":1593:1594   */\n  0x01\n    /* \"#utility.yul\":1584:1594   */\n  swap2\n  pop\n    /* \"#utility.yul\":1595:1600   */\n  pop\n  jump(tag_23)\n    /* \"#utility.yul\":1611:1802   */\ntag_28:\n    /* \"#utility.yul\":1656:1659   */\n  0xff\n    /* \"#utility.yul\":1646:1654   */\n  dup5\n    /* \"#utility.yul\":1643:1660   */\n  gt\n    /* \"#utility.yul\":1640:1683   */\n  iszero\n  tag_29\n  jumpi\n    /* \"#utility.yul\":1663:1681   */\n  tag_30\n  tag_13\n  jump\t// in\ntag_30:\n    /* \"#utility.yul\":1640:1683   */\ntag_29:\n    /* \"#utility.yul\":1712:1720   */\n  dup4\n    /* \"#utility.yul\":1709:1710   */\n  0x02\n    /* \"#utility.yul\":1705:1721   */\n  exp\n    /* \"#utility.yul\":1696:1721   */\n  swap2\n  pop\n    /* \"#utility.yul\":1747:1750   */\n  dup5\n    /* \"#utility.yul\":1740:1745   */\n  dup3\n    /* \"#utility.yul\":1737:1751   */\n  gt\n    /* \"#utility.yul\":1734:1774   */\n  iszero\n  tag_31\n  jumpi\n    /* \"#utility.yul\":1754:1772   */\n  tag_32\n  tag_13\n  jump\t// in\ntag_32:\n    /* \"#utility.yul\":1734:1774   */\ntag_31:\n    /* \"#utility.yul\":1787:1792   */\n  pop\n  jump(tag_23)\n    /* \"#utility.yul\":1525:1802   */\ntag_26:\n  pop\n    /* \"#utility.yul\":1911:1913   */\n  0x20\n    /* \"#utility.yul\":1901:1909   */\n  dup4\n    /* \"#utility.yul\":1898:1914   */\n  lt\n    /* \"#utility.yul\":1892:1895   */\n  0x0133\n    /* \"#utility.yul\":1886:1890   */\n  dup4\n    /* \"#utility.yul\":1883:1896   */\n  lt\n    /* \"#utility.yul\":1879:1915   */\n  and\n    /* \"#utility.yul\":1861:1863   */\n  0x4e\n    /* \"#utility.yul\":1851:1859   */\n  dup5\n    /* \"#utility.yul\":1848:1864   */\n  lt\n    /* \"#utility.yul\":1843:1845   */\n  0x0b\n    /* \"#utility.yul\":1837:1841   */\n  dup5\n    /* \"#utility.yul\":1834:1846   */\n  lt\n    /* \"#utility.yul\":1830:1865   */\n  and\n    /* \"#utility.yul\":1814:1925   */\n  or\n    /* \"#utility.yul\":1811:2057   */\n  iszero\n  tag_33\n  jumpi\n    /* \"#utility.yul\":1967:1975   */\n  dup3\n    /* \"#utility.yul\":1961:1965   */\n  dup3\n    /* \"#utility.yul\":1957:1976   */\n  exp\n    /* \"#utility.yul\":1948:1976   */\n  swap1\n  pop\n    /* \"#utility.yul\":2002:2005   */\n  dup4\n    /* \"#utility.yul\":1995:2000   */\n  dup2\n    /* \"#utility.yul\":1992:2006   */\n  gt\n    /* \"#utility.yul\":1989:2029   */\n  iszero\n  tag_34\n  jumpi\n    /* \"#utility.yul\":2009:2027   */\n  tag_35\n  tag_13\n  jump\t// in\ntag_35:\n    /* \"#utility.yul\":1989:2029   */\ntag_34:\n    /* \"#utility.yul\":2042:2047   */\n  jump(tag_23)\n    /* \"#utility.yul\":1811:2057   */\ntag_33:\n    /* \"#utility.yul\":2082:2124   */\n  tag_36\n    /* \"#utility.yul\":2120:2123   */\n  dup5\n    /* \"#utility.yul\":2110:2118   */\n  dup5\n    /* \"#utility.yul\":2104:2108   */\n  dup5\n    /* \"#utility.yul\":2101:2102   */\n  0x01\n    /* \"#utility.yul\":2082:2124   */\n  tag_6\n  jump\t// in\ntag_36:\n    /* \"#utility.yul\":2067:2124   */\n  swap3\n  pop\n  swap1\n  pop\n    /* \"#utility.yul\":2156:2160   */\n  dup2\n    /* \"#utility.yul\":2151:2154   */\n  dup5\n    /* \"#utility.yul\":2147:2161   */\n  div\n    /* \"#utility.yul\":2140:2145   */\n  dup2\n    /* \"#utility.yul\":2137:2162   */\n  gt\n    /* \"#utility.yul\":2134:2185   */\n  iszero\n  tag_37\n  jumpi\n    /* \"#utility.yul\":2165:2183   */\n  tag_38\n  tag_13\n  jump\t// in\ntag_38:\n    /* \"#utility.yul\":2134:2185   */\ntag_37:\n    /* \"#utility.yul\":2214:2218   */\n  dup2\n    /* \"#utility.yul\":2207:2212   */\n  dup2\n    /* \"#utility.yul\":2203:2219   */\n  mul\n    /* \"#utility.yul\":2194:2219   */\n  swap1\n  pop\n    /* \"#utility.yul\":1152:2225   */\ntag_23:\n  swap4\n  swap3\n  pop\n  pop\n  pop\n  jump\t// out\n    /* \"#utility.yul\":2231:2308   */\ntag_19:\n    /* \"#utility.yul\":2268:2275   */\n  0x00\n    /* \"#utility.yul\":2297:2302   */\n  dup2\n    /* \"#utility.yul\":2286:2302   */\n  swap1\n  pop\n    /* \"#utility.yul\":2231:2308   */\n  swap2\n  swap1\n  pop\n  jump\t// out\n    /* \"#utility.yul\":2314:2494   */\ntag_13:\n    /* \"#utility.yul\":2362:2439   */\n  0x4e487b7100000000000000000000000000000000000000000000000000000000\n    /* \"#utility.yul\":2359:2360   */\n  0x00\n    /* \"#utility.yul\":2352:2440   */\n  mstore\n    /* \"#utility.yul\":2459:2463   */\n  0x11\n    /* \"#utility.yul\":2456:2457   */\n  0x04\n    /* \"#utility.yul\":2449:2464   */\n  mstore\n    /* \"#utility.yul\":2483:2487   */\n  0x24\n    /* \"#utility.yul\":2480:2481   */\n  0x00\n    /* \"#utility.yul\":2473:2488   */\n  revert\n    /* \"#utility.yul\":2500:2602   */\ntag_16:\n    /* \"#utility.yul\":2542:2550   */\n  0x00\n    /* \"#utility.yul\":2589:2594   */\n  dup2\n    /* \"#utility.yul\":2586:2587   */\n  0x01\n    /* \"#utility.yul\":2582:2595   */\n  shr\n    /* \"#utility.yul\":2561:2595   */\n  swap1\n  pop\n    /* \"#utility.yul\":2500:2602   */\n  swap2\n  swap1\n  pop\n  jump\t// out\n    /* \"zombiefeeding.sol\":437:1306  contract ZombieFeeding is ZombieArmy {\r... */\ntag_4:\n  dataSize(sub_0)\n  dup1\n  dataOffset(sub_0)\n  0x00\n  codecopy\n  0x00\n  return\nstop\n\nsub_0: assembly {\n        /* \"zombiefeeding.sol\":437:1306  contract ZombieFeeding is ZombieArmy {\r... */\n      mstore(0x40, 0x80)\n      callvalue\n      dup1\n      iszero\n      tag_1\n      jumpi\n      0x00\n      dup1\n      revert\n    tag_1:\n      pop\n      jumpi(tag_2, lt(calldatasize, 0x04))\n      shr(0xe0, calldataload(0x00))\n      dup1\n      0x17a7f4cc\n      eq\n      tag_3\n      jumpi\n      dup1\n      0x2052465e\n      eq\n      tag_4\n      jumpi\n      dup1\n      0x528b7b8f\n      eq\n      tag_5\n      jumpi\n      dup1\n      0x6b0bfc80\n      eq\n      tag_6\n      jumpi\n      dup1\n      0x7bff0a01\n      eq\n      tag_7\n      jumpi\n    tag_2:\n      0x00\n      dup1\n      revert\n        /* \"zombiefeeding.sol\":1103:1301  function feedOnKitty(uint _zombieId, uint _kittyId) public {\r... */\n    tag_3:\n      tag_8\n      0x04\n      dup1\n      calldatasize\n      sub\n      dup2\n      add\n      swap1\n      tag_9\n      swap2\n      swap1\n      tag_10\n      jump\t// in\n    tag_9:\n      tag_11\n      jump\t// in\n    tag_8:\n      stop\n        /* \"zombiearmy.sol\":304:327  Zombie[] public zombies */\n    tag_4:\n      tag_12\n      0x04\n      dup1\n      calldatasize\n      sub\n      dup2\n      add\n      swap1\n      tag_13\n      swap2\n      swap1\n      tag_14\n      jump\t// in\n    tag_13:\n      tag_15\n      jump\t// in\n    tag_12:\n      mload(0x40)\n      tag_16\n      swap3\n      swap2\n      swap1\n      tag_17\n      jump\t// in\n    tag_16:\n      mload(0x40)\n      dup1\n      swap2\n      sub\n      swap1\n      return\n        /* \"zombiearmy.sol\":336:382  mapping (uint => address) public zombieToOwner */\n    tag_5:\n      tag_18\n      0x04\n      dup1\n      calldatasize\n      sub\n      dup2\n      add\n      swap1\n      tag_19\n      swap2\n      swap1\n      tag_14\n      jump\t// in\n    tag_19:\n      tag_20\n      jump\t// in\n    tag_18:\n      mload(0x40)\n      tag_21\n      swap2\n      swap1\n      tag_22\n      jump\t// in\n    tag_21:\n      mload(0x40)\n      dup1\n      swap2\n      sub\n      swap1\n      return\n        /* \"zombiefeeding.sol\":611:1097  function feedAndMultiply(uint _zombieId, uint _targetDna, string memory _species) public {\r... */\n    tag_6:\n      tag_23\n      0x04\n      dup1\n      calldatasize\n      sub\n      dup2\n      add\n      swap1\n      tag_24\n      swap2\n      swap1\n      tag_25\n      jump\t// in\n    tag_24:\n      tag_26\n      jump\t// in\n    tag_23:\n      stop\n        /* \"zombiearmy.sol\":916:1124  function createRandomZombie(string memory _name) public {\r... */\n    tag_7:\n      tag_27\n      0x04\n      dup1\n      calldatasize\n      sub\n      dup2\n      add\n      swap1\n      tag_28\n      swap2\n      swap1\n      tag_29\n      jump\t// in\n    tag_28:\n      tag_30\n      jump\t// in\n    tag_27:\n      stop\n        /* \"zombiefeeding.sol\":1103:1301  function feedOnKitty(uint _zombieId, uint _kittyId) public {\r... */\n    tag_11:\n        /* \"zombiefeeding.sol\":1169:1182  uint kittyDna */\n      0x00\n        /* \"zombiefeeding.sol\":1211:1224  kittyContract */\n      0x06\n      0x00\n      swap1\n      sload\n      swap1\n      0x0100\n      exp\n      swap1\n      div\n      0xffffffffffffffffffffffffffffffffffffffff\n      and\n        /* \"zombiefeeding.sol\":1211:1233  kittyContract.getKitty */\n      0xffffffffffffffffffffffffffffffffffffffff\n      and\n      0xe98b7f4d\n        /* \"zombiefeeding.sol\":1234:1242  _kittyId */\n      dup4\n        /* \"zombiefeeding.sol\":1211:1243  kittyContract.getKitty(_kittyId) */\n      mload(0x40)\n      dup3\n      0xffffffff\n      and\n      0xe0\n      shl\n      dup2\n      mstore\n      0x04\n      add\n      tag_32\n      swap2\n      swap1\n      tag_33\n      jump\t// in\n    tag_32:\n      0x0140\n      mload(0x40)\n      dup1\n      dup4\n      sub\n      dup2\n      dup7\n      dup1\n      extcodesize\n      iszero\n      dup1\n      iszero\n      tag_34\n      jumpi\n      0x00\n      dup1\n      revert\n    tag_34:\n      pop\n      gas\n      staticcall\n      iszero\n      dup1\n      iszero\n      tag_36\n      jumpi\n      returndatasize\n      0x00\n      dup1\n      returndatacopy\n      revert(0x00, returndatasize)\n    tag_36:\n      pop\n      pop\n      pop\n      pop\n      mload(0x40)\n      returndatasize\n      not(0x1f)\n      0x1f\n      dup3\n      add\n      and\n      dup3\n      add\n      dup1\n      0x40\n      mstore\n      pop\n      dup2\n      add\n      swap1\n      tag_37\n      swap2\n      swap1\n      tag_38\n      jump\t// in\n    tag_37:\n        /* \"zombiefeeding.sol\":1189:1243  (,,,,,,,,,kittyDna) = kittyContract.getKitty(_kittyId) */\n      swap1\n      swap2\n      swap3\n      swap4\n      swap5\n      swap6\n      swap7\n      swap8\n      swap9\n      pop\n      swap1\n      swap2\n      swap3\n      swap4\n      swap5\n      swap6\n      swap7\n      swap8\n      pop\n      swap1\n      swap2\n      swap3\n      swap4\n      swap5\n      swap6\n      swap7\n      pop\n      swap1\n      swap2\n      swap3\n      swap4\n      swap5\n      swap6\n      pop\n      swap1\n      swap2\n      swap3\n      swap4\n      swap5\n      pop\n      swap1\n      swap2\n      swap3\n      swap4\n      pop\n      swap1\n      swap2\n      swap3\n      pop\n      swap1\n      swap2\n      pop\n      swap1\n      pop\n      dup1\n      swap2\n      pop\n      pop\n        /* \"zombiefeeding.sol\":1250:1295  feedAndMultiply(_zombieId, kittyDna, \"kitty\") */\n      tag_39\n        /* \"zombiefeeding.sol\":1266:1275  _zombieId */\n      dup4\n        /* \"zombiefeeding.sol\":1277:1285  kittyDna */\n      dup3\n        /* \"zombiefeeding.sol\":1250:1295  feedAndMultiply(_zombieId, kittyDna, \"kitty\") */\n      mload(0x40)\n      dup1\n      0x40\n      add\n      0x40\n      mstore\n      dup1\n      0x05\n      dup2\n      mstore\n      0x20\n      add\n      0x6b69747479000000000000000000000000000000000000000000000000000000\n      dup2\n      mstore\n      pop\n        /* \"zombiefeeding.sol\":1250:1265  feedAndMultiply */\n      tag_26\n        /* \"zombiefeeding.sol\":1250:1295  feedAndMultiply(_zombieId, kittyDna, \"kitty\") */\n      jump\t// in\n    tag_39:\n        /* \"zombiefeeding.sol\":1162:1301  {\r... */\n      pop\n        /* \"zombiefeeding.sol\":1103:1301  function feedOnKitty(uint _zombieId, uint _kittyId) public {\r... */\n      pop\n      pop\n      jump\t// out\n        /* \"zombiearmy.sol\":304:327  Zombie[] public zombies */\n    tag_15:\n      0x02\n      dup2\n      dup2\n      sload\n      dup2\n      lt\n      tag_40\n      jumpi\n      0x00\n      dup1\n      revert\n    tag_40:\n      swap1\n      0x00\n      mstore\n      keccak256(0x00, 0x20)\n      swap1\n      0x02\n      mul\n      add\n      0x00\n      swap2\n      pop\n      swap1\n      pop\n      dup1\n      0x00\n      add\n      dup1\n      sload\n      tag_42\n      swap1\n      tag_43\n      jump\t// in\n    tag_42:\n      dup1\n      0x1f\n      add\n      0x20\n      dup1\n      swap2\n      div\n      mul\n      0x20\n      add\n      mload(0x40)\n      swap1\n      dup2\n      add\n      0x40\n      mstore\n      dup1\n      swap3\n      swap2\n      swap1\n      dup2\n      dup2\n      mstore\n      0x20\n      add\n      dup3\n      dup1\n      sload\n      tag_44\n      swap1\n      tag_43\n      jump\t// in\n    tag_44:\n      dup1\n      iszero\n      tag_45\n      jumpi\n      dup1\n      0x1f\n      lt\n      tag_46\n      jumpi\n      0x0100\n      dup1\n      dup4\n      sload\n      div\n      mul\n      dup4\n      mstore\n      swap2\n      0x20\n      add\n      swap2\n      jump(tag_45)\n    tag_46:\n      dup3\n      add\n      swap2\n      swap1\n      0x00\n      mstore\n      keccak256(0x00, 0x20)\n      swap1\n    tag_47:\n      dup2\n      sload\n      dup2\n      mstore\n      swap1\n      0x01\n      add\n      swap1\n      0x20\n      add\n      dup1\n      dup4\n      gt\n      tag_47\n      jumpi\n      dup3\n      swap1\n      sub\n      0x1f\n      and\n      dup3\n      add\n      swap2\n    tag_45:\n      pop\n      pop\n      pop\n      pop\n      pop\n      swap1\n      dup1\n      0x01\n      add\n      sload\n      swap1\n      pop\n      dup3\n      jump\t// out\n        /* \"zombiearmy.sol\":336:382  mapping (uint => address) public zombieToOwner */\n    tag_20:\n      mstore(0x20, 0x03)\n      dup1\n      0x00\n      mstore\n      keccak256(0x00, 0x40)\n      0x00\n      swap2\n      pop\n      sload\n      swap1\n      0x0100\n      exp\n      swap1\n      div\n      0xffffffffffffffffffffffffffffffffffffffff\n      and\n      dup2\n      jump\t// out\n        /* \"zombiefeeding.sol\":611:1097  function feedAndMultiply(uint _zombieId, uint _targetDna, string memory _species) public {\r... */\n    tag_26:\n        /* \"zombiefeeding.sol\":731:744  zombieToOwner */\n      0x03\n        /* \"zombiefeeding.sol\":731:755  zombieToOwner[_zombieId] */\n      0x00\n        /* \"zombiefeeding.sol\":745:754  _zombieId */\n      dup5\n        /* \"zombiefeeding.sol\":731:755  zombieToOwner[_zombieId] */\n      dup2\n      mstore\n      0x20\n      add\n      swap1\n      dup2\n      mstore\n      0x20\n      add\n      0x00\n      keccak256\n      0x00\n      swap1\n      sload\n      swap1\n      0x0100\n      exp\n      swap1\n      div\n      0xffffffffffffffffffffffffffffffffffffffff\n      and\n        /* \"zombiefeeding.sol\":717:755  msg.sender == zombieToOwner[_zombieId] */\n      0xffffffffffffffffffffffffffffffffffffffff\n      and\n        /* \"zombiefeeding.sol\":717:727  msg.sender */\n      caller\n        /* \"zombiefeeding.sol\":717:755  msg.sender == zombieToOwner[_zombieId] */\n      0xffffffffffffffffffffffffffffffffffffffff\n      and\n      eq\n        /* \"zombiefeeding.sol\":709:756  require(msg.sender == zombieToOwner[_zombieId]) */\n      tag_49\n      jumpi\n      0x00\n      dup1\n      revert\n    tag_49:\n        /* \"zombiefeeding.sol\":765:788  Zombie storage myZombie */\n      0x00\n        /* \"zombiefeeding.sol\":791:798  zombies */\n      0x02\n        /* \"zombiefeeding.sol\":799:808  _zombieId */\n      dup5\n        /* \"zombiefeeding.sol\":791:809  zombies[_zombieId] */\n      dup2\n      sload\n      dup2\n      lt\n      tag_50\n      jumpi\n      tag_51\n      tag_52\n      jump\t// in\n    tag_51:\n    tag_50:\n      swap1\n      0x00\n      mstore\n      keccak256(0x00, 0x20)\n      swap1\n      0x02\n      mul\n      add\n        /* \"zombiefeeding.sol\":765:809  Zombie storage myZombie = zombies[_zombieId] */\n      swap1\n      pop\n        /* \"zombiefeeding.sol\":844:854  dnaModulus */\n      sload(0x01)\n        /* \"zombiefeeding.sol\":831:841  _targetDna */\n      dup4\n        /* \"zombiefeeding.sol\":831:854  _targetDna % dnaModulus */\n      tag_54\n      swap2\n      swap1\n      tag_55\n      jump\t// in\n    tag_54:\n        /* \"zombiefeeding.sol\":818:854  _targetDna = _targetDna % dnaModulus */\n      swap3\n      pop\n        /* \"zombiefeeding.sol\":863:874  uint newDna */\n      0x00\n        /* \"zombiefeeding.sol\":907:908  2 */\n      0x02\n        /* \"zombiefeeding.sol\":893:903  _targetDna */\n      dup5\n        /* \"zombiefeeding.sol\":878:886  myZombie */\n      dup4\n        /* \"zombiefeeding.sol\":878:890  myZombie.dna */\n      0x01\n      add\n      sload\n        /* \"zombiefeeding.sol\":878:903  myZombie.dna + _targetDna */\n      tag_56\n      swap2\n      swap1\n      tag_57\n      jump\t// in\n    tag_56:\n        /* \"zombiefeeding.sol\":877:908  (myZombie.dna + _targetDna) / 2 */\n      tag_58\n      swap2\n      swap1\n      tag_59\n      jump\t// in\n    tag_58:\n        /* \"zombiefeeding.sol\":863:908  uint newDna = (myZombie.dna + _targetDna) / 2 */\n      swap1\n      pop\n        /* \"zombiefeeding.sol\":972:997  abi.encodePacked(\"kitty\") */\n      add(0x20, mload(0x40))\n      tag_60\n      swap1\n      tag_61\n      jump\t// in\n    tag_60:\n      mload(0x40)\n      0x20\n      dup2\n      dup4\n      sub\n      sub\n      dup2\n      mstore\n      swap1\n      0x40\n      mstore\n        /* \"zombiefeeding.sol\":962:998  keccak256(abi.encodePacked(\"kitty\")) */\n      dup1\n      mload\n      swap1\n      0x20\n      add\n      keccak256\n        /* \"zombiefeeding.sol\":948:956  _species */\n      dup4\n        /* \"zombiefeeding.sol\":931:957  abi.encodePacked(_species) */\n      add(0x20, mload(0x40))\n      tag_62\n      swap2\n      swap1\n      tag_63\n      jump\t// in\n    tag_62:\n      mload(0x40)\n      0x20\n      dup2\n      dup4\n      sub\n      sub\n      dup2\n      mstore\n      swap1\n      0x40\n      mstore\n        /* \"zombiefeeding.sol\":921:958  keccak256(abi.encodePacked(_species)) */\n      dup1\n      mload\n      swap1\n      0x20\n      add\n      keccak256\n        /* \"zombiefeeding.sol\":921:998  keccak256(abi.encodePacked(_species)) == keccak256(abi.encodePacked(\"kitty\")) */\n      eq\n        /* \"zombiefeeding.sol\":917:1054  if (keccak256(abi.encodePacked(_species)) == keccak256(abi.encodePacked(\"kitty\"))) {\r... */\n      iszero\n      tag_64\n      jumpi\n        /* \"zombiefeeding.sol\":1044:1046  99 */\n      0x63\n        /* \"zombiefeeding.sol\":1038:1041  100 */\n      0x64\n        /* \"zombiefeeding.sol\":1029:1035  newDna */\n      dup3\n        /* \"zombiefeeding.sol\":1029:1041  newDna % 100 */\n      tag_65\n      swap2\n      swap1\n      tag_55\n      jump\t// in\n    tag_65:\n        /* \"zombiefeeding.sol\":1020:1026  newDna */\n      dup3\n        /* \"zombiefeeding.sol\":1020:1041  newDna - newDna % 100 */\n      tag_66\n      swap2\n      swap1\n      tag_67\n      jump\t// in\n    tag_66:\n        /* \"zombiefeeding.sol\":1020:1046  newDna - newDna % 100 + 99 */\n      tag_68\n      swap2\n      swap1\n      tag_57\n      jump\t// in\n    tag_68:\n        /* \"zombiefeeding.sol\":1011:1046  newDna = newDna - newDna % 100 + 99 */\n      swap1\n      pop\n        /* \"zombiefeeding.sol\":917:1054  if (keccak256(abi.encodePacked(_species)) == keccak256(abi.encodePacked(\"kitty\"))) {\r... */\n    tag_64:\n        /* \"zombiefeeding.sol\":1060:1091  _createZombie(\"NoName\", newDna) */\n      tag_69\n      mload(0x40)\n      dup1\n      0x40\n      add\n      0x40\n      mstore\n      dup1\n      0x06\n      dup2\n      mstore\n      0x20\n      add\n      0x4e6f4e616d650000000000000000000000000000000000000000000000000000\n      dup2\n      mstore\n      pop\n        /* \"zombiefeeding.sol\":1084:1090  newDna */\n      dup3\n        /* \"zombiefeeding.sol\":1060:1073  _createZombie */\n      tag_70\n        /* \"zombiefeeding.sol\":1060:1091  _createZombie(\"NoName\", newDna) */\n      jump\t// in\n    tag_69:\n        /* \"zombiefeeding.sol\":700:1097  {\r... */\n      pop\n      pop\n        /* \"zombiefeeding.sol\":611:1097  function feedAndMultiply(uint _zombieId, uint _targetDna, string memory _species) public {\r... */\n      pop\n      pop\n      pop\n      jump\t// out\n        /* \"zombiearmy.sol\":916:1124  function createRandomZombie(string memory _name) public {\r... */\n    tag_30:\n        /* \"zombiearmy.sol\":1023:1024  0 */\n      0x00\n        /* \"zombiearmy.sol\":991:1007  ownerZombieCount */\n      0x04\n        /* \"zombiearmy.sol\":991:1019  ownerZombieCount[msg.sender] */\n      0x00\n        /* \"zombiearmy.sol\":1008:1018  msg.sender */\n      caller\n        /* \"zombiearmy.sol\":991:1019  ownerZombieCount[msg.sender] */\n      0xffffffffffffffffffffffffffffffffffffffff\n      and\n      0xffffffffffffffffffffffffffffffffffffffff\n      and\n      dup2\n      mstore\n      0x20\n      add\n      swap1\n      dup2\n      mstore\n      0x20\n      add\n      0x00\n      keccak256\n      sload\n        /* \"zombiearmy.sol\":991:1024  ownerZombieCount[msg.sender] == 0 */\n      eq\n        /* \"zombiearmy.sol\":983:1025  require(ownerZombieCount[msg.sender] == 0) */\n      tag_72\n      jumpi\n      0x00\n      dup1\n      revert\n    tag_72:\n        /* \"zombiearmy.sol\":1036:1048  uint randDna */\n      0x00\n        /* \"zombiearmy.sol\":1051:1076  _generateRandomDna(_name) */\n      tag_73\n        /* \"zombiearmy.sol\":1070:1075  _name */\n      dup3\n        /* \"zombiearmy.sol\":1051:1069  _generateRandomDna */\n      tag_74\n        /* \"zombiearmy.sol\":1051:1076  _generateRandomDna(_name) */\n      jump\t// in\n    tag_73:\n        /* \"zombiearmy.sol\":1036:1076  uint randDna = _generateRandomDna(_name) */\n      swap1\n      pop\n        /* \"zombiearmy.sol\":1087:1116  _createZombie(_name, randDna) */\n      tag_75\n        /* \"zombiearmy.sol\":1101:1106  _name */\n      dup3\n        /* \"zombiearmy.sol\":1108:1115  randDna */\n      dup3\n        /* \"zombiearmy.sol\":1087:1100  _createZombie */\n      tag_70\n        /* \"zombiearmy.sol\":1087:1116  _createZombie(_name, randDna) */\n      jump\t// in\n    tag_75:\n        /* \"zombiearmy.sol\":972:1124  {\r... */\n      pop\n        /* \"zombiearmy.sol\":916:1124  function createRandomZombie(string memory _name) public {\r... */\n      pop\n      jump\t// out\n        /* \"zombiearmy.sol\":440:719  function _createZombie(string memory _name, uint _dna) internal {\r... */\n    tag_70:\n        /* \"zombiearmy.sol\":515:522  zombies */\n      0x02\n        /* \"zombiearmy.sol\":528:547  Zombie(_name, _dna) */\n      mload(0x40)\n      dup1\n      0x40\n      add\n      0x40\n      mstore\n      dup1\n        /* \"zombiearmy.sol\":535:540  _name */\n      dup5\n        /* \"zombiearmy.sol\":528:547  Zombie(_name, _dna) */\n      dup2\n      mstore\n      0x20\n      add\n        /* \"zombiearmy.sol\":542:546  _dna */\n      dup4\n        /* \"zombiearmy.sol\":528:547  Zombie(_name, _dna) */\n      dup2\n      mstore\n      pop\n        /* \"zombiearmy.sol\":515:548  zombies.push(Zombie(_name, _dna)) */\n      swap1\n      dup1\n      0x01\n      dup2\n      sload\n      add\n      dup1\n      dup3\n      sstore\n      dup1\n      swap2\n      pop\n      pop\n      0x01\n      swap1\n      sub\n      swap1\n      0x00\n      mstore\n      keccak256(0x00, 0x20)\n      swap1\n      0x02\n      mul\n      add\n      0x00\n      swap1\n      swap2\n      swap1\n      swap2\n      swap1\n      swap2\n      pop\n      0x00\n      dup3\n      add\n      mload\n      dup2\n      0x00\n      add\n      swap1\n      dup1\n      mload\n      swap1\n      0x20\n      add\n      swap1\n      tag_78\n      swap3\n      swap2\n      swap1\n      tag_79\n      jump\t// in\n    tag_78:\n      pop\n      0x20\n      dup3\n      add\n      mload\n      dup2\n      0x01\n      add\n      sstore\n      pop\n      pop\n        /* \"zombiearmy.sol\":559:566  uint id */\n      0x00\n        /* \"zombiearmy.sol\":586:587  1 */\n      0x01\n        /* \"zombiearmy.sol\":569:576  zombies */\n      0x02\n        /* \"zombiearmy.sol\":569:583  zombies.length */\n      dup1\n      sload\n      swap1\n      pop\n        /* \"zombiearmy.sol\":569:587  zombies.length - 1 */\n      tag_80\n      swap2\n      swap1\n      tag_67\n      jump\t// in\n    tag_80:\n        /* \"zombiearmy.sol\":559:587  uint id = zombies.length - 1 */\n      swap1\n      pop\n        /* \"zombiearmy.sol\":618:628  msg.sender */\n      caller\n        /* \"zombiearmy.sol\":598:611  zombieToOwner */\n      0x03\n        /* \"zombiearmy.sol\":598:615  zombieToOwner[id] */\n      0x00\n        /* \"zombiearmy.sol\":612:614  id */\n      dup4\n        /* \"zombiearmy.sol\":598:615  zombieToOwner[id] */\n      dup2\n      mstore\n      0x20\n      add\n      swap1\n      dup2\n      mstore\n      0x20\n      add\n      0x00\n      keccak256\n      0x00\n        /* \"zombiearmy.sol\":598:628  zombieToOwner[id] = msg.sender */\n      0x0100\n      exp\n      dup2\n      sload\n      dup2\n      0xffffffffffffffffffffffffffffffffffffffff\n      mul\n      not\n      and\n      swap1\n      dup4\n      0xffffffffffffffffffffffffffffffffffffffff\n      and\n      mul\n      or\n      swap1\n      sstore\n      pop\n        /* \"zombiearmy.sol\":639:655  ownerZombieCount */\n      0x04\n        /* \"zombiearmy.sol\":639:667  ownerZombieCount[msg.sender] */\n      0x00\n        /* \"zombiearmy.sol\":656:666  msg.sender */\n      caller\n        /* \"zombiearmy.sol\":639:667  ownerZombieCount[msg.sender] */\n      0xffffffffffffffffffffffffffffffffffffffff\n      and\n      0xffffffffffffffffffffffffffffffffffffffff\n      and\n      dup2\n      mstore\n      0x20\n      add\n      swap1\n      dup2\n      mstore\n      0x20\n      add\n      0x00\n      keccak256\n      0x00\n        /* \"zombiearmy.sol\":639:669  ownerZombieCount[msg.sender]++ */\n      dup2\n      sload\n      dup1\n      swap3\n      swap2\n      swap1\n      tag_81\n      swap1\n      tag_82\n      jump\t// in\n    tag_81:\n      swap2\n      swap1\n      pop\n      sstore\n      pop\n        /* \"zombiearmy.sol\":685:711  NewZombie(id, _name, _dna) */\n      0x88f026aacbbecc90c18411df4b1185fd8d9be2470f1962f192bf84a27d0704b7\n        /* \"zombiearmy.sol\":695:697  id */\n      dup2\n        /* \"zombiearmy.sol\":699:704  _name */\n      dup5\n        /* \"zombiearmy.sol\":706:710  _dna */\n      dup5\n        /* \"zombiearmy.sol\":685:711  NewZombie(id, _name, _dna) */\n      mload(0x40)\n      tag_83\n      swap4\n      swap3\n      swap2\n      swap1\n      tag_84\n      jump\t// in\n    tag_83:\n      mload(0x40)\n      dup1\n      swap2\n      sub\n      swap1\n      log1\n        /* \"zombiearmy.sol\":504:719  {\r... */\n      pop\n        /* \"zombiearmy.sol\":440:719  function _createZombie(string memory _name, uint _dna) internal {\r... */\n      pop\n      pop\n      jump\t// out\n        /* \"zombiearmy.sol\":727:908  function _generateRandomDna(string memory _str) private view returns (uint) {\r... */\n    tag_74:\n        /* \"zombiearmy.sol\":797:801  uint */\n      0x00\n        /* \"zombiearmy.sol\":814:823  uint rand */\n      dup1\n        /* \"zombiearmy.sol\":858:862  _str */\n      dup3\n        /* \"zombiearmy.sol\":841:863  abi.encodePacked(_str) */\n      add(0x20, mload(0x40))\n      tag_86\n      swap2\n      swap1\n      tag_63\n      jump\t// in\n    tag_86:\n      mload(0x40)\n      0x20\n      dup2\n      dup4\n      sub\n      sub\n      dup2\n      mstore\n      swap1\n      0x40\n      mstore\n        /* \"zombiearmy.sol\":831:864  keccak256(abi.encodePacked(_str)) */\n      dup1\n      mload\n      swap1\n      0x20\n      add\n      keccak256\n        /* \"zombiearmy.sol\":826:865  uint(keccak256(abi.encodePacked(_str))) */\n      0x00\n      shr\n        /* \"zombiearmy.sol\":814:865  uint rand = uint(keccak256(abi.encodePacked(_str))) */\n      swap1\n      pop\n        /* \"zombiearmy.sol\":890:900  dnaModulus */\n      sload(0x01)\n        /* \"zombiearmy.sol\":883:887  rand */\n      dup2\n        /* \"zombiearmy.sol\":883:900  rand % dnaModulus */\n      tag_87\n      swap2\n      swap1\n      tag_55\n      jump\t// in\n    tag_87:\n        /* \"zombiearmy.sol\":876:900  return rand % dnaModulus */\n      swap2\n      pop\n      pop\n        /* \"zombiearmy.sol\":727:908  function _generateRandomDna(string memory _str) private view returns (uint) {\r... */\n      swap2\n      swap1\n      pop\n      jump\t// out\n    tag_79:\n      dup3\n      dup1\n      sload\n      tag_88\n      swap1\n      tag_43\n      jump\t// in\n    tag_88:\n      swap1\n      0x00\n      mstore\n      keccak256(0x00, 0x20)\n      swap1\n      0x1f\n      add\n      0x20\n      swap1\n      div\n      dup2\n      add\n      swap3\n      dup3\n      tag_90\n      jumpi\n      0x00\n      dup6\n      sstore\n      jump(tag_89)\n    tag_90:\n      dup3\n      0x1f\n      lt\n      tag_91\n      jumpi\n      dup1\n      mload\n      not(0xff)\n      and\n      dup4\n      dup1\n      add\n      or\n      dup6\n      sstore\n      jump(tag_89)\n    tag_91:\n      dup3\n      dup1\n      add\n      0x01\n      add\n      dup6\n      sstore\n      dup3\n      iszero\n      tag_89\n      jumpi\n      swap2\n      dup3\n      add\n    tag_92:\n      dup3\n      dup2\n      gt\n      iszero\n      tag_93\n      jumpi\n      dup3\n      mload\n      dup3\n      sstore\n      swap2\n      0x20\n      add\n      swap2\n      swap1\n      0x01\n      add\n      swap1\n      jump(tag_92)\n    tag_93:\n    tag_89:\n      pop\n      swap1\n      pop\n      tag_94\n      swap2\n      swap1\n      tag_95\n      jump\t// in\n    tag_94:\n      pop\n      swap1\n      jump\t// out\n    tag_95:\n    tag_96:\n      dup1\n      dup3\n      gt\n      iszero\n      tag_97\n      jumpi\n      0x00\n      dup2\n      0x00\n      swap1\n      sstore\n      pop\n      0x01\n      add\n      jump(tag_96)\n    tag_97:\n      pop\n      swap1\n      jump\t// out\n        /* \"#utility.yul\":7:419   */\n    tag_99:\n        /* \"#utility.yul\":85:90   */\n      0x00\n        /* \"#utility.yul\":110:176   */\n      tag_101\n        /* \"#utility.yul\":126:175   */\n      tag_102\n        /* \"#utility.yul\":168:174   */\n      dup5\n        /* \"#utility.yul\":126:175   */\n      tag_103\n      jump\t// in\n    tag_102:\n        /* \"#utility.yul\":110:176   */\n      tag_104\n      jump\t// in\n    tag_101:\n        /* \"#utility.yul\":101:176   */\n      swap1\n      pop\n        /* \"#utility.yul\":199:205   */\n      dup3\n        /* \"#utility.yul\":192:197   */\n      dup2\n        /* \"#utility.yul\":185:206   */\n      mstore\n        /* \"#utility.yul\":237:241   */\n      0x20\n        /* \"#utility.yul\":230:235   */\n      dup2\n        /* \"#utility.yul\":226:242   */\n      add\n        /* \"#utility.yul\":275:278   */\n      dup5\n        /* \"#utility.yul\":266:272   */\n      dup5\n        /* \"#utility.yul\":261:264   */\n      dup5\n        /* \"#utility.yul\":257:273   */\n      add\n        /* \"#utility.yul\":254:279   */\n      gt\n        /* \"#utility.yul\":251:363   */\n      iszero\n      tag_105\n      jumpi\n        /* \"#utility.yul\":282:361   */\n      tag_106\n      tag_107\n      jump\t// in\n    tag_106:\n        /* \"#utility.yul\":251:363   */\n    tag_105:\n        /* \"#utility.yul\":372:413   */\n      tag_108\n        /* \"#utility.yul\":406:412   */\n      dup5\n        /* \"#utility.yul\":401:404   */\n      dup3\n        /* \"#utility.yul\":396:399   */\n      dup6\n        /* \"#utility.yul\":372:413   */\n      tag_109\n      jump\t// in\n    tag_108:\n        /* \"#utility.yul\":91:419   */\n      pop\n        /* \"#utility.yul\":7:419   */\n      swap4\n      swap3\n      pop\n      pop\n      pop\n      jump\t// out\n        /* \"#utility.yul\":425:562   */\n    tag_110:\n        /* \"#utility.yul\":479:484   */\n      0x00\n        /* \"#utility.yul\":510:516   */\n      dup2\n        /* \"#utility.yul\":504:517   */\n      mload\n        /* \"#utility.yul\":495:517   */\n      swap1\n      pop\n        /* \"#utility.yul\":526:556   */\n      tag_112\n        /* \"#utility.yul\":550:555   */\n      dup2\n        /* \"#utility.yul\":526:556   */\n      tag_113\n      jump\t// in\n    tag_112:\n        /* \"#utility.yul\":425:562   */\n      swap3\n      swap2\n      pop\n      pop\n      jump\t// out\n        /* \"#utility.yul\":582:922   */\n    tag_114:\n        /* \"#utility.yul\":638:643   */\n      0x00\n        /* \"#utility.yul\":687:690   */\n      dup3\n        /* \"#utility.yul\":680:684   */\n      0x1f\n        /* \"#utility.yul\":672:678   */\n      dup4\n        /* \"#utility.yul\":668:685   */\n      add\n        /* \"#utility.yul\":664:691   */\n      slt\n        /* \"#utility.yul\":654:776   */\n      tag_116\n      jumpi\n        /* \"#utility.yul\":695:774   */\n      tag_117\n      tag_118\n      jump\t// in\n    tag_117:\n        /* \"#utility.yul\":654:776   */\n    tag_116:\n        /* \"#utility.yul\":812:818   */\n      dup2\n        /* \"#utility.yul\":799:819   */\n      calldataload\n        /* \"#utility.yul\":837:916   */\n      tag_119\n        /* \"#utility.yul\":912:915   */\n      dup5\n        /* \"#utility.yul\":904:910   */\n      dup3\n        /* \"#utility.yul\":897:901   */\n      0x20\n        /* \"#utility.yul\":889:895   */\n      dup7\n        /* \"#utility.yul\":885:902   */\n      add\n        /* \"#utility.yul\":837:916   */\n      tag_99\n      jump\t// in\n    tag_119:\n        /* \"#utility.yul\":828:916   */\n      swap2\n      pop\n        /* \"#utility.yul\":644:922   */\n      pop\n        /* \"#utility.yul\":582:922   */\n      swap3\n      swap2\n      pop\n      pop\n      jump\t// out\n        /* \"#utility.yul\":928:1067   */\n    tag_120:\n        /* \"#utility.yul\":974:979   */\n      0x00\n        /* \"#utility.yul\":1012:1018   */\n      dup2\n        /* \"#utility.yul\":999:1019   */\n      calldataload\n        /* \"#utility.yul\":990:1019   */\n      swap1\n      pop\n        /* \"#utility.yul\":1028:1061   */\n      tag_122\n        /* \"#utility.yul\":1055:1060   */\n      dup2\n        /* \"#utility.yul\":1028:1061   */\n      tag_123\n      jump\t// in\n    tag_122:\n        /* \"#utility.yul\":928:1067   */\n      swap3\n      swap2\n      pop\n      pop\n      jump\t// out\n        /* \"#utility.yul\":1073:1216   */\n    tag_124:\n        /* \"#utility.yul\":1130:1135   */\n      0x00\n        /* \"#utility.yul\":1161:1167   */\n      dup2\n        /* \"#utility.yul\":1155:1168   */\n      mload\n        /* \"#utility.yul\":1146:1168   */\n      swap1\n      pop\n        /* \"#utility.yul\":1177:1210   */\n      tag_126\n        /* \"#utility.yul\":1204:1209   */\n      dup2\n        /* \"#utility.yul\":1177:1210   */\n      tag_123\n      jump\t// in\n    tag_126:\n        /* \"#utility.yul\":1073:1216   */\n      swap3\n      swap2\n      pop\n      pop\n      jump\t// out\n        /* \"#utility.yul\":1222:2972   */\n    tag_38:\n        /* \"#utility.yul\":1367:1373   */\n      0x00\n        /* \"#utility.yul\":1375:1381   */\n      dup1\n        /* \"#utility.yul\":1383:1389   */\n      0x00\n        /* \"#utility.yul\":1391:1397   */\n      dup1\n        /* \"#utility.yul\":1399:1405   */\n      0x00\n        /* \"#utility.yul\":1407:1413   */\n      dup1\n        /* \"#utility.yul\":1415:1421   */\n      0x00\n        /* \"#utility.yul\":1423:1429   */\n      dup1\n        /* \"#utility.yul\":1431:1437   */\n      0x00\n        /* \"#utility.yul\":1439:1445   */\n      dup1\n        /* \"#utility.yul\":1488:1491   */\n      0x0140\n        /* \"#utility.yul\":1476:1485   */\n      dup12\n        /* \"#utility.yul\":1467:1474   */\n      dup14\n        /* \"#utility.yul\":1463:1486   */\n      sub\n        /* \"#utility.yul\":1459:1492   */\n      slt\n        /* \"#utility.yul\":1456:1576   */\n      iszero\n      tag_128\n      jumpi\n        /* \"#utility.yul\":1495:1574   */\n      tag_129\n      tag_130\n      jump\t// in\n    tag_129:\n        /* \"#utility.yul\":1456:1576   */\n    tag_128:\n        /* \"#utility.yul\":1615:1616   */\n      0x00\n        /* \"#utility.yul\":1640:1701   */\n      tag_131\n        /* \"#utility.yul\":1693:1700   */\n      dup14\n        /* \"#utility.yul\":1684:1690   */\n      dup3\n        /* \"#utility.yul\":1673:1682   */\n      dup15\n        /* \"#utility.yul\":1669:1691   */\n      add\n        /* \"#utility.yul\":1640:1701   */\n      tag_110\n      jump\t// in\n    tag_131:\n        /* \"#utility.yul\":1630:1701   */\n      swap11\n      pop\n        /* \"#utility.yul\":1586:1711   */\n      pop\n        /* \"#utility.yul\":1750:1752   */\n      0x20\n        /* \"#utility.yul\":1776:1837   */\n      tag_132\n        /* \"#utility.yul\":1829:1836   */\n      dup14\n        /* \"#utility.yul\":1820:1826   */\n      dup3\n        /* \"#utility.yul\":1809:1818   */\n      dup15\n        /* \"#utility.yul\":1805:1827   */\n      add\n        /* \"#utility.yul\":1776:1837   */\n      tag_110\n      jump\t// in\n    tag_132:\n        /* \"#utility.yul\":1766:1837   */\n      swap10\n      pop\n        /* \"#utility.yul\":1721:1847   */\n      pop\n        /* \"#utility.yul\":1886:1888   */\n      0x40\n        /* \"#utility.yul\":1912:1976   */\n      tag_133\n        /* \"#utility.yul\":1968:1975   */\n      dup14\n        /* \"#utility.yul\":1959:1965   */\n      dup3\n        /* \"#utility.yul\":1948:1957   */\n      dup15\n        /* \"#utility.yul\":1944:1966   */\n      add\n        /* \"#utility.yul\":1912:1976   */\n      tag_124\n      jump\t// in\n    tag_133:\n        /* \"#utility.yul\":1902:1976   */\n      swap9\n      pop\n        /* \"#utility.yul\":1857:1986   */\n      pop\n        /* \"#utility.yul\":2025:2027   */\n      0x60\n        /* \"#utility.yul\":2051:2115   */\n      tag_134\n        /* \"#utility.yul\":2107:2114   */\n      dup14\n        /* \"#utility.yul\":2098:2104   */\n      dup3\n        /* \"#utility.yul\":2087:2096   */\n      dup15\n        /* \"#utility.yul\":2083:2105   */\n      add\n        /* \"#utility.yul\":2051:2115   */\n      tag_124\n      jump\t// in\n    tag_134:\n        /* \"#utility.yul\":2041:2115   */\n      swap8\n      pop\n        /* \"#utility.yul\":1996:2125   */\n      pop\n        /* \"#utility.yul\":2164:2167   */\n      0x80\n        /* \"#utility.yul\":2191:2255   */\n      tag_135\n        /* \"#utility.yul\":2247:2254   */\n      dup14\n        /* \"#utility.yul\":2238:2244   */\n      dup3\n        /* \"#utility.yul\":2227:2236   */\n      dup15\n        /* \"#utility.yul\":2223:2245   */\n      add\n        /* \"#utility.yul\":2191:2255   */\n      tag_124\n      jump\t// in\n    tag_135:\n        /* \"#utility.yul\":2181:2255   */\n      swap7\n      pop\n        /* \"#utility.yul\":2135:2265   */\n      pop\n        /* \"#utility.yul\":2304:2307   */\n      0xa0\n        /* \"#utility.yul\":2331:2395   */\n      tag_136\n        /* \"#utility.yul\":2387:2394   */\n      dup14\n        /* \"#utility.yul\":2378:2384   */\n      dup3\n        /* \"#utility.yul\":2367:2376   */\n      dup15\n        /* \"#utility.yul\":2363:2385   */\n      add\n        /* \"#utility.yul\":2331:2395   */\n      tag_124\n      jump\t// in\n    tag_136:\n        /* \"#utility.yul\":2321:2395   */\n      swap6\n      pop\n        /* \"#utility.yul\":2275:2405   */\n      pop\n        /* \"#utility.yul\":2444:2447   */\n      0xc0\n        /* \"#utility.yul\":2471:2535   */\n      tag_137\n        /* \"#utility.yul\":2527:2534   */\n      dup14\n        /* \"#utility.yul\":2518:2524   */\n      dup3\n        /* \"#utility.yul\":2507:2516   */\n      dup15\n        /* \"#utility.yul\":2503:2525   */\n      add\n        /* \"#utility.yul\":2471:2535   */\n      tag_124\n      jump\t// in\n    tag_137:\n        /* \"#utility.yul\":2461:2535   */\n      swap5\n      pop\n        /* \"#utility.yul\":2415:2545   */\n      pop\n        /* \"#utility.yul\":2584:2587   */\n      0xe0\n        /* \"#utility.yul\":2611:2675   */\n      tag_138\n        /* \"#utility.yul\":2667:2674   */\n      dup14\n        /* \"#utility.yul\":2658:2664   */\n      dup3\n        /* \"#utility.yul\":2647:2656   */\n      dup15\n        /* \"#utility.yul\":2643:2665   */\n      add\n        /* \"#utility.yul\":2611:2675   */\n      tag_124\n      jump\t// in\n    tag_138:\n        /* \"#utility.yul\":2601:2675   */\n      swap4\n      pop\n        /* \"#utility.yul\":2555:2685   */\n      pop\n        /* \"#utility.yul\":2724:2727   */\n      0x0100\n        /* \"#utility.yul\":2751:2815   */\n      tag_139\n        /* \"#utility.yul\":2807:2814   */\n      dup14\n        /* \"#utility.yul\":2798:2804   */\n      dup3\n        /* \"#utility.yul\":2787:2796   */\n      dup15\n        /* \"#utility.yul\":2783:2805   */\n      add\n        /* \"#utility.yul\":2751:2815   */\n      tag_124\n      jump\t// in\n    tag_139:\n        /* \"#utility.yul\":2741:2815   */\n      swap3\n      pop\n        /* \"#utility.yul\":2695:2825   */\n      pop\n        /* \"#utility.yul\":2864:2867   */\n      0x0120\n        /* \"#utility.yul\":2891:2955   */\n      tag_140\n        /* \"#utility.yul\":2947:2954   */\n      dup14\n        /* \"#utility.yul\":2938:2944   */\n      dup3\n        /* \"#utility.yul\":2927:2936   */\n      dup15\n        /* \"#utility.yul\":2923:2945   */\n      add\n        /* \"#utility.yul\":2891:2955   */\n      tag_124\n      jump\t// in\n    tag_140:\n        /* \"#utility.yul\":2881:2955   */\n      swap2\n      pop\n        /* \"#utility.yul\":2835:2965   */\n      pop\n        /* \"#utility.yul\":1222:2972   */\n      swap3\n      swap6\n      swap9\n      swap12\n      swap2\n      swap5\n      swap8\n      swap11\n      pop\n      swap3\n      swap6\n      swap9\n      pop\n      jump\t// out\n        /* \"#utility.yul\":2978:3487   */\n    tag_29:\n        /* \"#utility.yul\":3047:3053   */\n      0x00\n        /* \"#utility.yul\":3096:3098   */\n      0x20\n        /* \"#utility.yul\":3084:3093   */\n      dup3\n        /* \"#utility.yul\":3075:3082   */\n      dup5\n        /* \"#utility.yul\":3071:3094   */\n      sub\n        /* \"#utility.yul\":3067:3099   */\n      slt\n        /* \"#utility.yul\":3064:3183   */\n      iszero\n      tag_142\n      jumpi\n        /* \"#utility.yul\":3102:3181   */\n      tag_143\n      tag_130\n      jump\t// in\n    tag_143:\n        /* \"#utility.yul\":3064:3183   */\n    tag_142:\n        /* \"#utility.yul\":3250:3251   */\n      0x00\n        /* \"#utility.yul\":3239:3248   */\n      dup3\n        /* \"#utility.yul\":3235:3252   */\n      add\n        /* \"#utility.yul\":3222:3253   */\n      calldataload\n        /* \"#utility.yul\":3280:3298   */\n      0xffffffffffffffff\n        /* \"#utility.yul\":3272:3278   */\n      dup2\n        /* \"#utility.yul\":3269:3299   */\n      gt\n        /* \"#utility.yul\":3266:3383   */\n      iszero\n      tag_144\n      jumpi\n        /* \"#utility.yul\":3302:3381   */\n      tag_145\n      tag_146\n      jump\t// in\n    tag_145:\n        /* \"#utility.yul\":3266:3383   */\n    tag_144:\n        /* \"#utility.yul\":3407:3470   */\n      tag_147\n        /* \"#utility.yul\":3462:3469   */\n      dup5\n        /* \"#utility.yul\":3453:3459   */\n      dup3\n        /* \"#utility.yul\":3442:3451   */\n      dup6\n        /* \"#utility.yul\":3438:3460   */\n      add\n        /* \"#utility.yul\":3407:3470   */\n      tag_114\n      jump\t// in\n    tag_147:\n        /* \"#utility.yul\":3397:3470   */\n      swap2\n      pop\n        /* \"#utility.yul\":3193:3480   */\n      pop\n        /* \"#utility.yul\":2978:3487   */\n      swap3\n      swap2\n      pop\n      pop\n      jump\t// out\n        /* \"#utility.yul\":3493:3822   */\n    tag_14:\n        /* \"#utility.yul\":3552:3558   */\n      0x00\n        /* \"#utility.yul\":3601:3603   */\n      0x20\n        /* \"#utility.yul\":3589:3598   */\n      dup3\n        /* \"#utility.yul\":3580:3587   */\n      dup5\n        /* \"#utility.yul\":3576:3599   */\n      sub\n        /* \"#utility.yul\":3572:3604   */\n      slt\n        /* \"#utility.yul\":3569:3688   */\n      iszero\n      tag_149\n      jumpi\n        /* \"#utility.yul\":3607:3686   */\n      tag_150\n      tag_130\n      jump\t// in\n    tag_150:\n        /* \"#utility.yul\":3569:3688   */\n    tag_149:\n        /* \"#utility.yul\":3727:3728   */\n      0x00\n        /* \"#utility.yul\":3752:3805   */\n      tag_151\n        /* \"#utility.yul\":3797:3804   */\n      dup5\n        /* \"#utility.yul\":3788:3794   */\n      dup3\n        /* \"#utility.yul\":3777:3786   */\n      dup6\n        /* \"#utility.yul\":3773:3795   */\n      add\n        /* \"#utility.yul\":3752:3805   */\n      tag_120\n      jump\t// in\n    tag_151:\n        /* \"#utility.yul\":3742:3805   */\n      swap2\n      pop\n        /* \"#utility.yul\":3698:3815   */\n      pop\n        /* \"#utility.yul\":3493:3822   */\n      swap3\n      swap2\n      pop\n      pop\n      jump\t// out\n        /* \"#utility.yul\":3828:4302   */\n    tag_10:\n        /* \"#utility.yul\":3896:3902   */\n      0x00\n        /* \"#utility.yul\":3904:3910   */\n      dup1\n        /* \"#utility.yul\":3953:3955   */\n      0x40\n        /* \"#utility.yul\":3941:3950   */\n      dup4\n        /* \"#utility.yul\":3932:3939   */\n      dup6\n        /* \"#utility.yul\":3928:3951   */\n      sub\n        /* \"#utility.yul\":3924:3956   */\n      slt\n        /* \"#utility.yul\":3921:4040   */\n      iszero\n      tag_153\n      jumpi\n        /* \"#utility.yul\":3959:4038   */\n      tag_154\n      tag_130\n      jump\t// in\n    tag_154:\n        /* \"#utility.yul\":3921:4040   */\n    tag_153:\n        /* \"#utility.yul\":4079:4080   */\n      0x00\n        /* \"#utility.yul\":4104:4157   */\n      tag_155\n        /* \"#utility.yul\":4149:4156   */\n      dup6\n        /* \"#utility.yul\":4140:4146   */\n      dup3\n        /* \"#utility.yul\":4129:4138   */\n      dup7\n        /* \"#utility.yul\":4125:4147   */\n      add\n        /* \"#utility.yul\":4104:4157   */\n      tag_120\n      jump\t// in\n    tag_155:\n        /* \"#utility.yul\":4094:4157   */\n      swap3\n      pop\n        /* \"#utility.yul\":4050:4167   */\n      pop\n        /* \"#utility.yul\":4206:4208   */\n      0x20\n        /* \"#utility.yul\":4232:4285   */\n      tag_156\n        /* \"#utility.yul\":4277:4284   */\n      dup6\n        /* \"#utility.yul\":4268:4274   */\n      dup3\n        /* \"#utility.yul\":4257:4266   */\n      dup7\n        /* \"#utility.yul\":4253:4275   */\n      add\n        /* \"#utility.yul\":4232:4285   */\n      tag_120\n      jump\t// in\n    tag_156:\n        /* \"#utility.yul\":4222:4285   */\n      swap2\n      pop\n        /* \"#utility.yul\":4177:4295   */\n      pop\n        /* \"#utility.yul\":3828:4302   */\n      swap3\n      pop\n      swap3\n      swap1\n      pop\n      jump\t// out\n        /* \"#utility.yul\":4308:5107   */\n    tag_25:\n        /* \"#utility.yul\":4395:4401   */\n      0x00\n        /* \"#utility.yul\":4403:4409   */\n      dup1\n        /* \"#utility.yul\":4411:4417   */\n      0x00\n        /* \"#utility.yul\":4460:4462   */\n      0x60\n        /* \"#utility.yul\":4448:4457   */\n      dup5\n        /* \"#utility.yul\":4439:4446   */\n      dup7\n        /* \"#utility.yul\":4435:4458   */\n      sub\n        /* \"#utility.yul\":4431:4463   */\n      slt\n        /* \"#utility.yul\":4428:4547   */\n      iszero\n      tag_158\n      jumpi\n        /* \"#utility.yul\":4466:4545   */\n      tag_159\n      tag_130\n      jump\t// in\n    tag_159:\n        /* \"#utility.yul\":4428:4547   */\n    tag_158:\n        /* \"#utility.yul\":4586:4587   */\n      0x00\n        /* \"#utility.yul\":4611:4664   */\n      tag_160\n        /* \"#utility.yul\":4656:4663   */\n      dup7\n        /* \"#utility.yul\":4647:4653   */\n      dup3\n        /* \"#utility.yul\":4636:4645   */\n      dup8\n        /* \"#utility.yul\":4632:4654   */\n      add\n        /* \"#utility.yul\":4611:4664   */\n      tag_120\n      jump\t// in\n    tag_160:\n        /* \"#utility.yul\":4601:4664   */\n      swap4\n      pop\n        /* \"#utility.yul\":4557:4674   */\n      pop\n        /* \"#utility.yul\":4713:4715   */\n      0x20\n        /* \"#utility.yul\":4739:4792   */\n      tag_161\n        /* \"#utility.yul\":4784:4791   */\n      dup7\n        /* \"#utility.yul\":4775:4781   */\n      dup3\n        /* \"#utility.yul\":4764:4773   */\n      dup8\n        /* \"#utility.yul\":4760:4782   */\n      add\n        /* \"#utility.yul\":4739:4792   */\n      tag_120\n      jump\t// in\n    tag_161:\n        /* \"#utility.yul\":4729:4792   */\n      swap3\n      pop\n        /* \"#utility.yul\":4684:4802   */\n      pop\n        /* \"#utility.yul\":4869:4871   */\n      0x40\n        /* \"#utility.yul\":4858:4867   */\n      dup5\n        /* \"#utility.yul\":4854:4872   */\n      add\n        /* \"#utility.yul\":4841:4873   */\n      calldataload\n        /* \"#utility.yul\":4900:4918   */\n      0xffffffffffffffff\n        /* \"#utility.yul\":4892:4898   */\n      dup2\n        /* \"#utility.yul\":4889:4919   */\n      gt\n        /* \"#utility.yul\":4886:5003   */\n      iszero\n      tag_162\n      jumpi\n        /* \"#utility.yul\":4922:5001   */\n      tag_163\n      tag_146\n      jump\t// in\n    tag_163:\n        /* \"#utility.yul\":4886:5003   */\n    tag_162:\n        /* \"#utility.yul\":5027:5090   */\n      tag_164\n        /* \"#utility.yul\":5082:5089   */\n      dup7\n        /* \"#utility.yul\":5073:5079   */\n      dup3\n        /* \"#utility.yul\":5062:5071   */\n      dup8\n        /* \"#utility.yul\":5058:5080   */\n      add\n        /* \"#utility.yul\":5027:5090   */\n      tag_114\n      jump\t// in\n    tag_164:\n        /* \"#utility.yul\":5017:5090   */\n      swap2\n      pop\n        /* \"#utility.yul\":4812:5100   */\n      pop\n        /* \"#utility.yul\":4308:5107   */\n      swap3\n      pop\n      swap3\n      pop\n      swap3\n      jump\t// out\n        /* \"#utility.yul\":5113:5231   */\n    tag_165:\n        /* \"#utility.yul\":5200:5224   */\n      tag_167\n        /* \"#utility.yul\":5218:5223   */\n      dup2\n        /* \"#utility.yul\":5200:5224   */\n      tag_168\n      jump\t// in\n    tag_167:\n        /* \"#utility.yul\":5195:5198   */\n      dup3\n        /* \"#utility.yul\":5188:5225   */\n      mstore\n        /* \"#utility.yul\":5113:5231   */\n      pop\n      pop\n      jump\t// out\n        /* \"#utility.yul\":5237:5601   */\n    tag_169:\n        /* \"#utility.yul\":5325:5328   */\n      0x00\n        /* \"#utility.yul\":5353:5392   */\n      tag_171\n        /* \"#utility.yul\":5386:5391   */\n      dup3\n        /* \"#utility.yul\":5353:5392   */\n      tag_172\n      jump\t// in\n    tag_171:\n        /* \"#utility.yul\":5408:5479   */\n      tag_173\n        /* \"#utility.yul\":5472:5478   */\n      dup2\n        /* \"#utility.yul\":5467:5470   */\n      dup6\n        /* \"#utility.yul\":5408:5479   */\n      tag_174\n      jump\t// in\n    tag_173:\n        /* \"#utility.yul\":5401:5479   */\n      swap4\n      pop\n        /* \"#utility.yul\":5488:5540   */\n      tag_175\n        /* \"#utility.yul\":5533:5539   */\n      dup2\n        /* \"#utility.yul\":5528:5531   */\n      dup6\n        /* \"#utility.yul\":5521:5525   */\n      0x20\n        /* \"#utility.yul\":5514:5519   */\n      dup7\n        /* \"#utility.yul\":5510:5526   */\n      add\n        /* \"#utility.yul\":5488:5540   */\n      tag_176\n      jump\t// in\n    tag_175:\n        /* \"#utility.yul\":5565:5594   */\n      tag_177\n        /* \"#utility.yul\":5587:5593   */\n      dup2\n        /* \"#utility.yul\":5565:5594   */\n      tag_178\n      jump\t// in\n    tag_177:\n        /* \"#utility.yul\":5560:5563   */\n      dup5\n        /* \"#utility.yul\":5556:5595   */\n      add\n        /* \"#utility.yul\":5549:5595   */\n      swap2\n      pop\n        /* \"#utility.yul\":5329:5601   */\n      pop\n        /* \"#utility.yul\":5237:5601   */\n      swap3\n      swap2\n      pop\n      pop\n      jump\t// out\n        /* \"#utility.yul\":5607:5984   */\n    tag_179:\n        /* \"#utility.yul\":5713:5716   */\n      0x00\n        /* \"#utility.yul\":5741:5780   */\n      tag_181\n        /* \"#utility.yul\":5774:5779   */\n      dup3\n        /* \"#utility.yul\":5741:5780   */\n      tag_172\n      jump\t// in\n    tag_181:\n        /* \"#utility.yul\":5796:5885   */\n      tag_182\n        /* \"#utility.yul\":5878:5884   */\n      dup2\n        /* \"#utility.yul\":5873:5876   */\n      dup6\n        /* \"#utility.yul\":5796:5885   */\n      tag_183\n      jump\t// in\n    tag_182:\n        /* \"#utility.yul\":5789:5885   */\n      swap4\n      pop\n        /* \"#utility.yul\":5894:5946   */\n      tag_184\n        /* \"#utility.yul\":5939:5945   */\n      dup2\n        /* \"#utility.yul\":5934:5937   */\n      dup6\n        /* \"#utility.yul\":5927:5931   */\n      0x20\n        /* \"#utility.yul\":5920:5925   */\n      dup7\n        /* \"#utility.yul\":5916:5932   */\n      add\n        /* \"#utility.yul\":5894:5946   */\n      tag_176\n      jump\t// in\n    tag_184:\n        /* \"#utility.yul\":5971:5977   */\n      dup1\n        /* \"#utility.yul\":5966:5969   */\n      dup5\n        /* \"#utility.yul\":5962:5978   */\n      add\n        /* \"#utility.yul\":5955:5978   */\n      swap2\n      pop\n        /* \"#utility.yul\":5717:5984   */\n      pop\n        /* \"#utility.yul\":5607:5984   */\n      swap3\n      swap2\n      pop\n      pop\n      jump\t// out\n        /* \"#utility.yul\":5990:6390   */\n    tag_185:\n        /* \"#utility.yul\":6150:6153   */\n      0x00\n        /* \"#utility.yul\":6171:6255   */\n      tag_187\n        /* \"#utility.yul\":6253:6254   */\n      0x05\n        /* \"#utility.yul\":6248:6251   */\n      dup4\n        /* \"#utility.yul\":6171:6255   */\n      tag_183\n      jump\t// in\n    tag_187:\n        /* \"#utility.yul\":6164:6255   */\n      swap2\n      pop\n        /* \"#utility.yul\":6264:6357   */\n      tag_188\n        /* \"#utility.yul\":6353:6356   */\n      dup3\n        /* \"#utility.yul\":6264:6357   */\n      tag_189\n      jump\t// in\n    tag_188:\n        /* \"#utility.yul\":6382:6383   */\n      0x05\n        /* \"#utility.yul\":6377:6380   */\n      dup3\n        /* \"#utility.yul\":6373:6384   */\n      add\n        /* \"#utility.yul\":6366:6384   */\n      swap1\n      pop\n        /* \"#utility.yul\":5990:6390   */\n      swap2\n      swap1\n      pop\n      jump\t// out\n        /* \"#utility.yul\":6396:6514   */\n    tag_190:\n        /* \"#utility.yul\":6483:6507   */\n      tag_192\n        /* \"#utility.yul\":6501:6506   */\n      dup2\n        /* \"#utility.yul\":6483:6507   */\n      tag_193\n      jump\t// in\n    tag_192:\n        /* \"#utility.yul\":6478:6481   */\n      dup3\n        /* \"#utility.yul\":6471:6508   */\n      mstore\n        /* \"#utility.yul\":6396:6514   */\n      pop\n      pop\n      jump\t// out\n        /* \"#utility.yul\":6520:6795   */\n    tag_63:\n        /* \"#utility.yul\":6652:6655   */\n      0x00\n        /* \"#utility.yul\":6674:6769   */\n      tag_195\n        /* \"#utility.yul\":6765:6768   */\n      dup3\n        /* \"#utility.yul\":6756:6762   */\n      dup5\n        /* \"#utility.yul\":6674:6769   */\n      tag_179\n      jump\t// in\n    tag_195:\n        /* \"#utility.yul\":6667:6769   */\n      swap2\n      pop\n        /* \"#utility.yul\":6786:6789   */\n      dup2\n        /* \"#utility.yul\":6779:6789   */\n      swap1\n      pop\n        /* \"#utility.yul\":6520:6795   */\n      swap3\n      swap2\n      pop\n      pop\n      jump\t// out\n        /* \"#utility.yul\":6801:7182   */\n    tag_61:\n        /* \"#utility.yul\":6986:6989   */\n      0x00\n        /* \"#utility.yul\":7008:7156   */\n      tag_197\n        /* \"#utility.yul\":7152:7155   */\n      dup3\n        /* \"#utility.yul\":7008:7156   */\n      tag_185\n      jump\t// in\n    tag_197:\n        /* \"#utility.yul\":7001:7156   */\n      swap2\n      pop\n        /* \"#utility.yul\":7173:7176   */\n      dup2\n        /* \"#utility.yul\":7166:7176   */\n      swap1\n      pop\n        /* \"#utility.yul\":6801:7182   */\n      swap2\n      swap1\n      pop\n      jump\t// out\n        /* \"#utility.yul\":7188:7410   */\n    tag_22:\n        /* \"#utility.yul\":7281:7285   */\n      0x00\n        /* \"#utility.yul\":7319:7321   */\n      0x20\n        /* \"#utility.yul\":7308:7317   */\n      dup3\n        /* \"#utility.yul\":7304:7322   */\n      add\n        /* \"#utility.yul\":7296:7322   */\n      swap1\n      pop\n        /* \"#utility.yul\":7332:7403   */\n      tag_199\n        /* \"#utility.yul\":7400:7401   */\n      0x00\n        /* \"#utility.yul\":7389:7398   */\n      dup4\n        /* \"#utility.yul\":7385:7402   */\n      add\n        /* \"#utility.yul\":7376:7382   */\n      dup5\n        /* \"#utility.yul\":7332:7403   */\n      tag_165\n      jump\t// in\n    tag_199:\n        /* \"#utility.yul\":7188:7410   */\n      swap3\n      swap2\n      pop\n      pop\n      jump\t// out\n        /* \"#utility.yul\":7416:7839   */\n    tag_17:\n        /* \"#utility.yul\":7557:7561   */\n      0x00\n        /* \"#utility.yul\":7595:7597   */\n      0x40\n        /* \"#utility.yul\":7584:7593   */\n      dup3\n        /* \"#utility.yul\":7580:7598   */\n      add\n        /* \"#utility.yul\":7572:7598   */\n      swap1\n      pop\n        /* \"#utility.yul\":7644:7653   */\n      dup2\n        /* \"#utility.yul\":7638:7642   */\n      dup2\n        /* \"#utility.yul\":7634:7654   */\n      sub\n        /* \"#utility.yul\":7630:7631   */\n      0x00\n        /* \"#utility.yul\":7619:7628   */\n      dup4\n        /* \"#utility.yul\":7615:7632   */\n      add\n        /* \"#utility.yul\":7608:7655   */\n      mstore\n        /* \"#utility.yul\":7672:7750   */\n      tag_201\n        /* \"#utility.yul\":7745:7749   */\n      dup2\n        /* \"#utility.yul\":7736:7742   */\n      dup6\n        /* \"#utility.yul\":7672:7750   */\n      tag_169\n      jump\t// in\n    tag_201:\n        /* \"#utility.yul\":7664:7750   */\n      swap1\n      pop\n        /* \"#utility.yul\":7760:7832   */\n      tag_202\n        /* \"#utility.yul\":7828:7830   */\n      0x20\n        /* \"#utility.yul\":7817:7826   */\n      dup4\n        /* \"#utility.yul\":7813:7831   */\n      add\n        /* \"#utility.yul\":7804:7810   */\n      dup5\n        /* \"#utility.yul\":7760:7832   */\n      tag_190\n      jump\t// in\n    tag_202:\n        /* \"#utility.yul\":7416:7839   */\n      swap4\n      swap3\n      pop\n      pop\n      pop\n      jump\t// out\n        /* \"#utility.yul\":7845:8067   */\n    tag_33:\n        /* \"#utility.yul\":7938:7942   */\n      0x00\n        /* \"#utility.yul\":7976:7978   */\n      0x20\n        /* \"#utility.yul\":7965:7974   */\n      dup3\n        /* \"#utility.yul\":7961:7979   */\n      add\n        /* \"#utility.yul\":7953:7979   */\n      swap1\n      pop\n        /* \"#utility.yul\":7989:8060   */\n      tag_204\n        /* \"#utility.yul\":8057:8058   */\n      0x00\n        /* \"#utility.yul\":8046:8055   */\n      dup4\n        /* \"#utility.yul\":8042:8059   */\n      add\n        /* \"#utility.yul\":8033:8039   */\n      dup5\n        /* \"#utility.yul\":7989:8060   */\n      tag_190\n      jump\t// in\n    tag_204:\n        /* \"#utility.yul\":7845:8067   */\n      swap3\n      swap2\n      pop\n      pop\n      jump\t// out\n        /* \"#utility.yul\":8073:8606   */\n    tag_84:\n        /* \"#utility.yul\":8242:8246   */\n      0x00\n        /* \"#utility.yul\":8280:8282   */\n      0x60\n        /* \"#utility.yul\":8269:8278   */\n      dup3\n        /* \"#utility.yul\":8265:8283   */\n      add\n        /* \"#utility.yul\":8257:8283   */\n      swap1\n      pop\n        /* \"#utility.yul\":8293:8364   */\n      tag_206\n        /* \"#utility.yul\":8361:8362   */\n      0x00\n        /* \"#utility.yul\":8350:8359   */\n      dup4\n        /* \"#utility.yul\":8346:8363   */\n      add\n        /* \"#utility.yul\":8337:8343   */\n      dup7\n        /* \"#utility.yul\":8293:8364   */\n      tag_190\n      jump\t// in\n    tag_206:\n        /* \"#utility.yul\":8411:8420   */\n      dup2\n        /* \"#utility.yul\":8405:8409   */\n      dup2\n        /* \"#utility.yul\":8401:8421   */\n      sub\n        /* \"#utility.yul\":8396:8398   */\n      0x20\n        /* \"#utility.yul\":8385:8394   */\n      dup4\n        /* \"#utility.yul\":8381:8399   */\n      add\n        /* \"#utility.yul\":8374:8422   */\n      mstore\n        /* \"#utility.yul\":8439:8517   */\n      tag_207\n        /* \"#utility.yul\":8512:8516   */\n      dup2\n        /* \"#utility.yul\":8503:8509   */\n      dup6\n        /* \"#utility.yul\":8439:8517   */\n      tag_169\n      jump\t// in\n    tag_207:\n        /* \"#utility.yul\":8431:8517   */\n      swap1\n      pop\n        /* \"#utility.yul\":8527:8599   */\n      tag_208\n        /* \"#utility.yul\":8595:8597   */\n      0x40\n        /* \"#utility.yul\":8584:8593   */\n      dup4\n        /* \"#utility.yul\":8580:8598   */\n      add\n        /* \"#utility.yul\":8571:8577   */\n      dup5\n        /* \"#utility.yul\":8527:8599   */\n      tag_190\n      jump\t// in\n    tag_208:\n        /* \"#utility.yul\":8073:8606   */\n      swap5\n      swap4\n      pop\n      pop\n      pop\n      pop\n      jump\t// out\n        /* \"#utility.yul\":8612:8741   */\n    tag_104:\n        /* \"#utility.yul\":8646:8652   */\n      0x00\n        /* \"#utility.yul\":8673:8693   */\n      tag_210\n      tag_211\n      jump\t// in\n    tag_210:\n        /* \"#utility.yul\":8663:8693   */\n      swap1\n      pop\n        /* \"#utility.yul\":8702:8735   */\n      tag_212\n        /* \"#utility.yul\":8730:8734   */\n      dup3\n        /* \"#utility.yul\":8722:8728   */\n      dup3\n        /* \"#utility.yul\":8702:8735   */\n      tag_213\n      jump\t// in\n    tag_212:\n        /* \"#utility.yul\":8612:8741   */\n      swap2\n      swap1\n      pop\n      jump\t// out\n        /* \"#utility.yul\":8747:8822   */\n    tag_211:\n        /* \"#utility.yul\":8780:8786   */\n      0x00\n        /* \"#utility.yul\":8813:8815   */\n      0x40\n        /* \"#utility.yul\":8807:8816   */\n      mload\n        /* \"#utility.yul\":8797:8816   */\n      swap1\n      pop\n        /* \"#utility.yul\":8747:8822   */\n      swap1\n      jump\t// out\n        /* \"#utility.yul\":8828:9136   */\n    tag_103:\n        /* \"#utility.yul\":8890:8894   */\n      0x00\n        /* \"#utility.yul\":8980:8998   */\n      0xffffffffffffffff\n        /* \"#utility.yul\":8972:8978   */\n      dup3\n        /* \"#utility.yul\":8969:8999   */\n      gt\n        /* \"#utility.yul\":8966:9022   */\n      iszero\n      tag_216\n      jumpi\n        /* \"#utility.yul\":9002:9020   */\n      tag_217\n      tag_218\n      jump\t// in\n    tag_217:\n        /* \"#utility.yul\":8966:9022   */\n    tag_216:\n        /* \"#utility.yul\":9040:9069   */\n      tag_219\n        /* \"#utility.yul\":9062:9068   */\n      dup3\n        /* \"#utility.yul\":9040:9069   */\n      tag_178\n      jump\t// in\n    tag_219:\n        /* \"#utility.yul\":9032:9069   */\n      swap1\n      pop\n        /* \"#utility.yul\":9124:9128   */\n      0x20\n        /* \"#utility.yul\":9118:9122   */\n      dup2\n        /* \"#utility.yul\":9114:9129   */\n      add\n        /* \"#utility.yul\":9106:9129   */\n      swap1\n      pop\n        /* \"#utility.yul\":8828:9136   */\n      swap2\n      swap1\n      pop\n      jump\t// out\n        /* \"#utility.yul\":9142:9241   */\n    tag_172:\n        /* \"#utility.yul\":9194:9200   */\n      0x00\n        /* \"#utility.yul\":9228:9233   */\n      dup2\n        /* \"#utility.yul\":9222:9234   */\n      mload\n        /* \"#utility.yul\":9212:9234   */\n      swap1\n      pop\n        /* \"#utility.yul\":9142:9241   */\n      swap2\n      swap1\n      pop\n      jump\t// out\n        /* \"#utility.yul\":9247:9416   */\n    tag_174:\n        /* \"#utility.yul\":9331:9342   */\n      0x00\n        /* \"#utility.yul\":9365:9371   */\n      dup3\n        /* \"#utility.yul\":9360:9363   */\n      dup3\n        /* \"#utility.yul\":9353:9372   */\n      mstore\n        /* \"#utility.yul\":9405:9409   */\n      0x20\n        /* \"#utility.yul\":9400:9403   */\n      dup3\n        /* \"#utility.yul\":9396:9410   */\n      add\n        /* \"#utility.yul\":9381:9410   */\n      swap1\n      pop\n        /* \"#utility.yul\":9247:9416   */\n      swap3\n      swap2\n      pop\n      pop\n      jump\t// out\n        /* \"#utility.yul\":9422:9570   */\n    tag_183:\n        /* \"#utility.yul\":9524:9535   */\n      0x00\n        /* \"#utility.yul\":9561:9564   */\n      dup2\n        /* \"#utility.yul\":9546:9564   */\n      swap1\n      pop\n        /* \"#utility.yul\":9422:9570   */\n      swap3\n      swap2\n      pop\n      pop\n      jump\t// out\n        /* \"#utility.yul\":9576:9881   */\n    tag_57:\n        /* \"#utility.yul\":9616:9619   */\n      0x00\n        /* \"#utility.yul\":9635:9655   */\n      tag_224\n        /* \"#utility.yul\":9653:9654   */\n      dup3\n        /* \"#utility.yul\":9635:9655   */\n      tag_193\n      jump\t// in\n    tag_224:\n        /* \"#utility.yul\":9630:9655   */\n      swap2\n      pop\n        /* \"#utility.yul\":9669:9689   */\n      tag_225\n        /* \"#utility.yul\":9687:9688   */\n      dup4\n        /* \"#utility.yul\":9669:9689   */\n      tag_193\n      jump\t// in\n    tag_225:\n        /* \"#utility.yul\":9664:9689   */\n      swap3\n      pop\n        /* \"#utility.yul\":9823:9824   */\n      dup3\n        /* \"#utility.yul\":9755:9821   */\n      0xffffffffffffffffffffffffffffffffffffffffffffffffffffffffffffffff\n        /* \"#utility.yul\":9751:9825   */\n      sub\n        /* \"#utility.yul\":9748:9749   */\n      dup3\n        /* \"#utility.yul\":9745:9826   */\n      gt\n        /* \"#utility.yul\":9742:9849   */\n      iszero\n      tag_226\n      jumpi\n        /* \"#utility.yul\":9829:9847   */\n      tag_227\n      tag_228\n      jump\t// in\n    tag_227:\n        /* \"#utility.yul\":9742:9849   */\n    tag_226:\n        /* \"#utility.yul\":9873:9874   */\n      dup3\n        /* \"#utility.yul\":9870:9871   */\n      dup3\n        /* \"#utility.yul\":9866:9875   */\n      add\n        /* \"#utility.yul\":9859:9875   */\n      swap1\n      pop\n        /* \"#utility.yul\":9576:9881   */\n      swap3\n      swap2\n      pop\n      pop\n      jump\t// out\n        /* \"#utility.yul\":9887:10072   */\n    tag_59:\n        /* \"#utility.yul\":9927:9928   */\n      0x00\n        /* \"#utility.yul\":9944:9964   */\n      tag_230\n        /* \"#utility.yul\":9962:9963   */\n      dup3\n        /* \"#utility.yul\":9944:9964   */\n      tag_193\n      jump\t// in\n    tag_230:\n        /* \"#utility.yul\":9939:9964   */\n      swap2\n      pop\n        /* \"#utility.yul\":9978:9998   */\n      tag_231\n        /* \"#utility.yul\":9996:9997   */\n      dup4\n        /* \"#utility.yul\":9978:9998   */\n      tag_193\n      jump\t// in\n    tag_231:\n        /* \"#utility.yul\":9973:9998   */\n      swap3\n      pop\n        /* \"#utility.yul\":10017:10018   */\n      dup3\n        /* \"#utility.yul\":10007:10042   */\n      tag_232\n      jumpi\n        /* \"#utility.yul\":10022:10040   */\n      tag_233\n      tag_234\n      jump\t// in\n    tag_233:\n        /* \"#utility.yul\":10007:10042   */\n    tag_232:\n        /* \"#utility.yul\":10064:10065   */\n      dup3\n        /* \"#utility.yul\":10061:10062   */\n      dup3\n        /* \"#utility.yul\":10057:10066   */\n      div\n        /* \"#utility.yul\":10052:10066   */\n      swap1\n      pop\n        /* \"#utility.yul\":9887:10072   */\n      swap3\n      swap2\n      pop\n      pop\n      jump\t// out\n        /* \"#utility.yul\":10078:10269   */\n    tag_67:\n        /* \"#utility.yul\":10118:10122   */\n      0x00\n        /* \"#utility.yul\":10138:10158   */\n      tag_236\n        /* \"#utility.yul\":10156:10157   */\n      dup3\n        /* \"#utility.yul\":10138:10158   */\n      tag_193\n      jump\t// in\n    tag_236:\n        /* \"#utility.yul\":10133:10158   */\n      swap2\n      pop\n        /* \"#utility.yul\":10172:10192   */\n      tag_237\n        /* \"#utility.yul\":10190:10191   */\n      dup4\n        /* \"#utility.yul\":10172:10192   */\n      tag_193\n      jump\t// in\n    tag_237:\n        /* \"#utility.yul\":10167:10192   */\n      swap3\n      pop\n        /* \"#utility.yul\":10211:10212   */\n      dup3\n        /* \"#utility.yul\":10208:10209   */\n      dup3\n        /* \"#utility.yul\":10205:10213   */\n      lt\n        /* \"#utility.yul\":10202:10236   */\n      iszero\n      tag_238\n      jumpi\n        /* \"#utility.yul\":10216:10234   */\n      tag_239\n      tag_228\n      jump\t// in\n    tag_239:\n        /* \"#utility.yul\":10202:10236   */\n    tag_238:\n        /* \"#utility.yul\":10261:10262   */\n      dup3\n        /* \"#utility.yul\":10258:10259   */\n      dup3\n        /* \"#utility.yul\":10254:10263   */\n      sub\n        /* \"#utility.yul\":10246:10263   */\n      swap1\n      pop\n        /* \"#utility.yul\":10078:10269   */\n      swap3\n      swap2\n      pop\n      pop\n      jump\t// out\n        /* \"#utility.yul\":10275:10371   */\n    tag_168:\n        /* \"#utility.yul\":10312:10319   */\n      0x00\n        /* \"#utility.yul\":10341:10365   */\n      tag_241\n        /* \"#utility.yul\":10359:10364   */\n      dup3\n        /* \"#utility.yul\":10341:10365   */\n      tag_242\n      jump\t// in\n    tag_241:\n        /* \"#utility.yul\":10330:10365   */\n      swap1\n      pop\n        /* \"#utility.yul\":10275:10371   */\n      swap2\n      swap1\n      pop\n      jump\t// out\n        /* \"#utility.yul\":10377:10467   */\n    tag_243:\n        /* \"#utility.yul\":10411:10418   */\n      0x00\n        /* \"#utility.yul\":10454:10459   */\n      dup2\n        /* \"#utility.yul\":10447:10460   */\n      iszero\n        /* \"#utility.yul\":10440:10461   */\n      iszero\n        /* \"#utility.yul\":10429:10461   */\n      swap1\n      pop\n        /* \"#utility.yul\":10377:10467   */\n      swap2\n      swap1\n      pop\n      jump\t// out\n        /* \"#utility.yul\":10473:10599   */\n    tag_242:\n        /* \"#utility.yul\":10510:10517   */\n      0x00\n        /* \"#utility.yul\":10550:10592   */\n      0xffffffffffffffffffffffffffffffffffffffff\n        /* \"#utility.yul\":10543:10548   */\n      dup3\n        /* \"#utility.yul\":10539:10593   */\n      and\n        /* \"#utility.yul\":10528:10593   */\n      swap1\n      pop\n        /* \"#utility.yul\":10473:10599   */\n      swap2\n      swap1\n      pop\n      jump\t// out\n        /* \"#utility.yul\":10605:10682   */\n    tag_193:\n        /* \"#utility.yul\":10642:10649   */\n      0x00\n        /* \"#utility.yul\":10671:10676   */\n      dup2\n        /* \"#utility.yul\":10660:10676   */\n      swap1\n      pop\n        /* \"#utility.yul\":10605:10682   */\n      swap2\n      swap1\n      pop\n      jump\t// out\n        /* \"#utility.yul\":10688:10842   */\n    tag_109:\n        /* \"#utility.yul\":10772:10778   */\n      dup3\n        /* \"#utility.yul\":10767:10770   */\n      dup2\n        /* \"#utility.yul\":10762:10765   */\n      dup4\n        /* \"#utility.yul\":10749:10779   */\n      calldatacopy\n        /* \"#utility.yul\":10834:10835   */\n      0x00\n        /* \"#utility.yul\":10825:10831   */\n      dup4\n        /* \"#utility.yul\":10820:10823   */\n      dup4\n        /* \"#utility.yul\":10816:10832   */\n      add\n        /* \"#utility.yul\":10809:10836   */\n      mstore\n        /* \"#utility.yul\":10688:10842   */\n      pop\n      pop\n      pop\n      jump\t// out\n        /* \"#utility.yul\":10848:11155   */\n    tag_176:\n        /* \"#utility.yul\":10916:10917   */\n      0x00\n        /* \"#utility.yul\":10926:11039   */\n    tag_249:\n        /* \"#utility.yul\":10940:10946   */\n      dup4\n        /* \"#utility.yul\":10937:10938   */\n      dup2\n        /* \"#utility.yul\":10934:10947   */\n      lt\n        /* \"#utility.yul\":10926:11039   */\n      iszero\n      tag_251\n      jumpi\n        /* \"#utility.yul\":11025:11026   */\n      dup1\n        /* \"#utility.yul\":11020:11023   */\n      dup3\n        /* \"#utility.yul\":11016:11027   */\n      add\n        /* \"#utility.yul\":11010:11028   */\n      mload\n        /* \"#utility.yul\":11006:11007   */\n      dup2\n        /* \"#utility.yul\":11001:11004   */\n      dup5\n        /* \"#utility.yul\":10997:11008   */\n      add\n        /* \"#utility.yul\":10990:11029   */\n      mstore\n        /* \"#utility.yul\":10962:10964   */\n      0x20\n        /* \"#utility.yul\":10959:10960   */\n      dup2\n        /* \"#utility.yul\":10955:10965   */\n      add\n        /* \"#utility.yul\":10950:10965   */\n      swap1\n      pop\n        /* \"#utility.yul\":10926:11039   */\n      jump(tag_249)\n    tag_251:\n        /* \"#utility.yul\":11057:11063   */\n      dup4\n        /* \"#utility.yul\":11054:11055   */\n      dup2\n        /* \"#utility.yul\":11051:11064   */\n      gt\n        /* \"#utility.yul\":11048:11149   */\n      iszero\n      tag_252\n      jumpi\n        /* \"#utility.yul\":11137:11138   */\n      0x00\n        /* \"#utility.yul\":11128:11134   */\n      dup5\n        /* \"#utility.yul\":11123:11126   */\n      dup5\n        /* \"#utility.yul\":11119:11135   */\n      add\n        /* \"#utility.yul\":11112:11139   */\n      mstore\n        /* \"#utility.yul\":11048:11149   */\n    tag_252:\n        /* \"#utility.yul\":10897:11155   */\n      pop\n        /* \"#utility.yul\":10848:11155   */\n      pop\n      pop\n      pop\n      jump\t// out\n        /* \"#utility.yul\":11161:11481   */\n    tag_43:\n        /* \"#utility.yul\":11205:11211   */\n      0x00\n        /* \"#utility.yul\":11242:11243   */\n      0x02\n        /* \"#utility.yul\":11236:11240   */\n      dup3\n        /* \"#utility.yul\":11232:11244   */\n      div\n        /* \"#utility.yul\":11222:11244   */\n      swap1\n      pop\n        /* \"#utility.yul\":11289:11290   */\n      0x01\n        /* \"#utility.yul\":11283:11287   */\n      dup3\n        /* \"#utility.yul\":11279:11291   */\n      and\n        /* \"#utility.yul\":11310:11328   */\n      dup1\n        /* \"#utility.yul\":11300:11381   */\n      tag_254\n      jumpi\n        /* \"#utility.yul\":11366:11370   */\n      0x7f\n        /* \"#utility.yul\":11358:11364   */\n      dup3\n        /* \"#utility.yul\":11354:11371   */\n      and\n        /* \"#utility.yul\":11344:11371   */\n      swap2\n      pop\n        /* \"#utility.yul\":11300:11381   */\n    tag_254:\n        /* \"#utility.yul\":11428:11430   */\n      0x20\n        /* \"#utility.yul\":11420:11426   */\n      dup3\n        /* \"#utility.yul\":11417:11431   */\n      lt\n        /* \"#utility.yul\":11397:11415   */\n      dup2\n        /* \"#utility.yul\":11394:11432   */\n      eq\n        /* \"#utility.yul\":11391:11475   */\n      iszero\n      tag_255\n      jumpi\n        /* \"#utility.yul\":11447:11465   */\n      tag_256\n      tag_257\n      jump\t// in\n    tag_256:\n        /* \"#utility.yul\":11391:11475   */\n    tag_255:\n        /* \"#utility.yul\":11212:11481   */\n      pop\n        /* \"#utility.yul\":11161:11481   */\n      swap2\n      swap1\n      pop\n      jump\t// out\n        /* \"#utility.yul\":11487:11768   */\n    tag_213:\n        /* \"#utility.yul\":11570:11597   */\n      tag_259\n        /* \"#utility.yul\":11592:11596   */\n      dup3\n        /* \"#utility.yul\":11570:11597   */\n      tag_178\n      jump\t// in\n    tag_259:\n        /* \"#utility.yul\":11562:11568   */\n      dup2\n        /* \"#utility.yul\":11558:11598   */\n      add\n        /* \"#utility.yul\":11700:11706   */\n      dup2\n        /* \"#utility.yul\":11688:11698   */\n      dup2\n        /* \"#utility.yul\":11685:11707   */\n      lt\n        /* \"#utility.yul\":11664:11682   */\n      0xffffffffffffffff\n        /* \"#utility.yul\":11652:11662   */\n      dup3\n        /* \"#utility.yul\":11649:11683   */\n      gt\n        /* \"#utility.yul\":11646:11708   */\n      or\n        /* \"#utility.yul\":11643:11731   */\n      iszero\n      tag_260\n      jumpi\n        /* \"#utility.yul\":11711:11729   */\n      tag_261\n      tag_218\n      jump\t// in\n    tag_261:\n        /* \"#utility.yul\":11643:11731   */\n    tag_260:\n        /* \"#utility.yul\":11751:11761   */\n      dup1\n        /* \"#utility.yul\":11747:11749   */\n      0x40\n        /* \"#utility.yul\":11740:11762   */\n      mstore\n        /* \"#utility.yul\":11530:11768   */\n      pop\n        /* \"#utility.yul\":11487:11768   */\n      pop\n      pop\n      jump\t// out\n        /* \"#utility.yul\":11774:12007   */\n    tag_82:\n        /* \"#utility.yul\":11813:11816   */\n      0x00\n        /* \"#utility.yul\":11836:11860   */\n      tag_263\n        /* \"#utility.yul\":11854:11859   */\n      dup3\n        /* \"#utility.yul\":11836:11860   */\n      tag_193\n      jump\t// in\n    tag_263:\n        /* \"#utility.yul\":11827:11860   */\n      swap2\n      pop\n        /* \"#utility.yul\":11882:11948   */\n      0xffffffffffffffffffffffffffffffffffffffffffffffffffffffffffffffff\n        /* \"#utility.yul\":11875:11880   */\n      dup3\n        /* \"#utility.yul\":11872:11949   */\n      eq\n        /* \"#utility.yul\":11869:11972   */\n      iszero\n      tag_264\n      jumpi\n        /* \"#utility.yul\":11952:11970   */\n      tag_265\n      tag_228\n      jump\t// in\n    tag_265:\n        /* \"#utility.yul\":11869:11972   */\n    tag_264:\n        /* \"#utility.yul\":11999:12000   */\n      0x01\n        /* \"#utility.yul\":11992:11997   */\n      dup3\n        /* \"#utility.yul\":11988:12001   */\n      add\n        /* \"#utility.yul\":11981:12001   */\n      swap1\n      pop\n        /* \"#utility.yul\":11774:12007   */\n      swap2\n      swap1\n      pop\n      jump\t// out\n        /* \"#utility.yul\":12013:12189   */\n    tag_55:\n        /* \"#utility.yul\":12045:12046   */\n      0x00\n        /* \"#utility.yul\":12062:12082   */\n      tag_267\n        /* \"#utility.yul\":12080:12081   */\n      dup3\n        /* \"#utility.yul\":12062:12082   */\n      tag_193\n      jump\t// in\n    tag_267:\n        /* \"#utility.yul\":12057:12082   */\n      swap2\n      pop\n        /* \"#utility.yul\":12096:12116   */\n      tag_268\n        /* \"#utility.yul\":12114:12115   */\n      dup4\n        /* \"#utility.yul\":12096:12116   */\n      tag_193\n      jump\t// in\n    tag_268:\n        /* \"#utility.yul\":12091:12116   */\n      swap3\n      pop\n        /* \"#utility.yul\":12135:12136   */\n      dup3\n        /* \"#utility.yul\":12125:12160   */\n      tag_269\n      jumpi\n        /* \"#utility.yul\":12140:12158   */\n      tag_270\n      tag_234\n      jump\t// in\n    tag_270:\n        /* \"#utility.yul\":12125:12160   */\n    tag_269:\n        /* \"#utility.yul\":12181:12182   */\n      dup3\n        /* \"#utility.yul\":12178:12179   */\n      dup3\n        /* \"#utility.yul\":12174:12183   */\n      mod\n        /* \"#utility.yul\":12169:12183   */\n      swap1\n      pop\n        /* \"#utility.yul\":12013:12189   */\n      swap3\n      swap2\n      pop\n      pop\n      jump\t// out\n        /* \"#utility.yul\":12195:12375   */\n    tag_228:\n        /* \"#utility.yul\":12243:12320   */\n      0x4e487b7100000000000000000000000000000000000000000000000000000000\n        /* \"#utility.yul\":12240:12241   */\n      0x00\n        /* \"#utility.yul\":12233:12321   */\n      mstore\n        /* \"#utility.yul\":12340:12344   */\n      0x11\n        /* \"#utility.yul\":12337:12338   */\n      0x04\n        /* \"#utility.yul\":12330:12345   */\n      mstore\n        /* \"#utility.yul\":12364:12368   */\n      0x24\n        /* \"#utility.yul\":12361:12362   */\n      0x00\n        /* \"#utility.yul\":12354:12369   */\n      revert\n        /* \"#utility.yul\":12381:12561   */\n    tag_234:\n        /* \"#utility.yul\":12429:12506   */\n      0x4e487b7100000000000000000000000000000000000000000000000000000000\n        /* \"#utility.yul\":12426:12427   */\n      0x00\n        /* \"#utility.yul\":12419:12507   */\n      mstore\n        /* \"#utility.yul\":12526:12530   */\n      0x12\n        /* \"#utility.yul\":12523:12524   */\n      0x04\n        /* \"#utility.yul\":12516:12531   */\n      mstore\n        /* \"#utility.yul\":12550:12554   */\n      0x24\n        /* \"#utility.yul\":12547:12548   */\n      0x00\n        /* \"#utility.yul\":12540:12555   */\n      revert\n        /* \"#utility.yul\":12567:12747   */\n    tag_257:\n        /* \"#utility.yul\":12615:12692   */\n      0x4e487b7100000000000000000000000000000000000000000000000000000000\n        /* \"#utility.yul\":12612:12613   */\n      0x00\n        /* \"#utility.yul\":12605:12693   */\n      mstore\n        /* \"#utility.yul\":12712:12716   */\n      0x22\n        /* \"#utility.yul\":12709:12710   */\n      0x04\n        /* \"#utility.yul\":12702:12717   */\n      mstore\n        /* \"#utility.yul\":12736:12740   */\n      0x24\n        /* \"#utility.yul\":12733:12734   */\n      0x00\n        /* \"#utility.yul\":12726:12741   */\n      revert\n        /* \"#utility.yul\":12753:12933   */\n    tag_52:\n        /* \"#utility.yul\":12801:12878   */\n      0x4e487b7100000000000000000000000000000000000000000000000000000000\n        /* \"#utility.yul\":12798:12799   */\n      0x00\n        /* \"#utility.yul\":12791:12879   */\n      mstore\n        /* \"#utility.yul\":12898:12902   */\n      0x32\n        /* \"#utility.yul\":12895:12896   */\n      0x04\n        /* \"#utility.yul\":12888:12903   */\n      mstore\n        /* \"#utility.yul\":12922:12926   */\n      0x24\n        /* \"#utility.yul\":12919:12920   */\n      0x00\n        /* \"#utility.yul\":12912:12927   */\n      revert\n        /* \"#utility.yul\":12939:13119   */\n    tag_218:\n        /* \"#utility.yul\":12987:13064   */\n      0x4e487b7100000000000000000000000000000000000000000000000000000000\n        /* \"#utility.yul\":12984:12985   */\n      0x00\n        /* \"#utility.yul\":12977:13065   */\n      mstore\n        /* \"#utility.yul\":13084:13088   */\n      0x41\n        /* \"#utility.yul\":13081:13082   */\n      0x04\n        /* \"#utility.yul\":13074:13089   */\n      mstore\n        /* \"#utility.yul\":13108:13112   */\n      0x24\n        /* \"#utility.yul\":13105:13106   */\n      0x00\n        /* \"#utility.yul\":13098:13113   */\n      revert\n        /* \"#utility.yul\":13125:13242   */\n    tag_118:\n        /* \"#utility.yul\":13234:13235   */\n      0x00\n        /* \"#utility.yul\":13231:13232   */\n      dup1\n        /* \"#utility.yul\":13224:13236   */\n      revert\n        /* \"#utility.yul\":13248:13365   */\n    tag_107:\n        /* \"#utility.yul\":13357:13358   */\n      0x00\n        /* \"#utility.yul\":13354:13355   */\n      dup1\n        /* \"#utility.yul\":13347:13359   */\n      revert\n        /* \"#utility.yul\":13371:13488   */\n    tag_146:\n        /* \"#utility.yul\":13480:13481   */\n      0x00\n        /* \"#utility.yul\":13477:13478   */\n      dup1\n        /* \"#utility.yul\":13470:13482   */\n      revert\n        /* \"#utility.yul\":13494:13611   */\n    tag_130:\n        /* \"#utility.yul\":13603:13604   */\n      0x00\n        /* \"#utility.yul\":13600:13601   */\n      dup1\n        /* \"#utility.yul\":13593:13605   */\n      revert\n        /* \"#utility.yul\":13617:13719   */\n    tag_178:\n        /* \"#utility.yul\":13658:13664   */\n      0x00\n        /* \"#utility.yul\":13709:13711   */\n      0x1f\n        /* \"#utility.yul\":13705:13712   */\n      not\n        /* \"#utility.yul\":13700:13702   */\n      0x1f\n        /* \"#utility.yul\":13693:13698   */\n      dup4\n        /* \"#utility.yul\":13689:13703   */\n      add\n        /* \"#utility.yul\":13685:13713   */\n      and\n        /* \"#utility.yul\":13675:13713   */\n      swap1\n      pop\n        /* \"#utility.yul\":13617:13719   */\n      swap2\n      swap1\n      pop\n      jump\t// out\n        /* \"#utility.yul\":13725:13880   */\n    tag_189:\n        /* \"#utility.yul\":13865:13872   */\n      0x6b69747479000000000000000000000000000000000000000000000000000000\n        /* \"#utility.yul\":13861:13862   */\n      0x00\n        /* \"#utility.yul\":13853:13859   */\n      dup3\n        /* \"#utility.yul\":13849:13863   */\n      add\n        /* \"#utility.yul\":13842:13873   */\n      mstore\n        /* \"#utility.yul\":13725:13880   */\n      pop\n      jump\t// out\n        /* \"#utility.yul\":13886:14002   */\n    tag_113:\n        /* \"#utility.yul\":13956:13977   */\n      tag_283\n        /* \"#utility.yul\":13971:13976   */\n      dup2\n        /* \"#utility.yul\":13956:13977   */\n      tag_243\n      jump\t// in\n    tag_283:\n        /* \"#utility.yul\":13949:13954   */\n      dup2\n        /* \"#utility.yul\":13946:13978   */\n      eq\n        /* \"#utility.yul\":13936:13996   */\n      tag_284\n      jumpi\n        /* \"#utility.yul\":13992:13993   */\n      0x00\n        /* \"#utility.yul\":13989:13990   */\n      dup1\n        /* \"#utility.yul\":13982:13994   */\n      revert\n        /* \"#utility.yul\":13936:13996   */\n    tag_284:\n        /* \"#utility.yul\":13886:14002   */\n      pop\n      jump\t// out\n        /* \"#utility.yul\":14008:14130   */\n    tag_123:\n        /* \"#utility.yul\":14081:14105   */\n      tag_286\n        /* \"#utility.yul\":14099:14104   */\n      dup2\n        /* \"#utility.yul\":14081:14105   */\n      tag_193\n      jump\t// in\n    tag_286:\n        /* \"#utility.yul\":14074:14079   */\n      dup2\n        /* \"#utility.yul\":14071:14106   */\n      eq\n        /* \"#utility.yul\":14061:14124   */\n      tag_287\n      jumpi\n        /* \"#utility.yul\":14120:14121   */\n      0x00\n        /* \"#utility.yul\":14117:14118   */\n      dup1\n        /* \"#utility.yul\":14110:14122   */\n      revert\n        /* \"#utility.yul\":14061:14124   */\n    tag_287:\n        /* \"#utility.yul\":14008:14130   */\n      pop\n      jump\t// out\n\n    auxdata: 0xa26469706673582212200d5434ffee280d7dbc1c1ec885d6372e4c32b37fd34e80146aacac6e1d086ccd64736f6c63430008070033\n}\n",
				"bytecode": {
					"linkReferences": {},
					"object": "60806040526010600055600054600a6200001a919062000144565b6001557306012c8cf97bead5deae237070f9587f8e7a266d600560006101000a81548173ffffffffffffffffffffffffffffffffffffffff021916908373ffffffffffffffffffffffffffffffffffffffff160217905550600560009054906101000a900473ffffffffffffffffffffffffffffffffffffffff16600660006101000a81548173ffffffffffffffffffffffffffffffffffffffff021916908373ffffffffffffffffffffffffffffffffffffffff160217905550348015620000e257600080fd5b50620002c7565b6000808291508390505b60018511156200013b578086048111156200011357620001126200028b565b5b6001851615620001235780820291505b80810290506200013385620002ba565b9450620000f3565b94509492505050565b6000620001518262000281565b91506200015e8362000281565b92506200018d7fffffffffffffffffffffffffffffffffffffffffffffffffffffffffffffffff848462000195565b905092915050565b600082620001a757600190506200027a565b81620001b757600090506200027a565b8160018114620001d05760028114620001db5762000211565b60019150506200027a565b60ff841115620001f057620001ef6200028b565b5b8360020a9150848211156200020a57620002096200028b565b5b506200027a565b5060208310610133831016604e8410600b84101617156200024b5782820a9050838111156200024557620002446200028b565b5b6200027a565b6200025a8484846001620000e9565b925090508184048111156200027457620002736200028b565b5b81810290505b9392505050565b6000819050919050565b7f4e487b7100000000000000000000000000000000000000000000000000000000600052601160045260246000fd5b60008160011c9050919050565b610fcc80620002d76000396000f3fe608060405234801561001057600080fd5b50600436106100575760003560e01c806317a7f4cc1461005c5780632052465e14610078578063528b7b8f146100a95780636b0bfc80146100d95780637bff0a01146100f5575b600080fd5b61007660048036038101906100719190610966565b610111565b005b610092600480360381019061008d9190610939565b61023e565b6040516100a0929190610b07565b60405180910390f35b6100c360048036038101906100be9190610939565b6102fa565b6040516100d09190610aec565b60405180910390f35b6100f360048036038101906100ee91906109a6565b61032d565b005b61010f600480360381019061010a91906108f0565b6104ad565b005b6000600660009054906101000a900473ffffffffffffffffffffffffffffffffffffffff1673ffffffffffffffffffffffffffffffffffffffff1663e98b7f4d836040518263ffffffff1660e01b815260040161016e9190610b37565b6101406040518083038186803b15801561018757600080fd5b505afa15801561019b573d6000803e3d6000fd5b505050506040513d601f19601f820116820180604052508101906101bf9190610811565b9091929394959697985090919293949596975090919293949596509091929394955090919293945090919293509091925090915090508091505061023983826040518060400160405280600581526020017f6b6974747900000000000000000000000000000000000000000000000000000081525061032d565b505050565b6002818154811061024e57600080fd5b906000526020600020906002020160009150905080600001805461027190610d52565b80601f016020809104026020016040519081016040528092919081815260200182805461029d90610d52565b80156102ea5780601f106102bf576101008083540402835291602001916102ea565b820191906000526020600020905b8154815290600101906020018083116102cd57829003601f168201915b5050505050908060010154905082565b60036020528060005260406000206000915054906101000a900473ffffffffffffffffffffffffffffffffffffffff1681565b6003600084815260200190815260200160002060009054906101000a900473ffffffffffffffffffffffffffffffffffffffff1673ffffffffffffffffffffffffffffffffffffffff163373ffffffffffffffffffffffffffffffffffffffff161461039857600080fd5b6000600284815481106103ae576103ad610ebc565b5b90600052602060002090600202019050600154836103cc9190610dfe565b9250600060028483600101546103e29190610c0d565b6103ec9190610c63565b90506040516020016103fd90610ad7565b60405160208183030381529060405280519060200120836040516020016104249190610ac0565b60405160208183030381529060405280519060200120141561046757606360648261044f9190610dfe565b8261045a9190610c94565b6104649190610c0d565b90505b6104a66040518060400160405280600681526020017f4e6f4e616d65000000000000000000000000000000000000000000000000000081525082610514565b5050505050565b6000600460003373ffffffffffffffffffffffffffffffffffffffff1673ffffffffffffffffffffffffffffffffffffffff16815260200190815260200160002054146104f957600080fd5b60006105048261067a565b90506105108282610514565b5050565b6002604051806040016040528084815260200183815250908060018154018082558091505060019003906000526020600020906002020160009091909190915060008201518160000190805190602001906105709291906106bf565b50602082015181600101555050600060016002805490506105919190610c94565b9050336003600083815260200190815260200160002060006101000a81548173ffffffffffffffffffffffffffffffffffffffff021916908373ffffffffffffffffffffffffffffffffffffffff160217905550600460003373ffffffffffffffffffffffffffffffffffffffff1673ffffffffffffffffffffffffffffffffffffffff168152602001908152602001600020600081548092919061063590610db5565b91905055507f88f026aacbbecc90c18411df4b1185fd8d9be2470f1962f192bf84a27d0704b781848460405161066d93929190610b52565b60405180910390a1505050565b6000808260405160200161068e9190610ac0565b6040516020818303038152906040528051906020012060001c9050600154816106b79190610dfe565b915050919050565b8280546106cb90610d52565b90600052602060002090601f0160209004810192826106ed5760008555610734565b82601f1061070657805160ff1916838001178555610734565b82800160010185558215610734579182015b82811115610733578251825591602001919060010190610718565b5b5090506107419190610745565b5090565b5b8082111561075e576000816000905550600101610746565b5090565b600061077561077084610bb5565b610b90565b90508281526020810184848401111561079157610790610f1f565b5b61079c848285610d10565b509392505050565b6000815190506107b381610f68565b92915050565b600082601f8301126107ce576107cd610f1a565b5b81356107de848260208601610762565b91505092915050565b6000813590506107f681610f7f565b92915050565b60008151905061080b81610f7f565b92915050565b6000806000806000806000806000806101408b8d03121561083557610834610f29565b5b60006108438d828e016107a4565b9a505060206108548d828e016107a4565b99505060406108658d828e016107fc565b98505060606108768d828e016107fc565b97505060806108878d828e016107fc565b96505060a06108988d828e016107fc565b95505060c06108a98d828e016107fc565b94505060e06108ba8d828e016107fc565b9350506101006108cc8d828e016107fc565b9250506101206108de8d828e016107fc565b9150509295989b9194979a5092959850565b60006020828403121561090657610905610f29565b5b600082013567ffffffffffffffff81111561092457610923610f24565b5b610930848285016107b9565b91505092915050565b60006020828403121561094f5761094e610f29565b5b600061095d848285016107e7565b91505092915050565b6000806040838503121561097d5761097c610f29565b5b600061098b858286016107e7565b925050602061099c858286016107e7565b9150509250929050565b6000806000606084860312156109bf576109be610f29565b5b60006109cd868287016107e7565b93505060206109de868287016107e7565b925050604084013567ffffffffffffffff8111156109ff576109fe610f24565b5b610a0b868287016107b9565b9150509250925092565b610a1e81610cc8565b82525050565b6000610a2f82610be6565b610a398185610bf1565b9350610a49818560208601610d1f565b610a5281610f2e565b840191505092915050565b6000610a6882610be6565b610a728185610c02565b9350610a82818560208601610d1f565b80840191505092915050565b6000610a9b600583610c02565b9150610aa682610f3f565b600582019050919050565b610aba81610d06565b82525050565b6000610acc8284610a5d565b915081905092915050565b6000610ae282610a8e565b9150819050919050565b6000602082019050610b016000830184610a15565b92915050565b60006040820190508181036000830152610b218185610a24565b9050610b306020830184610ab1565b9392505050565b6000602082019050610b4c6000830184610ab1565b92915050565b6000606082019050610b676000830186610ab1565b8181036020830152610b798185610a24565b9050610b886040830184610ab1565b949350505050565b6000610b9a610bab565b9050610ba68282610d84565b919050565b6000604051905090565b600067ffffffffffffffff821115610bd057610bcf610eeb565b5b610bd982610f2e565b9050602081019050919050565b600081519050919050565b600082825260208201905092915050565b600081905092915050565b6000610c1882610d06565b9150610c2383610d06565b9250827fffffffffffffffffffffffffffffffffffffffffffffffffffffffffffffffff03821115610c5857610c57610e2f565b5b828201905092915050565b6000610c6e82610d06565b9150610c7983610d06565b925082610c8957610c88610e5e565b5b828204905092915050565b6000610c9f82610d06565b9150610caa83610d06565b925082821015610cbd57610cbc610e2f565b5b828203905092915050565b6000610cd382610ce6565b9050919050565b60008115159050919050565b600073ffffffffffffffffffffffffffffffffffffffff82169050919050565b6000819050919050565b82818337600083830152505050565b60005b83811015610d3d578082015181840152602081019050610d22565b83811115610d4c576000848401525b50505050565b60006002820490506001821680610d6a57607f821691505b60208210811415610d7e57610d7d610e8d565b5b50919050565b610d8d82610f2e565b810181811067ffffffffffffffff82111715610dac57610dab610eeb565b5b80604052505050565b6000610dc082610d06565b91507fffffffffffffffffffffffffffffffffffffffffffffffffffffffffffffffff821415610df357610df2610e2f565b5b600182019050919050565b6000610e0982610d06565b9150610e1483610d06565b925082610e2457610e23610e5e565b5b828206905092915050565b7f4e487b7100000000000000000000000000000000000000000000000000000000600052601160045260246000fd5b7f4e487b7100000000000000000000000000000000000000000000000000000000600052601260045260246000fd5b7f4e487b7100000000000000000000000000000000000000000000000000000000600052602260045260246000fd5b7f4e487b7100000000000000000000000000000000000000000000000000000000600052603260045260246000fd5b7f4e487b7100000000000000000000000000000000000000000000000000000000600052604160045260246000fd5b600080fd5b600080fd5b600080fd5b600080fd5b6000601f19601f8301169050919050565b7f6b69747479000000000000000000000000000000000000000000000000000000600082015250565b610f7181610cda565b8114610f7c57600080fd5b50565b610f8881610d06565b8114610f9357600080fd5b5056fea26469706673582212200d5434ffee280d7dbc1c1ec885d6372e4c32b37fd34e80146aacac6e1d086ccd64736f6c63430008070033",
					"opcodes": "PUSH1 0x80 PUSH1 0x40 MSTORE PUSH1 0x10 PUSH1 0x0 SSTORE PUSH1 0x0 SLOAD PUSH1 0xA PUSH3 0x1A SWAP2 SWAP1 PUSH3 0x144 JUMP JUMPDEST PUSH1 0x1 SSTORE PUSH20 0x6012C8CF97BEAD5DEAE237070F9587F8E7A266D PUSH1 0x5 PUSH1 0x0 PUSH2 0x100 EXP DUP2 SLOAD DUP2 PUSH20 0xFFFFFFFFFFFFFFFFFFFFFFFFFFFFFFFFFFFFFFFF MUL NOT AND SWAP1 DUP4 PUSH20 0xFFFFFFFFFFFFFFFFFFFFFFFFFFFFFFFFFFFFFFFF AND MUL OR SWAP1 SSTORE POP PUSH1 0x5 PUSH1 0x0 SWAP1 SLOAD SWAP1 PUSH2 0x100 EXP SWAP1 DIV PUSH20 0xFFFFFFFFFFFFFFFFFFFFFFFFFFFFFFFFFFFFFFFF AND PUSH1 0x6 PUSH1 0x0 PUSH2 0x100 EXP DUP2 SLOAD DUP2 PUSH20 0xFFFFFFFFFFFFFFFFFFFFFFFFFFFFFFFFFFFFFFFF MUL NOT AND SWAP1 DUP4 PUSH20 0xFFFFFFFFFFFFFFFFFFFFFFFFFFFFFFFFFFFFFFFF AND MUL OR SWAP1 SSTORE POP CALLVALUE DUP1 ISZERO PUSH3 0xE2 JUMPI PUSH1 0x0 DUP1 REVERT JUMPDEST POP PUSH3 0x2C7 JUMP JUMPDEST PUSH1 0x0 DUP1 DUP3 SWAP2 POP DUP4 SWAP1 POP JUMPDEST PUSH1 0x1 DUP6 GT ISZERO PUSH3 0x13B JUMPI DUP1 DUP7 DIV DUP2 GT ISZERO PUSH3 0x113 JUMPI PUSH3 0x112 PUSH3 0x28B JUMP JUMPDEST JUMPDEST PUSH1 0x1 DUP6 AND ISZERO PUSH3 0x123 JUMPI DUP1 DUP3 MUL SWAP2 POP JUMPDEST DUP1 DUP2 MUL SWAP1 POP PUSH3 0x133 DUP6 PUSH3 0x2BA JUMP JUMPDEST SWAP5 POP PUSH3 0xF3 JUMP JUMPDEST SWAP5 POP SWAP5 SWAP3 POP POP POP JUMP JUMPDEST PUSH1 0x0 PUSH3 0x151 DUP3 PUSH3 0x281 JUMP JUMPDEST SWAP2 POP PUSH3 0x15E DUP4 PUSH3 0x281 JUMP JUMPDEST SWAP3 POP PUSH3 0x18D PUSH32 0xFFFFFFFFFFFFFFFFFFFFFFFFFFFFFFFFFFFFFFFFFFFFFFFFFFFFFFFFFFFFFFFF DUP5 DUP5 PUSH3 0x195 JUMP JUMPDEST SWAP1 POP SWAP3 SWAP2 POP POP JUMP JUMPDEST PUSH1 0x0 DUP3 PUSH3 0x1A7 JUMPI PUSH1 0x1 SWAP1 POP PUSH3 0x27A JUMP JUMPDEST DUP2 PUSH3 0x1B7 JUMPI PUSH1 0x0 SWAP1 POP PUSH3 0x27A JUMP JUMPDEST DUP2 PUSH1 0x1 DUP2 EQ PUSH3 0x1D0 JUMPI PUSH1 0x2 DUP2 EQ PUSH3 0x1DB JUMPI PUSH3 0x211 JUMP JUMPDEST PUSH1 0x1 SWAP2 POP POP PUSH3 0x27A JUMP JUMPDEST PUSH1 0xFF DUP5 GT ISZERO PUSH3 0x1F0 JUMPI PUSH3 0x1EF PUSH3 0x28B JUMP JUMPDEST JUMPDEST DUP4 PUSH1 0x2 EXP SWAP2 POP DUP5 DUP3 GT ISZERO PUSH3 0x20A JUMPI PUSH3 0x209 PUSH3 0x28B JUMP JUMPDEST JUMPDEST POP PUSH3 0x27A JUMP JUMPDEST POP PUSH1 0x20 DUP4 LT PUSH2 0x133 DUP4 LT AND PUSH1 0x4E DUP5 LT PUSH1 0xB DUP5 LT AND OR ISZERO PUSH3 0x24B JUMPI DUP3 DUP3 EXP SWAP1 POP DUP4 DUP2 GT ISZERO PUSH3 0x245 JUMPI PUSH3 0x244 PUSH3 0x28B JUMP JUMPDEST JUMPDEST PUSH3 0x27A JUMP JUMPDEST PUSH3 0x25A DUP5 DUP5 DUP5 PUSH1 0x1 PUSH3 0xE9 JUMP JUMPDEST SWAP3 POP SWAP1 POP DUP2 DUP5 DIV DUP2 GT ISZERO PUSH3 0x274 JUMPI PUSH3 0x273 PUSH3 0x28B JUMP JUMPDEST JUMPDEST DUP2 DUP2 MUL SWAP1 POP JUMPDEST SWAP4 SWAP3 POP POP POP JUMP JUMPDEST PUSH1 0x0 DUP2 SWAP1 POP SWAP2 SWAP1 POP JUMP JUMPDEST PUSH32 0x4E487B7100000000000000000000000000000000000000000000000000000000 PUSH1 0x0 MSTORE PUSH1 0x11 PUSH1 0x4 MSTORE PUSH1 0x24 PUSH1 0x0 REVERT JUMPDEST PUSH1 0x0 DUP2 PUSH1 0x1 SHR SWAP1 POP SWAP2 SWAP1 POP JUMP JUMPDEST PUSH2 0xFCC DUP1 PUSH3 0x2D7 PUSH1 0x0 CODECOPY PUSH1 0x0 RETURN INVALID PUSH1 0x80 PUSH1 0x40 MSTORE CALLVALUE DUP1 ISZERO PUSH2 0x10 JUMPI PUSH1 0x0 DUP1 REVERT JUMPDEST POP PUSH1 0x4 CALLDATASIZE LT PUSH2 0x57 JUMPI PUSH1 0x0 CALLDATALOAD PUSH1 0xE0 SHR DUP1 PUSH4 0x17A7F4CC EQ PUSH2 0x5C JUMPI DUP1 PUSH4 0x2052465E EQ PUSH2 0x78 JUMPI DUP1 PUSH4 0x528B7B8F EQ PUSH2 0xA9 JUMPI DUP1 PUSH4 0x6B0BFC80 EQ PUSH2 0xD9 JUMPI DUP1 PUSH4 0x7BFF0A01 EQ PUSH2 0xF5 JUMPI JUMPDEST PUSH1 0x0 DUP1 REVERT JUMPDEST PUSH2 0x76 PUSH1 0x4 DUP1 CALLDATASIZE SUB DUP2 ADD SWAP1 PUSH2 0x71 SWAP2 SWAP1 PUSH2 0x966 JUMP JUMPDEST PUSH2 0x111 JUMP JUMPDEST STOP JUMPDEST PUSH2 0x92 PUSH1 0x4 DUP1 CALLDATASIZE SUB DUP2 ADD SWAP1 PUSH2 0x8D SWAP2 SWAP1 PUSH2 0x939 JUMP JUMPDEST PUSH2 0x23E JUMP JUMPDEST PUSH1 0x40 MLOAD PUSH2 0xA0 SWAP3 SWAP2 SWAP1 PUSH2 0xB07 JUMP JUMPDEST PUSH1 0x40 MLOAD DUP1 SWAP2 SUB SWAP1 RETURN JUMPDEST PUSH2 0xC3 PUSH1 0x4 DUP1 CALLDATASIZE SUB DUP2 ADD SWAP1 PUSH2 0xBE SWAP2 SWAP1 PUSH2 0x939 JUMP JUMPDEST PUSH2 0x2FA JUMP JUMPDEST PUSH1 0x40 MLOAD PUSH2 0xD0 SWAP2 SWAP1 PUSH2 0xAEC JUMP JUMPDEST PUSH1 0x40 MLOAD DUP1 SWAP2 SUB SWAP1 RETURN JUMPDEST PUSH2 0xF3 PUSH1 0x4 DUP1 CALLDATASIZE SUB DUP2 ADD SWAP1 PUSH2 0xEE SWAP2 SWAP1 PUSH2 0x9A6 JUMP JUMPDEST PUSH2 0x32D JUMP JUMPDEST STOP JUMPDEST PUSH2 0x10F PUSH1 0x4 DUP1 CALLDATASIZE SUB DUP2 ADD SWAP1 PUSH2 0x10A SWAP2 SWAP1 PUSH2 0x8F0 JUMP JUMPDEST PUSH2 0x4AD JUMP JUMPDEST STOP JUMPDEST PUSH1 0x0 PUSH1 0x6 PUSH1 0x0 SWAP1 SLOAD SWAP1 PUSH2 0x100 EXP SWAP1 DIV PUSH20 0xFFFFFFFFFFFFFFFFFFFFFFFFFFFFFFFFFFFFFFFF AND PUSH20 0xFFFFFFFFFFFFFFFFFFFFFFFFFFFFFFFFFFFFFFFF AND PUSH4 0xE98B7F4D DUP4 PUSH1 0x40 MLOAD DUP3 PUSH4 0xFFFFFFFF AND PUSH1 0xE0 SHL DUP2 MSTORE PUSH1 0x4 ADD PUSH2 0x16E SWAP2 SWAP1 PUSH2 0xB37 JUMP JUMPDEST PUSH2 0x140 PUSH1 0x40 MLOAD DUP1 DUP4 SUB DUP2 DUP7 DUP1 EXTCODESIZE ISZERO DUP1 ISZERO PUSH2 0x187 JUMPI PUSH1 0x0 DUP1 REVERT JUMPDEST POP GAS STATICCALL ISZERO DUP1 ISZERO PUSH2 0x19B JUMPI RETURNDATASIZE PUSH1 0x0 DUP1 RETURNDATACOPY RETURNDATASIZE PUSH1 0x0 REVERT JUMPDEST POP POP POP POP PUSH1 0x40 MLOAD RETURNDATASIZE PUSH1 0x1F NOT PUSH1 0x1F DUP3 ADD AND DUP3 ADD DUP1 PUSH1 0x40 MSTORE POP DUP2 ADD SWAP1 PUSH2 0x1BF SWAP2 SWAP1 PUSH2 0x811 JUMP JUMPDEST SWAP1 SWAP2 SWAP3 SWAP4 SWAP5 SWAP6 SWAP7 SWAP8 SWAP9 POP SWAP1 SWAP2 SWAP3 SWAP4 SWAP5 SWAP6 SWAP7 SWAP8 POP SWAP1 SWAP2 SWAP3 SWAP4 SWAP5 SWAP6 SWAP7 POP SWAP1 SWAP2 SWAP3 SWAP4 SWAP5 SWAP6 POP SWAP1 SWAP2 SWAP3 SWAP4 SWAP5 POP SWAP1 SWAP2 SWAP3 SWAP4 POP SWAP1 SWAP2 SWAP3 POP SWAP1 SWAP2 POP SWAP1 POP DUP1 SWAP2 POP POP PUSH2 0x239 DUP4 DUP3 PUSH1 0x40 MLOAD DUP1 PUSH1 0x40 ADD PUSH1 0x40 MSTORE DUP1 PUSH1 0x5 DUP2 MSTORE PUSH1 0x20 ADD PUSH32 0x6B69747479000000000000000000000000000000000000000000000000000000 DUP2 MSTORE POP PUSH2 0x32D JUMP JUMPDEST POP POP POP JUMP JUMPDEST PUSH1 0x2 DUP2 DUP2 SLOAD DUP2 LT PUSH2 0x24E JUMPI PUSH1 0x0 DUP1 REVERT JUMPDEST SWAP1 PUSH1 0x0 MSTORE PUSH1 0x20 PUSH1 0x0 KECCAK256 SWAP1 PUSH1 0x2 MUL ADD PUSH1 0x0 SWAP2 POP SWAP1 POP DUP1 PUSH1 0x0 ADD DUP1 SLOAD PUSH2 0x271 SWAP1 PUSH2 0xD52 JUMP JUMPDEST DUP1 PUSH1 0x1F ADD PUSH1 0x20 DUP1 SWAP2 DIV MUL PUSH1 0x20 ADD PUSH1 0x40 MLOAD SWAP1 DUP2 ADD PUSH1 0x40 MSTORE DUP1 SWAP3 SWAP2 SWAP1 DUP2 DUP2 MSTORE PUSH1 0x20 ADD DUP3 DUP1 SLOAD PUSH2 0x29D SWAP1 PUSH2 0xD52 JUMP JUMPDEST DUP1 ISZERO PUSH2 0x2EA JUMPI DUP1 PUSH1 0x1F LT PUSH2 0x2BF JUMPI PUSH2 0x100 DUP1 DUP4 SLOAD DIV MUL DUP4 MSTORE SWAP2 PUSH1 0x20 ADD SWAP2 PUSH2 0x2EA JUMP JUMPDEST DUP3 ADD SWAP2 SWAP1 PUSH1 0x0 MSTORE PUSH1 0x20 PUSH1 0x0 KECCAK256 SWAP1 JUMPDEST DUP2 SLOAD DUP2 MSTORE SWAP1 PUSH1 0x1 ADD SWAP1 PUSH1 0x20 ADD DUP1 DUP4 GT PUSH2 0x2CD JUMPI DUP3 SWAP1 SUB PUSH1 0x1F AND DUP3 ADD SWAP2 JUMPDEST POP POP POP POP POP SWAP1 DUP1 PUSH1 0x1 ADD SLOAD SWAP1 POP DUP3 JUMP JUMPDEST PUSH1 0x3 PUSH1 0x20 MSTORE DUP1 PUSH1 0x0 MSTORE PUSH1 0x40 PUSH1 0x0 KECCAK256 PUSH1 0x0 SWAP2 POP SLOAD SWAP1 PUSH2 0x100 EXP SWAP1 DIV PUSH20 0xFFFFFFFFFFFFFFFFFFFFFFFFFFFFFFFFFFFFFFFF AND DUP2 JUMP JUMPDEST PUSH1 0x3 PUSH1 0x0 DUP5 DUP2 MSTORE PUSH1 0x20 ADD SWAP1 DUP2 MSTORE PUSH1 0x20 ADD PUSH1 0x0 KECCAK256 PUSH1 0x0 SWAP1 SLOAD SWAP1 PUSH2 0x100 EXP SWAP1 DIV PUSH20 0xFFFFFFFFFFFFFFFFFFFFFFFFFFFFFFFFFFFFFFFF AND PUSH20 0xFFFFFFFFFFFFFFFFFFFFFFFFFFFFFFFFFFFFFFFF AND CALLER PUSH20 0xFFFFFFFFFFFFFFFFFFFFFFFFFFFFFFFFFFFFFFFF AND EQ PUSH2 0x398 JUMPI PUSH1 0x0 DUP1 REVERT JUMPDEST PUSH1 0x0 PUSH1 0x2 DUP5 DUP2 SLOAD DUP2 LT PUSH2 0x3AE JUMPI PUSH2 0x3AD PUSH2 0xEBC JUMP JUMPDEST JUMPDEST SWAP1 PUSH1 0x0 MSTORE PUSH1 0x20 PUSH1 0x0 KECCAK256 SWAP1 PUSH1 0x2 MUL ADD SWAP1 POP PUSH1 0x1 SLOAD DUP4 PUSH2 0x3CC SWAP2 SWAP1 PUSH2 0xDFE JUMP JUMPDEST SWAP3 POP PUSH1 0x0 PUSH1 0x2 DUP5 DUP4 PUSH1 0x1 ADD SLOAD PUSH2 0x3E2 SWAP2 SWAP1 PUSH2 0xC0D JUMP JUMPDEST PUSH2 0x3EC SWAP2 SWAP1 PUSH2 0xC63 JUMP JUMPDEST SWAP1 POP PUSH1 0x40 MLOAD PUSH1 0x20 ADD PUSH2 0x3FD SWAP1 PUSH2 0xAD7 JUMP JUMPDEST PUSH1 0x40 MLOAD PUSH1 0x20 DUP2 DUP4 SUB SUB DUP2 MSTORE SWAP1 PUSH1 0x40 MSTORE DUP1 MLOAD SWAP1 PUSH1 0x20 ADD KECCAK256 DUP4 PUSH1 0x40 MLOAD PUSH1 0x20 ADD PUSH2 0x424 SWAP2 SWAP1 PUSH2 0xAC0 JUMP JUMPDEST PUSH1 0x40 MLOAD PUSH1 0x20 DUP2 DUP4 SUB SUB DUP2 MSTORE SWAP1 PUSH1 0x40 MSTORE DUP1 MLOAD SWAP1 PUSH1 0x20 ADD KECCAK256 EQ ISZERO PUSH2 0x467 JUMPI PUSH1 0x63 PUSH1 0x64 DUP3 PUSH2 0x44F SWAP2 SWAP1 PUSH2 0xDFE JUMP JUMPDEST DUP3 PUSH2 0x45A SWAP2 SWAP1 PUSH2 0xC94 JUMP JUMPDEST PUSH2 0x464 SWAP2 SWAP1 PUSH2 0xC0D JUMP JUMPDEST SWAP1 POP JUMPDEST PUSH2 0x4A6 PUSH1 0x40 MLOAD DUP1 PUSH1 0x40 ADD PUSH1 0x40 MSTORE DUP1 PUSH1 0x6 DUP2 MSTORE PUSH1 0x20 ADD PUSH32 0x4E6F4E616D650000000000000000000000000000000000000000000000000000 DUP2 MSTORE POP DUP3 PUSH2 0x514 JUMP JUMPDEST POP POP POP POP POP JUMP JUMPDEST PUSH1 0x0 PUSH1 0x4 PUSH1 0x0 CALLER PUSH20 0xFFFFFFFFFFFFFFFFFFFFFFFFFFFFFFFFFFFFFFFF AND PUSH20 0xFFFFFFFFFFFFFFFFFFFFFFFFFFFFFFFFFFFFFFFF AND DUP2 MSTORE PUSH1 0x20 ADD SWAP1 DUP2 MSTORE PUSH1 0x20 ADD PUSH1 0x0 KECCAK256 SLOAD EQ PUSH2 0x4F9 JUMPI PUSH1 0x0 DUP1 REVERT JUMPDEST PUSH1 0x0 PUSH2 0x504 DUP3 PUSH2 0x67A JUMP JUMPDEST SWAP1 POP PUSH2 0x510 DUP3 DUP3 PUSH2 0x514 JUMP JUMPDEST POP POP JUMP JUMPDEST PUSH1 0x2 PUSH1 0x40 MLOAD DUP1 PUSH1 0x40 ADD PUSH1 0x40 MSTORE DUP1 DUP5 DUP2 MSTORE PUSH1 0x20 ADD DUP4 DUP2 MSTORE POP SWAP1 DUP1 PUSH1 0x1 DUP2 SLOAD ADD DUP1 DUP3 SSTORE DUP1 SWAP2 POP POP PUSH1 0x1 SWAP1 SUB SWAP1 PUSH1 0x0 MSTORE PUSH1 0x20 PUSH1 0x0 KECCAK256 SWAP1 PUSH1 0x2 MUL ADD PUSH1 0x0 SWAP1 SWAP2 SWAP1 SWAP2 SWAP1 SWAP2 POP PUSH1 0x0 DUP3 ADD MLOAD DUP2 PUSH1 0x0 ADD SWAP1 DUP1 MLOAD SWAP1 PUSH1 0x20 ADD SWAP1 PUSH2 0x570 SWAP3 SWAP2 SWAP1 PUSH2 0x6BF JUMP JUMPDEST POP PUSH1 0x20 DUP3 ADD MLOAD DUP2 PUSH1 0x1 ADD SSTORE POP POP PUSH1 0x0 PUSH1 0x1 PUSH1 0x2 DUP1 SLOAD SWAP1 POP PUSH2 0x591 SWAP2 SWAP1 PUSH2 0xC94 JUMP JUMPDEST SWAP1 POP CALLER PUSH1 0x3 PUSH1 0x0 DUP4 DUP2 MSTORE PUSH1 0x20 ADD SWAP1 DUP2 MSTORE PUSH1 0x20 ADD PUSH1 0x0 KECCAK256 PUSH1 0x0 PUSH2 0x100 EXP DUP2 SLOAD DUP2 PUSH20 0xFFFFFFFFFFFFFFFFFFFFFFFFFFFFFFFFFFFFFFFF MUL NOT AND SWAP1 DUP4 PUSH20 0xFFFFFFFFFFFFFFFFFFFFFFFFFFFFFFFFFFFFFFFF AND MUL OR SWAP1 SSTORE POP PUSH1 0x4 PUSH1 0x0 CALLER PUSH20 0xFFFFFFFFFFFFFFFFFFFFFFFFFFFFFFFFFFFFFFFF AND PUSH20 0xFFFFFFFFFFFFFFFFFFFFFFFFFFFFFFFFFFFFFFFF AND DUP2 MSTORE PUSH1 0x20 ADD SWAP1 DUP2 MSTORE PUSH1 0x20 ADD PUSH1 0x0 KECCAK256 PUSH1 0x0 DUP2 SLOAD DUP1 SWAP3 SWAP2 SWAP1 PUSH2 0x635 SWAP1 PUSH2 0xDB5 JUMP JUMPDEST SWAP2 SWAP1 POP SSTORE POP PUSH32 0x88F026AACBBECC90C18411DF4B1185FD8D9BE2470F1962F192BF84A27D0704B7 DUP2 DUP5 DUP5 PUSH1 0x40 MLOAD PUSH2 0x66D SWAP4 SWAP3 SWAP2 SWAP1 PUSH2 0xB52 JUMP JUMPDEST PUSH1 0x40 MLOAD DUP1 SWAP2 SUB SWAP1 LOG1 POP POP POP JUMP JUMPDEST PUSH1 0x0 DUP1 DUP3 PUSH1 0x40 MLOAD PUSH1 0x20 ADD PUSH2 0x68E SWAP2 SWAP1 PUSH2 0xAC0 JUMP JUMPDEST PUSH1 0x40 MLOAD PUSH1 0x20 DUP2 DUP4 SUB SUB DUP2 MSTORE SWAP1 PUSH1 0x40 MSTORE DUP1 MLOAD SWAP1 PUSH1 0x20 ADD KECCAK256 PUSH1 0x0 SHR SWAP1 POP PUSH1 0x1 SLOAD DUP2 PUSH2 0x6B7 SWAP2 SWAP1 PUSH2 0xDFE JUMP JUMPDEST SWAP2 POP POP SWAP2 SWAP1 POP JUMP JUMPDEST DUP3 DUP1 SLOAD PUSH2 0x6CB SWAP1 PUSH2 0xD52 JUMP JUMPDEST SWAP1 PUSH1 0x0 MSTORE PUSH1 0x20 PUSH1 0x0 KECCAK256 SWAP1 PUSH1 0x1F ADD PUSH1 0x20 SWAP1 DIV DUP2 ADD SWAP3 DUP3 PUSH2 0x6ED JUMPI PUSH1 0x0 DUP6 SSTORE PUSH2 0x734 JUMP JUMPDEST DUP3 PUSH1 0x1F LT PUSH2 0x706 JUMPI DUP1 MLOAD PUSH1 0xFF NOT AND DUP4 DUP1 ADD OR DUP6 SSTORE PUSH2 0x734 JUMP JUMPDEST DUP3 DUP1 ADD PUSH1 0x1 ADD DUP6 SSTORE DUP3 ISZERO PUSH2 0x734 JUMPI SWAP2 DUP3 ADD JUMPDEST DUP3 DUP2 GT ISZERO PUSH2 0x733 JUMPI DUP3 MLOAD DUP3 SSTORE SWAP2 PUSH1 0x20 ADD SWAP2 SWAP1 PUSH1 0x1 ADD SWAP1 PUSH2 0x718 JUMP JUMPDEST JUMPDEST POP SWAP1 POP PUSH2 0x741 SWAP2 SWAP1 PUSH2 0x745 JUMP JUMPDEST POP SWAP1 JUMP JUMPDEST JUMPDEST DUP1 DUP3 GT ISZERO PUSH2 0x75E JUMPI PUSH1 0x0 DUP2 PUSH1 0x0 SWAP1 SSTORE POP PUSH1 0x1 ADD PUSH2 0x746 JUMP JUMPDEST POP SWAP1 JUMP JUMPDEST PUSH1 0x0 PUSH2 0x775 PUSH2 0x770 DUP5 PUSH2 0xBB5 JUMP JUMPDEST PUSH2 0xB90 JUMP JUMPDEST SWAP1 POP DUP3 DUP2 MSTORE PUSH1 0x20 DUP2 ADD DUP5 DUP5 DUP5 ADD GT ISZERO PUSH2 0x791 JUMPI PUSH2 0x790 PUSH2 0xF1F JUMP JUMPDEST JUMPDEST PUSH2 0x79C DUP5 DUP3 DUP6 PUSH2 0xD10 JUMP JUMPDEST POP SWAP4 SWAP3 POP POP POP JUMP JUMPDEST PUSH1 0x0 DUP2 MLOAD SWAP1 POP PUSH2 0x7B3 DUP2 PUSH2 0xF68 JUMP JUMPDEST SWAP3 SWAP2 POP POP JUMP JUMPDEST PUSH1 0x0 DUP3 PUSH1 0x1F DUP4 ADD SLT PUSH2 0x7CE JUMPI PUSH2 0x7CD PUSH2 0xF1A JUMP JUMPDEST JUMPDEST DUP2 CALLDATALOAD PUSH2 0x7DE DUP5 DUP3 PUSH1 0x20 DUP7 ADD PUSH2 0x762 JUMP JUMPDEST SWAP2 POP POP SWAP3 SWAP2 POP POP JUMP JUMPDEST PUSH1 0x0 DUP2 CALLDATALOAD SWAP1 POP PUSH2 0x7F6 DUP2 PUSH2 0xF7F JUMP JUMPDEST SWAP3 SWAP2 POP POP JUMP JUMPDEST PUSH1 0x0 DUP2 MLOAD SWAP1 POP PUSH2 0x80B DUP2 PUSH2 0xF7F JUMP JUMPDEST SWAP3 SWAP2 POP POP JUMP JUMPDEST PUSH1 0x0 DUP1 PUSH1 0x0 DUP1 PUSH1 0x0 DUP1 PUSH1 0x0 DUP1 PUSH1 0x0 DUP1 PUSH2 0x140 DUP12 DUP14 SUB SLT ISZERO PUSH2 0x835 JUMPI PUSH2 0x834 PUSH2 0xF29 JUMP JUMPDEST JUMPDEST PUSH1 0x0 PUSH2 0x843 DUP14 DUP3 DUP15 ADD PUSH2 0x7A4 JUMP JUMPDEST SWAP11 POP POP PUSH1 0x20 PUSH2 0x854 DUP14 DUP3 DUP15 ADD PUSH2 0x7A4 JUMP JUMPDEST SWAP10 POP POP PUSH1 0x40 PUSH2 0x865 DUP14 DUP3 DUP15 ADD PUSH2 0x7FC JUMP JUMPDEST SWAP9 POP POP PUSH1 0x60 PUSH2 0x876 DUP14 DUP3 DUP15 ADD PUSH2 0x7FC JUMP JUMPDEST SWAP8 POP POP PUSH1 0x80 PUSH2 0x887 DUP14 DUP3 DUP15 ADD PUSH2 0x7FC JUMP JUMPDEST SWAP7 POP POP PUSH1 0xA0 PUSH2 0x898 DUP14 DUP3 DUP15 ADD PUSH2 0x7FC JUMP JUMPDEST SWAP6 POP POP PUSH1 0xC0 PUSH2 0x8A9 DUP14 DUP3 DUP15 ADD PUSH2 0x7FC JUMP JUMPDEST SWAP5 POP POP PUSH1 0xE0 PUSH2 0x8BA DUP14 DUP3 DUP15 ADD PUSH2 0x7FC JUMP JUMPDEST SWAP4 POP POP PUSH2 0x100 PUSH2 0x8CC DUP14 DUP3 DUP15 ADD PUSH2 0x7FC JUMP JUMPDEST SWAP3 POP POP PUSH2 0x120 PUSH2 0x8DE DUP14 DUP3 DUP15 ADD PUSH2 0x7FC JUMP JUMPDEST SWAP2 POP POP SWAP3 SWAP6 SWAP9 SWAP12 SWAP2 SWAP5 SWAP8 SWAP11 POP SWAP3 SWAP6 SWAP9 POP JUMP JUMPDEST PUSH1 0x0 PUSH1 0x20 DUP3 DUP5 SUB SLT ISZERO PUSH2 0x906 JUMPI PUSH2 0x905 PUSH2 0xF29 JUMP JUMPDEST JUMPDEST PUSH1 0x0 DUP3 ADD CALLDATALOAD PUSH8 0xFFFFFFFFFFFFFFFF DUP2 GT ISZERO PUSH2 0x924 JUMPI PUSH2 0x923 PUSH2 0xF24 JUMP JUMPDEST JUMPDEST PUSH2 0x930 DUP5 DUP3 DUP6 ADD PUSH2 0x7B9 JUMP JUMPDEST SWAP2 POP POP SWAP3 SWAP2 POP POP JUMP JUMPDEST PUSH1 0x0 PUSH1 0x20 DUP3 DUP5 SUB SLT ISZERO PUSH2 0x94F JUMPI PUSH2 0x94E PUSH2 0xF29 JUMP JUMPDEST JUMPDEST PUSH1 0x0 PUSH2 0x95D DUP5 DUP3 DUP6 ADD PUSH2 0x7E7 JUMP JUMPDEST SWAP2 POP POP SWAP3 SWAP2 POP POP JUMP JUMPDEST PUSH1 0x0 DUP1 PUSH1 0x40 DUP4 DUP6 SUB SLT ISZERO PUSH2 0x97D JUMPI PUSH2 0x97C PUSH2 0xF29 JUMP JUMPDEST JUMPDEST PUSH1 0x0 PUSH2 0x98B DUP6 DUP3 DUP7 ADD PUSH2 0x7E7 JUMP JUMPDEST SWAP3 POP POP PUSH1 0x20 PUSH2 0x99C DUP6 DUP3 DUP7 ADD PUSH2 0x7E7 JUMP JUMPDEST SWAP2 POP POP SWAP3 POP SWAP3 SWAP1 POP JUMP JUMPDEST PUSH1 0x0 DUP1 PUSH1 0x0 PUSH1 0x60 DUP5 DUP7 SUB SLT ISZERO PUSH2 0x9BF JUMPI PUSH2 0x9BE PUSH2 0xF29 JUMP JUMPDEST JUMPDEST PUSH1 0x0 PUSH2 0x9CD DUP7 DUP3 DUP8 ADD PUSH2 0x7E7 JUMP JUMPDEST SWAP4 POP POP PUSH1 0x20 PUSH2 0x9DE DUP7 DUP3 DUP8 ADD PUSH2 0x7E7 JUMP JUMPDEST SWAP3 POP POP PUSH1 0x40 DUP5 ADD CALLDATALOAD PUSH8 0xFFFFFFFFFFFFFFFF DUP2 GT ISZERO PUSH2 0x9FF JUMPI PUSH2 0x9FE PUSH2 0xF24 JUMP JUMPDEST JUMPDEST PUSH2 0xA0B DUP7 DUP3 DUP8 ADD PUSH2 0x7B9 JUMP JUMPDEST SWAP2 POP POP SWAP3 POP SWAP3 POP SWAP3 JUMP JUMPDEST PUSH2 0xA1E DUP2 PUSH2 0xCC8 JUMP JUMPDEST DUP3 MSTORE POP POP JUMP JUMPDEST PUSH1 0x0 PUSH2 0xA2F DUP3 PUSH2 0xBE6 JUMP JUMPDEST PUSH2 0xA39 DUP2 DUP6 PUSH2 0xBF1 JUMP JUMPDEST SWAP4 POP PUSH2 0xA49 DUP2 DUP6 PUSH1 0x20 DUP7 ADD PUSH2 0xD1F JUMP JUMPDEST PUSH2 0xA52 DUP2 PUSH2 0xF2E JUMP JUMPDEST DUP5 ADD SWAP2 POP POP SWAP3 SWAP2 POP POP JUMP JUMPDEST PUSH1 0x0 PUSH2 0xA68 DUP3 PUSH2 0xBE6 JUMP JUMPDEST PUSH2 0xA72 DUP2 DUP6 PUSH2 0xC02 JUMP JUMPDEST SWAP4 POP PUSH2 0xA82 DUP2 DUP6 PUSH1 0x20 DUP7 ADD PUSH2 0xD1F JUMP JUMPDEST DUP1 DUP5 ADD SWAP2 POP POP SWAP3 SWAP2 POP POP JUMP JUMPDEST PUSH1 0x0 PUSH2 0xA9B PUSH1 0x5 DUP4 PUSH2 0xC02 JUMP JUMPDEST SWAP2 POP PUSH2 0xAA6 DUP3 PUSH2 0xF3F JUMP JUMPDEST PUSH1 0x5 DUP3 ADD SWAP1 POP SWAP2 SWAP1 POP JUMP JUMPDEST PUSH2 0xABA DUP2 PUSH2 0xD06 JUMP JUMPDEST DUP3 MSTORE POP POP JUMP JUMPDEST PUSH1 0x0 PUSH2 0xACC DUP3 DUP5 PUSH2 0xA5D JUMP JUMPDEST SWAP2 POP DUP2 SWAP1 POP SWAP3 SWAP2 POP POP JUMP JUMPDEST PUSH1 0x0 PUSH2 0xAE2 DUP3 PUSH2 0xA8E JUMP JUMPDEST SWAP2 POP DUP2 SWAP1 POP SWAP2 SWAP1 POP JUMP JUMPDEST PUSH1 0x0 PUSH1 0x20 DUP3 ADD SWAP1 POP PUSH2 0xB01 PUSH1 0x0 DUP4 ADD DUP5 PUSH2 0xA15 JUMP JUMPDEST SWAP3 SWAP2 POP POP JUMP JUMPDEST PUSH1 0x0 PUSH1 0x40 DUP3 ADD SWAP1 POP DUP2 DUP2 SUB PUSH1 0x0 DUP4 ADD MSTORE PUSH2 0xB21 DUP2 DUP6 PUSH2 0xA24 JUMP JUMPDEST SWAP1 POP PUSH2 0xB30 PUSH1 0x20 DUP4 ADD DUP5 PUSH2 0xAB1 JUMP JUMPDEST SWAP4 SWAP3 POP POP POP JUMP JUMPDEST PUSH1 0x0 PUSH1 0x20 DUP3 ADD SWAP1 POP PUSH2 0xB4C PUSH1 0x0 DUP4 ADD DUP5 PUSH2 0xAB1 JUMP JUMPDEST SWAP3 SWAP2 POP POP JUMP JUMPDEST PUSH1 0x0 PUSH1 0x60 DUP3 ADD SWAP1 POP PUSH2 0xB67 PUSH1 0x0 DUP4 ADD DUP7 PUSH2 0xAB1 JUMP JUMPDEST DUP2 DUP2 SUB PUSH1 0x20 DUP4 ADD MSTORE PUSH2 0xB79 DUP2 DUP6 PUSH2 0xA24 JUMP JUMPDEST SWAP1 POP PUSH2 0xB88 PUSH1 0x40 DUP4 ADD DUP5 PUSH2 0xAB1 JUMP JUMPDEST SWAP5 SWAP4 POP POP POP POP JUMP JUMPDEST PUSH1 0x0 PUSH2 0xB9A PUSH2 0xBAB JUMP JUMPDEST SWAP1 POP PUSH2 0xBA6 DUP3 DUP3 PUSH2 0xD84 JUMP JUMPDEST SWAP2 SWAP1 POP JUMP JUMPDEST PUSH1 0x0 PUSH1 0x40 MLOAD SWAP1 POP SWAP1 JUMP JUMPDEST PUSH1 0x0 PUSH8 0xFFFFFFFFFFFFFFFF DUP3 GT ISZERO PUSH2 0xBD0 JUMPI PUSH2 0xBCF PUSH2 0xEEB JUMP JUMPDEST JUMPDEST PUSH2 0xBD9 DUP3 PUSH2 0xF2E JUMP JUMPDEST SWAP1 POP PUSH1 0x20 DUP2 ADD SWAP1 POP SWAP2 SWAP1 POP JUMP JUMPDEST PUSH1 0x0 DUP2 MLOAD SWAP1 POP SWAP2 SWAP1 POP JUMP JUMPDEST PUSH1 0x0 DUP3 DUP3 MSTORE PUSH1 0x20 DUP3 ADD SWAP1 POP SWAP3 SWAP2 POP POP JUMP JUMPDEST PUSH1 0x0 DUP2 SWAP1 POP SWAP3 SWAP2 POP POP JUMP JUMPDEST PUSH1 0x0 PUSH2 0xC18 DUP3 PUSH2 0xD06 JUMP JUMPDEST SWAP2 POP PUSH2 0xC23 DUP4 PUSH2 0xD06 JUMP JUMPDEST SWAP3 POP DUP3 PUSH32 0xFFFFFFFFFFFFFFFFFFFFFFFFFFFFFFFFFFFFFFFFFFFFFFFFFFFFFFFFFFFFFFFF SUB DUP3 GT ISZERO PUSH2 0xC58 JUMPI PUSH2 0xC57 PUSH2 0xE2F JUMP JUMPDEST JUMPDEST DUP3 DUP3 ADD SWAP1 POP SWAP3 SWAP2 POP POP JUMP JUMPDEST PUSH1 0x0 PUSH2 0xC6E DUP3 PUSH2 0xD06 JUMP JUMPDEST SWAP2 POP PUSH2 0xC79 DUP4 PUSH2 0xD06 JUMP JUMPDEST SWAP3 POP DUP3 PUSH2 0xC89 JUMPI PUSH2 0xC88 PUSH2 0xE5E JUMP JUMPDEST JUMPDEST DUP3 DUP3 DIV SWAP1 POP SWAP3 SWAP2 POP POP JUMP JUMPDEST PUSH1 0x0 PUSH2 0xC9F DUP3 PUSH2 0xD06 JUMP JUMPDEST SWAP2 POP PUSH2 0xCAA DUP4 PUSH2 0xD06 JUMP JUMPDEST SWAP3 POP DUP3 DUP3 LT ISZERO PUSH2 0xCBD JUMPI PUSH2 0xCBC PUSH2 0xE2F JUMP JUMPDEST JUMPDEST DUP3 DUP3 SUB SWAP1 POP SWAP3 SWAP2 POP POP JUMP JUMPDEST PUSH1 0x0 PUSH2 0xCD3 DUP3 PUSH2 0xCE6 JUMP JUMPDEST SWAP1 POP SWAP2 SWAP1 POP JUMP JUMPDEST PUSH1 0x0 DUP2 ISZERO ISZERO SWAP1 POP SWAP2 SWAP1 POP JUMP JUMPDEST PUSH1 0x0 PUSH20 0xFFFFFFFFFFFFFFFFFFFFFFFFFFFFFFFFFFFFFFFF DUP3 AND SWAP1 POP SWAP2 SWAP1 POP JUMP JUMPDEST PUSH1 0x0 DUP2 SWAP1 POP SWAP2 SWAP1 POP JUMP JUMPDEST DUP3 DUP2 DUP4 CALLDATACOPY PUSH1 0x0 DUP4 DUP4 ADD MSTORE POP POP POP JUMP JUMPDEST PUSH1 0x0 JUMPDEST DUP4 DUP2 LT ISZERO PUSH2 0xD3D JUMPI DUP1 DUP3 ADD MLOAD DUP2 DUP5 ADD MSTORE PUSH1 0x20 DUP2 ADD SWAP1 POP PUSH2 0xD22 JUMP JUMPDEST DUP4 DUP2 GT ISZERO PUSH2 0xD4C JUMPI PUSH1 0x0 DUP5 DUP5 ADD MSTORE JUMPDEST POP POP POP POP JUMP JUMPDEST PUSH1 0x0 PUSH1 0x2 DUP3 DIV SWAP1 POP PUSH1 0x1 DUP3 AND DUP1 PUSH2 0xD6A JUMPI PUSH1 0x7F DUP3 AND SWAP2 POP JUMPDEST PUSH1 0x20 DUP3 LT DUP2 EQ ISZERO PUSH2 0xD7E JUMPI PUSH2 0xD7D PUSH2 0xE8D JUMP JUMPDEST JUMPDEST POP SWAP2 SWAP1 POP JUMP JUMPDEST PUSH2 0xD8D DUP3 PUSH2 0xF2E JUMP JUMPDEST DUP2 ADD DUP2 DUP2 LT PUSH8 0xFFFFFFFFFFFFFFFF DUP3 GT OR ISZERO PUSH2 0xDAC JUMPI PUSH2 0xDAB PUSH2 0xEEB JUMP JUMPDEST JUMPDEST DUP1 PUSH1 0x40 MSTORE POP POP POP JUMP JUMPDEST PUSH1 0x0 PUSH2 0xDC0 DUP3 PUSH2 0xD06 JUMP JUMPDEST SWAP2 POP PUSH32 0xFFFFFFFFFFFFFFFFFFFFFFFFFFFFFFFFFFFFFFFFFFFFFFFFFFFFFFFFFFFFFFFF DUP3 EQ ISZERO PUSH2 0xDF3 JUMPI PUSH2 0xDF2 PUSH2 0xE2F JUMP JUMPDEST JUMPDEST PUSH1 0x1 DUP3 ADD SWAP1 POP SWAP2 SWAP1 POP JUMP JUMPDEST PUSH1 0x0 PUSH2 0xE09 DUP3 PUSH2 0xD06 JUMP JUMPDEST SWAP2 POP PUSH2 0xE14 DUP4 PUSH2 0xD06 JUMP JUMPDEST SWAP3 POP DUP3 PUSH2 0xE24 JUMPI PUSH2 0xE23 PUSH2 0xE5E JUMP JUMPDEST JUMPDEST DUP3 DUP3 MOD SWAP1 POP SWAP3 SWAP2 POP POP JUMP JUMPDEST PUSH32 0x4E487B7100000000000000000000000000000000000000000000000000000000 PUSH1 0x0 MSTORE PUSH1 0x11 PUSH1 0x4 MSTORE PUSH1 0x24 PUSH1 0x0 REVERT JUMPDEST PUSH32 0x4E487B7100000000000000000000000000000000000000000000000000000000 PUSH1 0x0 MSTORE PUSH1 0x12 PUSH1 0x4 MSTORE PUSH1 0x24 PUSH1 0x0 REVERT JUMPDEST PUSH32 0x4E487B7100000000000000000000000000000000000000000000000000000000 PUSH1 0x0 MSTORE PUSH1 0x22 PUSH1 0x4 MSTORE PUSH1 0x24 PUSH1 0x0 REVERT JUMPDEST PUSH32 0x4E487B7100000000000000000000000000000000000000000000000000000000 PUSH1 0x0 MSTORE PUSH1 0x32 PUSH1 0x4 MSTORE PUSH1 0x24 PUSH1 0x0 REVERT JUMPDEST PUSH32 0x4E487B7100000000000000000000000000000000000000000000000000000000 PUSH1 0x0 MSTORE PUSH1 0x41 PUSH1 0x4 MSTORE PUSH1 0x24 PUSH1 0x0 REVERT JUMPDEST PUSH1 0x0 DUP1 REVERT JUMPDEST PUSH1 0x0 DUP1 REVERT JUMPDEST PUSH1 0x0 DUP1 REVERT JUMPDEST PUSH1 0x0 DUP1 REVERT JUMPDEST PUSH1 0x0 PUSH1 0x1F NOT PUSH1 0x1F DUP4 ADD AND SWAP1 POP SWAP2 SWAP1 POP JUMP JUMPDEST PUSH32 0x6B69747479000000000000000000000000000000000000000000000000000000 PUSH1 0x0 DUP3 ADD MSTORE POP JUMP JUMPDEST PUSH2 0xF71 DUP2 PUSH2 0xCDA JUMP JUMPDEST DUP2 EQ PUSH2 0xF7C JUMPI PUSH1 0x0 DUP1 REVERT JUMPDEST POP JUMP JUMPDEST PUSH2 0xF88 DUP2 PUSH2 0xD06 JUMP JUMPDEST DUP2 EQ PUSH2 0xF93 JUMPI PUSH1 0x0 DUP1 REVERT JUMPDEST POP JUMP INVALID LOG2 PUSH5 0x6970667358 0x22 SLT KECCAK256 0xD SLOAD CALLVALUE SELFDESTRUCT 0xEE 0x28 0xD PUSH30 0xBC1C1EC885D6372E4C32B37FD34E80146AACAC6E1D086CCD64736F6C6343 STOP ADDMOD SMOD STOP CALLER "
				},
				"gasEstimates": {
					"creation": {
						"codeDepositCost": "808800",
						"executionCost": "infinite",
						"totalCost": "infinite"
					},
					"external": {
						"createRandomZombie(string)": "infinite",
						"feedAndMultiply(uint256,uint256,string)": "infinite",
						"feedOnKitty(uint256,uint256)": "infinite",
						"zombieToOwner(uint256)": "2861",
						"zombies(uint256)": "infinite"
					}
				},
				"methodIdentifiers": {
					"createRandomZombie(string)": "7bff0a01",
					"feedAndMultiply(uint256,uint256,string)": "6b0bfc80",
					"feedOnKitty(uint256,uint256)": "17a7f4cc",
					"zombieToOwner(uint256)": "528b7b8f",
					"zombies(uint256)": "2052465e"
				}
			},
			"storageLayout": {
				"storage": [
					{
						"astId": 12,
						"contract": "zombiefeeding.sol:ZombieFeeding",
						"label": "dnaDigits",
						"offset": 0,
						"slot": "0",
						"type": "t_uint256"
					},
					{
						"astId": 17,
						"contract": "zombiefeeding.sol:ZombieFeeding",
						"label": "dnaModulus",
						"offset": 0,
						"slot": "1",
						"type": "t_uint256"
					},
					{
						"astId": 26,
						"contract": "zombiefeeding.sol:ZombieFeeding",
						"label": "zombies",
						"offset": 0,
						"slot": "2",
						"type": "t_array(t_struct(Zombie)22_storage)dyn_storage"
					},
					{
						"astId": 30,
						"contract": "zombiefeeding.sol:ZombieFeeding",
						"label": "zombieToOwner",
						"offset": 0,
						"slot": "3",
						"type": "t_mapping(t_uint256,t_address)"
					},
					{
						"astId": 34,
						"contract": "zombiefeeding.sol:ZombieFeeding",
						"label": "ownerZombieCount",
						"offset": 0,
						"slot": "4",
						"type": "t_mapping(t_address,t_uint256)"
					},
					{
						"astId": 162,
						"contract": "zombiefeeding.sol:ZombieFeeding",
						"label": "ckAddress",
						"offset": 0,
						"slot": "5",
						"type": "t_address"
					},
					{
						"astId": 168,
						"contract": "zombiefeeding.sol:ZombieFeeding",
						"label": "kittyContract",
						"offset": 0,
						"slot": "6",
						"type": "t_contract(KittyInterface)157"
					}
				],
				"types": {
					"t_address": {
						"encoding": "inplace",
						"label": "address",
						"numberOfBytes": "20"
					},
					"t_array(t_struct(Zombie)22_storage)dyn_storage": {
						"base": "t_struct(Zombie)22_storage",
						"encoding": "dynamic_array",
						"label": "struct ZombieArmy.Zombie[]",
						"numberOfBytes": "32"
					},
					"t_contract(KittyInterface)157": {
						"encoding": "inplace",
						"label": "contract KittyInterface",
						"numberOfBytes": "20"
					},
					"t_mapping(t_address,t_uint256)": {
						"encoding": "mapping",
						"key": "t_address",
						"label": "mapping(address => uint256)",
						"numberOfBytes": "32",
						"value": "t_uint256"
					},
					"t_mapping(t_uint256,t_address)": {
						"encoding": "mapping",
						"key": "t_uint256",
						"label": "mapping(uint256 => address)",
						"numberOfBytes": "32",
						"value": "t_address"
					},
					"t_string_storage": {
						"encoding": "bytes",
						"label": "string",
						"numberOfBytes": "32"
					},
					"t_struct(Zombie)22_storage": {
						"encoding": "inplace",
						"label": "struct ZombieArmy.Zombie",
						"members": [
							{
								"astId": 19,
								"contract": "zombiefeeding.sol:ZombieFeeding",
								"label": "name",
								"offset": 0,
								"slot": "0",
								"type": "t_string_storage"
							},
							{
								"astId": 21,
								"contract": "zombiefeeding.sol:ZombieFeeding",
								"label": "dna",
								"offset": 0,
								"slot": "1",
								"type": "t_uint256"
							}
						],
						"numberOfBytes": "64"
					},
					"t_uint256": {
						"encoding": "inplace",
						"label": "uint256",
						"numberOfBytes": "32"
					}
				}
			},
			"userdoc": {
				"kind": "user",
				"methods": {},
				"version": 1
			}
		}
	}
}