{
	"zombiearmy.sol": {
		"ZombieArmy": {
			"abi": [
				{
					"anonymous": false,
					"inputs": [
						{
							"indexed": false,
							"internalType": "uint256",
							"name": "zombieId",
							"type": "uint256"
						},
						{
							"indexed": false,
							"internalType": "string",
							"name": "name",
							"type": "string"
						},
						{
							"indexed": false,
							"internalType": "uint256",
							"name": "dna",
							"type": "uint256"
						}
					],
					"name": "NewZombie",
					"type": "event"
				},
				{
					"inputs": [
						{
							"internalType": "string",
							"name": "_name",
							"type": "string"
						}
					],
					"name": "createRandomZombie",
					"outputs": [],
					"stateMutability": "nonpayable",
					"type": "function"
				},
				{
					"inputs": [
						{
							"internalType": "uint256",
							"name": "",
							"type": "uint256"
						}
					],
					"name": "zombieToOwner",
					"outputs": [
						{
							"internalType": "address",
							"name": "",
							"type": "address"
						}
					],
					"stateMutability": "view",
					"type": "function"
				},
				{
					"inputs": [
						{
							"internalType": "uint256",
							"name": "",
							"type": "uint256"
						}
					],
					"name": "zombies",
					"outputs": [
						{
							"internalType": "string",
							"name": "name",
							"type": "string"
						},
						{
							"internalType": "uint256",
							"name": "dna",
							"type": "uint256"
						}
					],
					"stateMutability": "view",
					"type": "function"
				}
			],
			"devdoc": {
				"kind": "dev",
				"methods": {},
				"version": 1
			},
			"evm": {
				"assembly": "    /* \"zombiearmy.sol\":74:1127  contract ZombieArmy {\r... */\n  mstore(0x40, 0x80)\n    /* \"zombiearmy.sol\":182:184  16 */\n  0x10\n    /* \"zombiearmy.sol\":165:184  uint dnaDigits = 16 */\n  0x00\n  sstore\n    /* \"zombiearmy.sol\":215:224  dnaDigits */\n  sload(0x00)\n    /* \"zombiearmy.sol\":209:211  10 */\n  0x0a\n    /* \"zombiearmy.sol\":209:224  10 ** dnaDigits */\n  tag_1\n  swap2\n  swap1\n  tag_2\n  jump\t// in\ntag_1:\n    /* \"zombiearmy.sol\":191:224  uint dnaModulus = 10 ** dnaDigits */\n  0x01\n  sstore\n    /* \"zombiearmy.sol\":74:1127  contract ZombieArmy {\r... */\n  callvalue\n  dup1\n  iszero\n  tag_3\n  jumpi\n  0x00\n  dup1\n  revert\ntag_3:\n  pop\n  jump(tag_4)\n    /* \"#utility.yul\":7:855   */\ntag_6:\n    /* \"#utility.yul\":68:73   */\n  0x00\n    /* \"#utility.yul\":75:79   */\n  dup1\n    /* \"#utility.yul\":99:105   */\n  dup3\n    /* \"#utility.yul\":90:105   */\n  swap2\n  pop\n    /* \"#utility.yul\":123:128   */\n  dup4\n    /* \"#utility.yul\":114:128   */\n  swap1\n  pop\n    /* \"#utility.yul\":137:849   */\ntag_8:\n    /* \"#utility.yul\":158:159   */\n  0x01\n    /* \"#utility.yul\":148:156   */\n  dup6\n    /* \"#utility.yul\":145:160   */\n  gt\n    /* \"#utility.yul\":137:849   */\n  iszero\n  tag_10\n  jumpi\n    /* \"#utility.yul\":253:257   */\n  dup1\n    /* \"#utility.yul\":248:251   */\n  dup7\n    /* \"#utility.yul\":244:258   */\n  div\n    /* \"#utility.yul\":238:242   */\n  dup2\n    /* \"#utility.yul\":235:259   */\n  gt\n    /* \"#utility.yul\":232:282   */\n  iszero\n  tag_11\n  jumpi\n    /* \"#utility.yul\":262:280   */\n  tag_12\n  tag_13\n  jump\t// in\ntag_12:\n    /* \"#utility.yul\":232:282   */\ntag_11:\n    /* \"#utility.yul\":312:313   */\n  0x01\n    /* \"#utility.yul\":302:310   */\n  dup6\n    /* \"#utility.yul\":298:314   */\n  and\n    /* \"#utility.yul\":295:746   */\n  iszero\n  tag_14\n  jumpi\n    /* \"#utility.yul\":727:731   */\n  dup1\n    /* \"#utility.yul\":720:725   */\n  dup3\n    /* \"#utility.yul\":716:732   */\n  mul\n    /* \"#utility.yul\":707:732   */\n  swap2\n  pop\n    /* \"#utility.yul\":295:746   */\ntag_14:\n    /* \"#utility.yul\":777:781   */\n  dup1\n    /* \"#utility.yul\":771:775   */\n  dup2\n    /* \"#utility.yul\":767:782   */\n  mul\n    /* \"#utility.yul\":759:782   */\n  swap1\n  pop\n    /* \"#utility.yul\":807:839   */\n  tag_15\n    /* \"#utility.yul\":830:838   */\n  dup6\n    /* \"#utility.yul\":807:839   */\n  tag_16\n  jump\t// in\ntag_15:\n    /* \"#utility.yul\":795:839   */\n  swap5\n  pop\n    /* \"#utility.yul\":137:849   */\n  jump(tag_8)\ntag_10:\n    /* \"#utility.yul\":7:855   */\n  swap5\n  pop\n  swap5\n  swap3\n  pop\n  pop\n  pop\n  jump\t// out\n    /* \"#utility.yul\":861:1146   */\ntag_2:\n    /* \"#utility.yul\":921:926   */\n  0x00\n    /* \"#utility.yul\":945:968   */\n  tag_18\n    /* \"#utility.yul\":963:967   */\n  dup3\n    /* \"#utility.yul\":945:968   */\n  tag_19\n  jump\t// in\ntag_18:\n    /* \"#utility.yul\":937:968   */\n  swap2\n  pop\n    /* \"#utility.yul\":989:1016   */\n  tag_20\n    /* \"#utility.yul\":1007:1015   */\n  dup4\n    /* \"#utility.yul\":989:1016   */\n  tag_19\n  jump\t// in\ntag_20:\n    /* \"#utility.yul\":977:1016   */\n  swap3\n  pop\n    /* \"#utility.yul\":1035:1139   */\n  tag_21\n    /* \"#utility.yul\":1072:1138   */\n  0xffffffffffffffffffffffffffffffffffffffffffffffffffffffffffffffff\n    /* \"#utility.yul\":1062:1070   */\n  dup5\n    /* \"#utility.yul\":1056:1060   */\n  dup5\n    /* \"#utility.yul\":1035:1139   */\n  tag_22\n  jump\t// in\ntag_21:\n    /* \"#utility.yul\":1026:1139   */\n  swap1\n  pop\n    /* \"#utility.yul\":861:1146   */\n  swap3\n  swap2\n  pop\n  pop\n  jump\t// out\n    /* \"#utility.yul\":1152:2225   */\ntag_22:\n    /* \"#utility.yul\":1206:1211   */\n  0x00\n    /* \"#utility.yul\":1397:1405   */\n  dup3\n    /* \"#utility.yul\":1387:1427   */\n  tag_24\n  jumpi\n    /* \"#utility.yul\":1418:1419   */\n  0x01\n    /* \"#utility.yul\":1409:1419   */\n  swap1\n  pop\n    /* \"#utility.yul\":1420:1425   */\n  jump(tag_23)\n    /* \"#utility.yul\":1387:1427   */\ntag_24:\n    /* \"#utility.yul\":1446:1450   */\n  dup2\n    /* \"#utility.yul\":1436:1472   */\n  tag_25\n  jumpi\n    /* \"#utility.yul\":1463:1464   */\n  0x00\n    /* \"#utility.yul\":1454:1464   */\n  swap1\n  pop\n    /* \"#utility.yul\":1465:1470   */\n  jump(tag_23)\n    /* \"#utility.yul\":1436:1472   */\ntag_25:\n    /* \"#utility.yul\":1532:1536   */\n  dup2\n    /* \"#utility.yul\":1580:1581   */\n  0x01\n    /* \"#utility.yul\":1575:1602   */\n  dup2\n  eq\n  tag_27\n  jumpi\n    /* \"#utility.yul\":1616:1617   */\n  0x02\n    /* \"#utility.yul\":1611:1802   */\n  dup2\n  eq\n  tag_28\n  jumpi\n    /* \"#utility.yul\":1525:1802   */\n  jump(tag_26)\n    /* \"#utility.yul\":1575:1602   */\ntag_27:\n    /* \"#utility.yul\":1593:1594   */\n  0x01\n    /* \"#utility.yul\":1584:1594   */\n  swap2\n  pop\n    /* \"#utility.yul\":1595:1600   */\n  pop\n  jump(tag_23)\n    /* \"#utility.yul\":1611:1802   */\ntag_28:\n    /* \"#utility.yul\":1656:1659   */\n  0xff\n    /* \"#utility.yul\":1646:1654   */\n  dup5\n    /* \"#utility.yul\":1643:1660   */\n  gt\n    /* \"#utility.yul\":1640:1683   */\n  iszero\n  tag_29\n  jumpi\n    /* \"#utility.yul\":1663:1681   */\n  tag_30\n  tag_13\n  jump\t// in\ntag_30:\n    /* \"#utility.yul\":1640:1683   */\ntag_29:\n    /* \"#utility.yul\":1712:1720   */\n  dup4\n    /* \"#utility.yul\":1709:1710   */\n  0x02\n    /* \"#utility.yul\":1705:1721   */\n  exp\n    /* \"#utility.yul\":1696:1721   */\n  swap2\n  pop\n    /* \"#utility.yul\":1747:1750   */\n  dup5\n    /* \"#utility.yul\":1740:1745   */\n  dup3\n    /* \"#utility.yul\":1737:1751   */\n  gt\n    /* \"#utility.yul\":1734:1774   */\n  iszero\n  tag_31\n  jumpi\n    /* \"#utility.yul\":1754:1772   */\n  tag_32\n  tag_13\n  jump\t// in\ntag_32:\n    /* \"#utility.yul\":1734:1774   */\ntag_31:\n    /* \"#utility.yul\":1787:1792   */\n  pop\n  jump(tag_23)\n    /* \"#utility.yul\":1525:1802   */\ntag_26:\n  pop\n    /* \"#utility.yul\":1911:1913   */\n  0x20\n    /* \"#utility.yul\":1901:1909   */\n  dup4\n    /* \"#utility.yul\":1898:1914   */\n  lt\n    /* \"#utility.yul\":1892:1895   */\n  0x0133\n    /* \"#utility.yul\":1886:1890   */\n  dup4\n    /* \"#utility.yul\":1883:1896   */\n  lt\n    /* \"#utility.yul\":1879:1915   */\n  and\n    /* \"#utility.yul\":1861:1863   */\n  0x4e\n    /* \"#utility.yul\":1851:1859   */\n  dup5\n    /* \"#utility.yul\":1848:1864   */\n  lt\n    /* \"#utility.yul\":1843:1845   */\n  0x0b\n    /* \"#utility.yul\":1837:1841   */\n  dup5\n    /* \"#utility.yul\":1834:1846   */\n  lt\n    /* \"#utility.yul\":1830:1865   */\n  and\n    /* \"#utility.yul\":1814:1925   */\n  or\n    /* \"#utility.yul\":1811:2057   */\n  iszero\n  tag_33\n  jumpi\n    /* \"#utility.yul\":1967:1975   */\n  dup3\n    /* \"#utility.yul\":1961:1965   */\n  dup3\n    /* \"#utility.yul\":1957:1976   */\n  exp\n    /* \"#utility.yul\":1948:1976   */\n  swap1\n  pop\n    /* \"#utility.yul\":2002:2005   */\n  dup4\n    /* \"#utility.yul\":1995:2000   */\n  dup2\n    /* \"#utility.yul\":1992:2006   */\n  gt\n    /* \"#utility.yul\":1989:2029   */\n  iszero\n  tag_34\n  jumpi\n    /* \"#utility.yul\":2009:2027   */\n  tag_35\n  tag_13\n  jump\t// in\ntag_35:\n    /* \"#utility.yul\":1989:2029   */\ntag_34:\n    /* \"#utility.yul\":2042:2047   */\n  jump(tag_23)\n    /* \"#utility.yul\":1811:2057   */\ntag_33:\n    /* \"#utility.yul\":2082:2124   */\n  tag_36\n    /* \"#utility.yul\":2120:2123   */\n  dup5\n    /* \"#utility.yul\":2110:2118   */\n  dup5\n    /* \"#utility.yul\":2104:2108   */\n  dup5\n    /* \"#utility.yul\":2101:2102   */\n  0x01\n    /* \"#utility.yul\":2082:2124   */\n  tag_6\n  jump\t// in\ntag_36:\n    /* \"#utility.yul\":2067:2124   */\n  swap3\n  pop\n  swap1\n  pop\n    /* \"#utility.yul\":2156:2160   */\n  dup2\n    /* \"#utility.yul\":2151:2154   */\n  dup5\n    /* \"#utility.yul\":2147:2161   */\n  div\n    /* \"#utility.yul\":2140:2145   */\n  dup2\n    /* \"#utility.yul\":2137:2162   */\n  gt\n    /* \"#utility.yul\":2134:2185   */\n  iszero\n  tag_37\n  jumpi\n    /* \"#utility.yul\":2165:2183   */\n  tag_38\n  tag_13\n  jump\t// in\ntag_38:\n    /* \"#utility.yul\":2134:2185   */\ntag_37:\n    /* \"#utility.yul\":2214:2218   */\n  dup2\n    /* \"#utility.yul\":2207:2212   */\n  dup2\n    /* \"#utility.yul\":2203:2219   */\n  mul\n    /* \"#utility.yul\":2194:2219   */\n  swap1\n  pop\n    /* \"#utility.yul\":1152:2225   */\ntag_23:\n  swap4\n  swap3\n  pop\n  pop\n  pop\n  jump\t// out\n    /* \"#utility.yul\":2231:2308   */\ntag_19:\n    /* \"#utility.yul\":2268:2275   */\n  0x00\n    /* \"#utility.yul\":2297:2302   */\n  dup2\n    /* \"#utility.yul\":2286:2302   */\n  swap1\n  pop\n    /* \"#utility.yul\":2231:2308   */\n  swap2\n  swap1\n  pop\n  jump\t// out\n    /* \"#utility.yul\":2314:2494   */\ntag_13:\n    /* \"#utility.yul\":2362:2439   */\n  0x4e487b7100000000000000000000000000000000000000000000000000000000\n    /* \"#utility.yul\":2359:2360   */\n  0x00\n    /* \"#utility.yul\":2352:2440   */\n  mstore\n    /* \"#utility.yul\":2459:2463   */\n  0x11\n    /* \"#utility.yul\":2456:2457   */\n  0x04\n    /* \"#utility.yul\":2449:2464   */\n  mstore\n    /* \"#utility.yul\":2483:2487   */\n  0x24\n    /* \"#utility.yul\":2480:2481   */\n  0x00\n    /* \"#utility.yul\":2473:2488   */\n  revert\n    /* \"#utility.yul\":2500:2602   */\ntag_16:\n    /* \"#utility.yul\":2542:2550   */\n  0x00\n    /* \"#utility.yul\":2589:2594   */\n  dup2\n    /* \"#utility.yul\":2586:2587   */\n  0x01\n    /* \"#utility.yul\":2582:2595   */\n  shr\n    /* \"#utility.yul\":2561:2595   */\n  swap1\n  pop\n    /* \"#utility.yul\":2500:2602   */\n  swap2\n  swap1\n  pop\n  jump\t// out\n    /* \"zombiearmy.sol\":74:1127  contract ZombieArmy {\r... */\ntag_4:\n  dataSize(sub_0)\n  dup1\n  dataOffset(sub_0)\n  0x00\n  codecopy\n  0x00\n  return\nstop\n\nsub_0: assembly {\n        /* \"zombiearmy.sol\":74:1127  contract ZombieArmy {\r... */\n      mstore(0x40, 0x80)\n      callvalue\n      dup1\n      iszero\n      tag_1\n      jumpi\n      0x00\n      dup1\n      revert\n    tag_1:\n      pop\n      jumpi(tag_2, lt(calldatasize, 0x04))\n      shr(0xe0, calldataload(0x00))\n      dup1\n      0x2052465e\n      eq\n      tag_3\n      jumpi\n      dup1\n      0x528b7b8f\n      eq\n      tag_4\n      jumpi\n      dup1\n      0x7bff0a01\n      eq\n      tag_5\n      jumpi\n    tag_2:\n      0x00\n      dup1\n      revert\n        /* \"zombiearmy.sol\":304:327  Zombie[] public zombies */\n    tag_3:\n      tag_6\n      0x04\n      dup1\n      calldatasize\n      sub\n      dup2\n      add\n      swap1\n      tag_7\n      swap2\n      swap1\n      tag_8\n      jump\t// in\n    tag_7:\n      tag_9\n      jump\t// in\n    tag_6:\n      mload(0x40)\n      tag_10\n      swap3\n      swap2\n      swap1\n      tag_11\n      jump\t// in\n    tag_10:\n      mload(0x40)\n      dup1\n      swap2\n      sub\n      swap1\n      return\n        /* \"zombiearmy.sol\":336:382  mapping (uint => address) public zombieToOwner */\n    tag_4:\n      tag_12\n      0x04\n      dup1\n      calldatasize\n      sub\n      dup2\n      add\n      swap1\n      tag_13\n      swap2\n      swap1\n      tag_8\n      jump\t// in\n    tag_13:\n      tag_14\n      jump\t// in\n    tag_12:\n      mload(0x40)\n      tag_15\n      swap2\n      swap1\n      tag_16\n      jump\t// in\n    tag_15:\n      mload(0x40)\n      dup1\n      swap2\n      sub\n      swap1\n      return\n        /* \"zombiearmy.sol\":916:1124  function createRandomZombie(string memory _name) public {\r... */\n    tag_5:\n      tag_17\n      0x04\n      dup1\n      calldatasize\n      sub\n      dup2\n      add\n      swap1\n      tag_18\n      swap2\n      swap1\n      tag_19\n      jump\t// in\n    tag_18:\n      tag_20\n      jump\t// in\n    tag_17:\n      stop\n        /* \"zombiearmy.sol\":304:327  Zombie[] public zombies */\n    tag_9:\n      0x02\n      dup2\n      dup2\n      sload\n      dup2\n      lt\n      tag_21\n      jumpi\n      0x00\n      dup1\n      revert\n    tag_21:\n      swap1\n      0x00\n      mstore\n      keccak256(0x00, 0x20)\n      swap1\n      0x02\n      mul\n      add\n      0x00\n      swap2\n      pop\n      swap1\n      pop\n      dup1\n      0x00\n      add\n      dup1\n      sload\n      tag_23\n      swap1\n      tag_24\n      jump\t// in\n    tag_23:\n      dup1\n      0x1f\n      add\n      0x20\n      dup1\n      swap2\n      div\n      mul\n      0x20\n      add\n      mload(0x40)\n      swap1\n      dup2\n      add\n      0x40\n      mstore\n      dup1\n      swap3\n      swap2\n      swap1\n      dup2\n      dup2\n      mstore\n      0x20\n      add\n      dup3\n      dup1\n      sload\n      tag_25\n      swap1\n      tag_24\n      jump\t// in\n    tag_25:\n      dup1\n      iszero\n      tag_26\n      jumpi\n      dup1\n      0x1f\n      lt\n      tag_27\n      jumpi\n      0x0100\n      dup1\n      dup4\n      sload\n      div\n      mul\n      dup4\n      mstore\n      swap2\n      0x20\n      add\n      swap2\n      jump(tag_26)\n    tag_27:\n      dup3\n      add\n      swap2\n      swap1\n      0x00\n      mstore\n      keccak256(0x00, 0x20)\n      swap1\n    tag_28:\n      dup2\n      sload\n      dup2\n      mstore\n      swap1\n      0x01\n      add\n      swap1\n      0x20\n      add\n      dup1\n      dup4\n      gt\n      tag_28\n      jumpi\n      dup3\n      swap1\n      sub\n      0x1f\n      and\n      dup3\n      add\n      swap2\n    tag_26:\n      pop\n      pop\n      pop\n      pop\n      pop\n      swap1\n      dup1\n      0x01\n      add\n      sload\n      swap1\n      pop\n      dup3\n      jump\t// out\n        /* \"zombiearmy.sol\":336:382  mapping (uint => address) public zombieToOwner */\n    tag_14:\n      mstore(0x20, 0x03)\n      dup1\n      0x00\n      mstore\n      keccak256(0x00, 0x40)\n      0x00\n      swap2\n      pop\n      sload\n      swap1\n      0x0100\n      exp\n      swap1\n      div\n      0xffffffffffffffffffffffffffffffffffffffff\n      and\n      dup2\n      jump\t// out\n        /* \"zombiearmy.sol\":916:1124  function createRandomZombie(string memory _name) public {\r... */\n    tag_20:\n        /* \"zombiearmy.sol\":1023:1024  0 */\n      0x00\n        /* \"zombiearmy.sol\":991:1007  ownerZombieCount */\n      0x04\n        /* \"zombiearmy.sol\":991:1019  ownerZombieCount[msg.sender] */\n      0x00\n        /* \"zombiearmy.sol\":1008:1018  msg.sender */\n      caller\n        /* \"zombiearmy.sol\":991:1019  ownerZombieCount[msg.sender] */\n      0xffffffffffffffffffffffffffffffffffffffff\n      and\n      0xffffffffffffffffffffffffffffffffffffffff\n      and\n      dup2\n      mstore\n      0x20\n      add\n      swap1\n      dup2\n      mstore\n      0x20\n      add\n      0x00\n      keccak256\n      sload\n        /* \"zombiearmy.sol\":991:1024  ownerZombieCount[msg.sender] == 0 */\n      eq\n        /* \"zombiearmy.sol\":983:1025  require(ownerZombieCount[msg.sender] == 0) */\n      tag_30\n      jumpi\n      0x00\n      dup1\n      revert\n    tag_30:\n        /* \"zombiearmy.sol\":1036:1048  uint randDna */\n      0x00\n        /* \"zombiearmy.sol\":1051:1076  _generateRandomDna(_name) */\n      tag_31\n        /* \"zombiearmy.sol\":1070:1075  _name */\n      dup3\n        /* \"zombiearmy.sol\":1051:1069  _generateRandomDna */\n      tag_32\n        /* \"zombiearmy.sol\":1051:1076  _generateRandomDna(_name) */\n      jump\t// in\n    tag_31:\n        /* \"zombiearmy.sol\":1036:1076  uint randDna = _generateRandomDna(_name) */\n      swap1\n      pop\n        /* \"zombiearmy.sol\":1087:1116  _createZombie(_name, randDna) */\n      tag_33\n        /* \"zombiearmy.sol\":1101:1106  _name */\n      dup3\n        /* \"zombiearmy.sol\":1108:1115  randDna */\n      dup3\n        /* \"zombiearmy.sol\":1087:1100  _createZombie */\n      tag_34\n        /* \"zombiearmy.sol\":1087:1116  _createZombie(_name, randDna) */\n      jump\t// in\n    tag_33:\n        /* \"zombiearmy.sol\":972:1124  {\r... */\n      pop\n        /* \"zombiearmy.sol\":916:1124  function createRandomZombie(string memory _name) public {\r... */\n      pop\n      jump\t// out\n        /* \"zombiearmy.sol\":727:908  function _generateRandomDna(string memory _str) private view returns (uint) {\r... */\n    tag_32:\n        /* \"zombiearmy.sol\":797:801  uint */\n      0x00\n        /* \"zombiearmy.sol\":814:823  uint rand */\n      dup1\n        /* \"zombiearmy.sol\":858:862  _str */\n      dup3\n        /* \"zombiearmy.sol\":841:863  abi.encodePacked(_str) */\n      add(0x20, mload(0x40))\n      tag_36\n      swap2\n      swap1\n      tag_37\n      jump\t// in\n    tag_36:\n      mload(0x40)\n      0x20\n      dup2\n      dup4\n      sub\n      sub\n      dup2\n      mstore\n      swap1\n      0x40\n      mstore\n        /* \"zombiearmy.sol\":831:864  keccak256(abi.encodePacked(_str)) */\n      dup1\n      mload\n      swap1\n      0x20\n      add\n      keccak256\n        /* \"zombiearmy.sol\":826:865  uint(keccak256(abi.encodePacked(_str))) */\n      0x00\n      shr\n        /* \"zombiearmy.sol\":814:865  uint rand = uint(keccak256(abi.encodePacked(_str))) */\n      swap1\n      pop\n        /* \"zombiearmy.sol\":890:900  dnaModulus */\n      sload(0x01)\n        /* \"zombiearmy.sol\":883:887  rand */\n      dup2\n        /* \"zombiearmy.sol\":883:900  rand % dnaModulus */\n      tag_38\n      swap2\n      swap1\n      tag_39\n      jump\t// in\n    tag_38:\n        /* \"zombiearmy.sol\":876:900  return rand % dnaModulus */\n      swap2\n      pop\n      pop\n        /* \"zombiearmy.sol\":727:908  function _generateRandomDna(string memory _str) private view returns (uint) {\r... */\n      swap2\n      swap1\n      pop\n      jump\t// out\n        /* \"zombiearmy.sol\":440:719  function _createZombie(string memory _name, uint _dna) internal {\r... */\n    tag_34:\n        /* \"zombiearmy.sol\":515:522  zombies */\n      0x02\n        /* \"zombiearmy.sol\":528:547  Zombie(_name, _dna) */\n      mload(0x40)\n      dup1\n      0x40\n      add\n      0x40\n      mstore\n      dup1\n        /* \"zombiearmy.sol\":535:540  _name */\n      dup5\n        /* \"zombiearmy.sol\":528:547  Zombie(_name, _dna) */\n      dup2\n      mstore\n      0x20\n      add\n        /* \"zombiearmy.sol\":542:546  _dna */\n      dup4\n        /* \"zombiearmy.sol\":528:547  Zombie(_name, _dna) */\n      dup2\n      mstore\n      pop\n        /* \"zombiearmy.sol\":515:548  zombies.push(Zombie(_name, _dna)) */\n      swap1\n      dup1\n      0x01\n      dup2\n      sload\n      add\n      dup1\n      dup3\n      sstore\n      dup1\n      swap2\n      pop\n      pop\n      0x01\n      swap1\n      sub\n      swap1\n      0x00\n      mstore\n      keccak256(0x00, 0x20)\n      swap1\n      0x02\n      mul\n      add\n      0x00\n      swap1\n      swap2\n      swap1\n      swap2\n      swap1\n      swap2\n      pop\n      0x00\n      dup3\n      add\n      mload\n      dup2\n      0x00\n      add\n      swap1\n      dup1\n      mload\n      swap1\n      0x20\n      add\n      swap1\n      tag_42\n      swap3\n      swap2\n      swap1\n      tag_43\n      jump\t// in\n    tag_42:\n      pop\n      0x20\n      dup3\n      add\n      mload\n      dup2\n      0x01\n      add\n      sstore\n      pop\n      pop\n        /* \"zombiearmy.sol\":559:566  uint id */\n      0x00\n        /* \"zombiearmy.sol\":586:587  1 */\n      0x01\n        /* \"zombiearmy.sol\":569:576  zombies */\n      0x02\n        /* \"zombiearmy.sol\":569:583  zombies.length */\n      dup1\n      sload\n      swap1\n      pop\n        /* \"zombiearmy.sol\":569:587  zombies.length - 1 */\n      tag_44\n      swap2\n      swap1\n      tag_45\n      jump\t// in\n    tag_44:\n        /* \"zombiearmy.sol\":559:587  uint id = zombies.length - 1 */\n      swap1\n      pop\n        /* \"zombiearmy.sol\":618:628  msg.sender */\n      caller\n        /* \"zombiearmy.sol\":598:611  zombieToOwner */\n      0x03\n        /* \"zombiearmy.sol\":598:615  zombieToOwner[id] */\n      0x00\n        /* \"zombiearmy.sol\":612:614  id */\n      dup4\n        /* \"zombiearmy.sol\":598:615  zombieToOwner[id] */\n      dup2\n      mstore\n      0x20\n      add\n      swap1\n      dup2\n      mstore\n      0x20\n      add\n      0x00\n      keccak256\n      0x00\n        /* \"zombiearmy.sol\":598:628  zombieToOwner[id] = msg.sender */\n      0x0100\n      exp\n      dup2\n      sload\n      dup2\n      0xffffffffffffffffffffffffffffffffffffffff\n      mul\n      not\n      and\n      swap1\n      dup4\n      0xffffffffffffffffffffffffffffffffffffffff\n      and\n      mul\n      or\n      swap1\n      sstore\n      pop\n        /* \"zombiearmy.sol\":639:655  ownerZombieCount */\n      0x04\n        /* \"zombiearmy.sol\":639:667  ownerZombieCount[msg.sender] */\n      0x00\n        /* \"zombiearmy.sol\":656:666  msg.sender */\n      caller\n        /* \"zombiearmy.sol\":639:667  ownerZombieCount[msg.sender] */\n      0xffffffffffffffffffffffffffffffffffffffff\n      and\n      0xffffffffffffffffffffffffffffffffffffffff\n      and\n      dup2\n      mstore\n      0x20\n      add\n      swap1\n      dup2\n      mstore\n      0x20\n      add\n      0x00\n      keccak256\n      0x00\n        /* \"zombiearmy.sol\":639:669  ownerZombieCount[msg.sender]++ */\n      dup2\n      sload\n      dup1\n      swap3\n      swap2\n      swap1\n      tag_46\n      swap1\n      tag_47\n      jump\t// in\n    tag_46:\n      swap2\n      swap1\n      pop\n      sstore\n      pop\n        /* \"zombiearmy.sol\":685:711  NewZombie(id, _name, _dna) */\n      0x88f026aacbbecc90c18411df4b1185fd8d9be2470f1962f192bf84a27d0704b7\n        /* \"zombiearmy.sol\":695:697  id */\n      dup2\n        /* \"zombiearmy.sol\":699:704  _name */\n      dup5\n        /* \"zombiearmy.sol\":706:710  _dna */\n      dup5\n        /* \"zombiearmy.sol\":685:711  NewZombie(id, _name, _dna) */\n      mload(0x40)\n      tag_48\n      swap4\n      swap3\n      swap2\n      swap1\n      tag_49\n      jump\t// in\n    tag_48:\n      mload(0x40)\n      dup1\n      swap2\n      sub\n      swap1\n      log1\n        /* \"zombiearmy.sol\":504:719  {\r... */\n      pop\n        /* \"zombiearmy.sol\":440:719  function _createZombie(string memory _name, uint _dna) internal {\r... */\n      pop\n      pop\n      jump\t// out\n    tag_43:\n      dup3\n      dup1\n      sload\n      tag_50\n      swap1\n      tag_24\n      jump\t// in\n    tag_50:\n      swap1\n      0x00\n      mstore\n      keccak256(0x00, 0x20)\n      swap1\n      0x1f\n      add\n      0x20\n      swap1\n      div\n      dup2\n      add\n      swap3\n      dup3\n      tag_52\n      jumpi\n      0x00\n      dup6\n      sstore\n      jump(tag_51)\n    tag_52:\n      dup3\n      0x1f\n      lt\n      tag_53\n      jumpi\n      dup1\n      mload\n      not(0xff)\n      and\n      dup4\n      dup1\n      add\n      or\n      dup6\n      sstore\n      jump(tag_51)\n    tag_53:\n      dup3\n      dup1\n      add\n      0x01\n      add\n      dup6\n      sstore\n      dup3\n      iszero\n      tag_51\n      jumpi\n      swap2\n      dup3\n      add\n    tag_54:\n      dup3\n      dup2\n      gt\n      iszero\n      tag_55\n      jumpi\n      dup3\n      mload\n      dup3\n      sstore\n      swap2\n      0x20\n      add\n      swap2\n      swap1\n      0x01\n      add\n      swap1\n      jump(tag_54)\n    tag_55:\n    tag_51:\n      pop\n      swap1\n      pop\n      tag_56\n      swap2\n      swap1\n      tag_57\n      jump\t// in\n    tag_56:\n      pop\n      swap1\n      jump\t// out\n    tag_57:\n    tag_58:\n      dup1\n      dup3\n      gt\n      iszero\n      tag_59\n      jumpi\n      0x00\n      dup2\n      0x00\n      swap1\n      sstore\n      pop\n      0x01\n      add\n      jump(tag_58)\n    tag_59:\n      pop\n      swap1\n      jump\t// out\n        /* \"#utility.yul\":7:419   */\n    tag_61:\n        /* \"#utility.yul\":85:90   */\n      0x00\n        /* \"#utility.yul\":110:176   */\n      tag_63\n        /* \"#utility.yul\":126:175   */\n      tag_64\n        /* \"#utility.yul\":168:174   */\n      dup5\n        /* \"#utility.yul\":126:175   */\n      tag_65\n      jump\t// in\n    tag_64:\n        /* \"#utility.yul\":110:176   */\n      tag_66\n      jump\t// in\n    tag_63:\n        /* \"#utility.yul\":101:176   */\n      swap1\n      pop\n        /* \"#utility.yul\":199:205   */\n      dup3\n        /* \"#utility.yul\":192:197   */\n      dup2\n        /* \"#utility.yul\":185:206   */\n      mstore\n        /* \"#utility.yul\":237:241   */\n      0x20\n        /* \"#utility.yul\":230:235   */\n      dup2\n        /* \"#utility.yul\":226:242   */\n      add\n        /* \"#utility.yul\":275:278   */\n      dup5\n        /* \"#utility.yul\":266:272   */\n      dup5\n        /* \"#utility.yul\":261:264   */\n      dup5\n        /* \"#utility.yul\":257:273   */\n      add\n        /* \"#utility.yul\":254:279   */\n      gt\n        /* \"#utility.yul\":251:363   */\n      iszero\n      tag_67\n      jumpi\n        /* \"#utility.yul\":282:361   */\n      tag_68\n      tag_69\n      jump\t// in\n    tag_68:\n        /* \"#utility.yul\":251:363   */\n    tag_67:\n        /* \"#utility.yul\":372:413   */\n      tag_70\n        /* \"#utility.yul\":406:412   */\n      dup5\n        /* \"#utility.yul\":401:404   */\n      dup3\n        /* \"#utility.yul\":396:399   */\n      dup6\n        /* \"#utility.yul\":372:413   */\n      tag_71\n      jump\t// in\n    tag_70:\n        /* \"#utility.yul\":91:419   */\n      pop\n        /* \"#utility.yul\":7:419   */\n      swap4\n      swap3\n      pop\n      pop\n      pop\n      jump\t// out\n        /* \"#utility.yul\":439:779   */\n    tag_72:\n        /* \"#utility.yul\":495:500   */\n      0x00\n        /* \"#utility.yul\":544:547   */\n      dup3\n        /* \"#utility.yul\":537:541   */\n      0x1f\n        /* \"#utility.yul\":529:535   */\n      dup4\n        /* \"#utility.yul\":525:542   */\n      add\n        /* \"#utility.yul\":521:548   */\n      slt\n        /* \"#utility.yul\":511:633   */\n      tag_74\n      jumpi\n        /* \"#utility.yul\":552:631   */\n      tag_75\n      tag_76\n      jump\t// in\n    tag_75:\n        /* \"#utility.yul\":511:633   */\n    tag_74:\n        /* \"#utility.yul\":669:675   */\n      dup2\n        /* \"#utility.yul\":656:676   */\n      calldataload\n        /* \"#utility.yul\":694:773   */\n      tag_77\n        /* \"#utility.yul\":769:772   */\n      dup5\n        /* \"#utility.yul\":761:767   */\n      dup3\n        /* \"#utility.yul\":754:758   */\n      0x20\n        /* \"#utility.yul\":746:752   */\n      dup7\n        /* \"#utility.yul\":742:759   */\n      add\n        /* \"#utility.yul\":694:773   */\n      tag_61\n      jump\t// in\n    tag_77:\n        /* \"#utility.yul\":685:773   */\n      swap2\n      pop\n        /* \"#utility.yul\":501:779   */\n      pop\n        /* \"#utility.yul\":439:779   */\n      swap3\n      swap2\n      pop\n      pop\n      jump\t// out\n        /* \"#utility.yul\":785:924   */\n    tag_78:\n        /* \"#utility.yul\":831:836   */\n      0x00\n        /* \"#utility.yul\":869:875   */\n      dup2\n        /* \"#utility.yul\":856:876   */\n      calldataload\n        /* \"#utility.yul\":847:876   */\n      swap1\n      pop\n        /* \"#utility.yul\":885:918   */\n      tag_80\n        /* \"#utility.yul\":912:917   */\n      dup2\n        /* \"#utility.yul\":885:918   */\n      tag_81\n      jump\t// in\n    tag_80:\n        /* \"#utility.yul\":785:924   */\n      swap3\n      swap2\n      pop\n      pop\n      jump\t// out\n        /* \"#utility.yul\":930:1439   */\n    tag_19:\n        /* \"#utility.yul\":999:1005   */\n      0x00\n        /* \"#utility.yul\":1048:1050   */\n      0x20\n        /* \"#utility.yul\":1036:1045   */\n      dup3\n        /* \"#utility.yul\":1027:1034   */\n      dup5\n        /* \"#utility.yul\":1023:1046   */\n      sub\n        /* \"#utility.yul\":1019:1051   */\n      slt\n        /* \"#utility.yul\":1016:1135   */\n      iszero\n      tag_83\n      jumpi\n        /* \"#utility.yul\":1054:1133   */\n      tag_84\n      tag_85\n      jump\t// in\n    tag_84:\n        /* \"#utility.yul\":1016:1135   */\n    tag_83:\n        /* \"#utility.yul\":1202:1203   */\n      0x00\n        /* \"#utility.yul\":1191:1200   */\n      dup3\n        /* \"#utility.yul\":1187:1204   */\n      add\n        /* \"#utility.yul\":1174:1205   */\n      calldataload\n        /* \"#utility.yul\":1232:1250   */\n      0xffffffffffffffff\n        /* \"#utility.yul\":1224:1230   */\n      dup2\n        /* \"#utility.yul\":1221:1251   */\n      gt\n        /* \"#utility.yul\":1218:1335   */\n      iszero\n      tag_86\n      jumpi\n        /* \"#utility.yul\":1254:1333   */\n      tag_87\n      tag_88\n      jump\t// in\n    tag_87:\n        /* \"#utility.yul\":1218:1335   */\n    tag_86:\n        /* \"#utility.yul\":1359:1422   */\n      tag_89\n        /* \"#utility.yul\":1414:1421   */\n      dup5\n        /* \"#utility.yul\":1405:1411   */\n      dup3\n        /* \"#utility.yul\":1394:1403   */\n      dup6\n        /* \"#utility.yul\":1390:1412   */\n      add\n        /* \"#utility.yul\":1359:1422   */\n      tag_72\n      jump\t// in\n    tag_89:\n        /* \"#utility.yul\":1349:1422   */\n      swap2\n      pop\n        /* \"#utility.yul\":1145:1432   */\n      pop\n        /* \"#utility.yul\":930:1439   */\n      swap3\n      swap2\n      pop\n      pop\n      jump\t// out\n        /* \"#utility.yul\":1445:1774   */\n    tag_8:\n        /* \"#utility.yul\":1504:1510   */\n      0x00\n        /* \"#utility.yul\":1553:1555   */\n      0x20\n        /* \"#utility.yul\":1541:1550   */\n      dup3\n        /* \"#utility.yul\":1532:1539   */\n      dup5\n        /* \"#utility.yul\":1528:1551   */\n      sub\n        /* \"#utility.yul\":1524:1556   */\n      slt\n        /* \"#utility.yul\":1521:1640   */\n      iszero\n      tag_91\n      jumpi\n        /* \"#utility.yul\":1559:1638   */\n      tag_92\n      tag_85\n      jump\t// in\n    tag_92:\n        /* \"#utility.yul\":1521:1640   */\n    tag_91:\n        /* \"#utility.yul\":1679:1680   */\n      0x00\n        /* \"#utility.yul\":1704:1757   */\n      tag_93\n        /* \"#utility.yul\":1749:1756   */\n      dup5\n        /* \"#utility.yul\":1740:1746   */\n      dup3\n        /* \"#utility.yul\":1729:1738   */\n      dup6\n        /* \"#utility.yul\":1725:1747   */\n      add\n        /* \"#utility.yul\":1704:1757   */\n      tag_78\n      jump\t// in\n    tag_93:\n        /* \"#utility.yul\":1694:1757   */\n      swap2\n      pop\n        /* \"#utility.yul\":1650:1767   */\n      pop\n        /* \"#utility.yul\":1445:1774   */\n      swap3\n      swap2\n      pop\n      pop\n      jump\t// out\n        /* \"#utility.yul\":1780:1898   */\n    tag_94:\n        /* \"#utility.yul\":1867:1891   */\n      tag_96\n        /* \"#utility.yul\":1885:1890   */\n      dup2\n        /* \"#utility.yul\":1867:1891   */\n      tag_97\n      jump\t// in\n    tag_96:\n        /* \"#utility.yul\":1862:1865   */\n      dup3\n        /* \"#utility.yul\":1855:1892   */\n      mstore\n        /* \"#utility.yul\":1780:1898   */\n      pop\n      pop\n      jump\t// out\n        /* \"#utility.yul\":1904:2268   */\n    tag_98:\n        /* \"#utility.yul\":1992:1995   */\n      0x00\n        /* \"#utility.yul\":2020:2059   */\n      tag_100\n        /* \"#utility.yul\":2053:2058   */\n      dup3\n        /* \"#utility.yul\":2020:2059   */\n      tag_101\n      jump\t// in\n    tag_100:\n        /* \"#utility.yul\":2075:2146   */\n      tag_102\n        /* \"#utility.yul\":2139:2145   */\n      dup2\n        /* \"#utility.yul\":2134:2137   */\n      dup6\n        /* \"#utility.yul\":2075:2146   */\n      tag_103\n      jump\t// in\n    tag_102:\n        /* \"#utility.yul\":2068:2146   */\n      swap4\n      pop\n        /* \"#utility.yul\":2155:2207   */\n      tag_104\n        /* \"#utility.yul\":2200:2206   */\n      dup2\n        /* \"#utility.yul\":2195:2198   */\n      dup6\n        /* \"#utility.yul\":2188:2192   */\n      0x20\n        /* \"#utility.yul\":2181:2186   */\n      dup7\n        /* \"#utility.yul\":2177:2193   */\n      add\n        /* \"#utility.yul\":2155:2207   */\n      tag_105\n      jump\t// in\n    tag_104:\n        /* \"#utility.yul\":2232:2261   */\n      tag_106\n        /* \"#utility.yul\":2254:2260   */\n      dup2\n        /* \"#utility.yul\":2232:2261   */\n      tag_107\n      jump\t// in\n    tag_106:\n        /* \"#utility.yul\":2227:2230   */\n      dup5\n        /* \"#utility.yul\":2223:2262   */\n      add\n        /* \"#utility.yul\":2216:2262   */\n      swap2\n      pop\n        /* \"#utility.yul\":1996:2268   */\n      pop\n        /* \"#utility.yul\":1904:2268   */\n      swap3\n      swap2\n      pop\n      pop\n      jump\t// out\n        /* \"#utility.yul\":2274:2651   */\n    tag_108:\n        /* \"#utility.yul\":2380:2383   */\n      0x00\n        /* \"#utility.yul\":2408:2447   */\n      tag_110\n        /* \"#utility.yul\":2441:2446   */\n      dup3\n        /* \"#utility.yul\":2408:2447   */\n      tag_101\n      jump\t// in\n    tag_110:\n        /* \"#utility.yul\":2463:2552   */\n      tag_111\n        /* \"#utility.yul\":2545:2551   */\n      dup2\n        /* \"#utility.yul\":2540:2543   */\n      dup6\n        /* \"#utility.yul\":2463:2552   */\n      tag_112\n      jump\t// in\n    tag_111:\n        /* \"#utility.yul\":2456:2552   */\n      swap4\n      pop\n        /* \"#utility.yul\":2561:2613   */\n      tag_113\n        /* \"#utility.yul\":2606:2612   */\n      dup2\n        /* \"#utility.yul\":2601:2604   */\n      dup6\n        /* \"#utility.yul\":2594:2598   */\n      0x20\n        /* \"#utility.yul\":2587:2592   */\n      dup7\n        /* \"#utility.yul\":2583:2599   */\n      add\n        /* \"#utility.yul\":2561:2613   */\n      tag_105\n      jump\t// in\n    tag_113:\n        /* \"#utility.yul\":2638:2644   */\n      dup1\n        /* \"#utility.yul\":2633:2636   */\n      dup5\n        /* \"#utility.yul\":2629:2645   */\n      add\n        /* \"#utility.yul\":2622:2645   */\n      swap2\n      pop\n        /* \"#utility.yul\":2384:2651   */\n      pop\n        /* \"#utility.yul\":2274:2651   */\n      swap3\n      swap2\n      pop\n      pop\n      jump\t// out\n        /* \"#utility.yul\":2657:2775   */\n    tag_114:\n        /* \"#utility.yul\":2744:2768   */\n      tag_116\n        /* \"#utility.yul\":2762:2767   */\n      dup2\n        /* \"#utility.yul\":2744:2768   */\n      tag_117\n      jump\t// in\n    tag_116:\n        /* \"#utility.yul\":2739:2742   */\n      dup3\n        /* \"#utility.yul\":2732:2769   */\n      mstore\n        /* \"#utility.yul\":2657:2775   */\n      pop\n      pop\n      jump\t// out\n        /* \"#utility.yul\":2781:3056   */\n    tag_37:\n        /* \"#utility.yul\":2913:2916   */\n      0x00\n        /* \"#utility.yul\":2935:3030   */\n      tag_119\n        /* \"#utility.yul\":3026:3029   */\n      dup3\n        /* \"#utility.yul\":3017:3023   */\n      dup5\n        /* \"#utility.yul\":2935:3030   */\n      tag_108\n      jump\t// in\n    tag_119:\n        /* \"#utility.yul\":2928:3030   */\n      swap2\n      pop\n        /* \"#utility.yul\":3047:3050   */\n      dup2\n        /* \"#utility.yul\":3040:3050   */\n      swap1\n      pop\n        /* \"#utility.yul\":2781:3056   */\n      swap3\n      swap2\n      pop\n      pop\n      jump\t// out\n        /* \"#utility.yul\":3062:3284   */\n    tag_16:\n        /* \"#utility.yul\":3155:3159   */\n      0x00\n        /* \"#utility.yul\":3193:3195   */\n      0x20\n        /* \"#utility.yul\":3182:3191   */\n      dup3\n        /* \"#utility.yul\":3178:3196   */\n      add\n        /* \"#utility.yul\":3170:3196   */\n      swap1\n      pop\n        /* \"#utility.yul\":3206:3277   */\n      tag_121\n        /* \"#utility.yul\":3274:3275   */\n      0x00\n        /* \"#utility.yul\":3263:3272   */\n      dup4\n        /* \"#utility.yul\":3259:3276   */\n      add\n        /* \"#utility.yul\":3250:3256   */\n      dup5\n        /* \"#utility.yul\":3206:3277   */\n      tag_94\n      jump\t// in\n    tag_121:\n        /* \"#utility.yul\":3062:3284   */\n      swap3\n      swap2\n      pop\n      pop\n      jump\t// out\n        /* \"#utility.yul\":3290:3713   */\n    tag_11:\n        /* \"#utility.yul\":3431:3435   */\n      0x00\n        /* \"#utility.yul\":3469:3471   */\n      0x40\n        /* \"#utility.yul\":3458:3467   */\n      dup3\n        /* \"#utility.yul\":3454:3472   */\n      add\n        /* \"#utility.yul\":3446:3472   */\n      swap1\n      pop\n        /* \"#utility.yul\":3518:3527   */\n      dup2\n        /* \"#utility.yul\":3512:3516   */\n      dup2\n        /* \"#utility.yul\":3508:3528   */\n      sub\n        /* \"#utility.yul\":3504:3505   */\n      0x00\n        /* \"#utility.yul\":3493:3502   */\n      dup4\n        /* \"#utility.yul\":3489:3506   */\n      add\n        /* \"#utility.yul\":3482:3529   */\n      mstore\n        /* \"#utility.yul\":3546:3624   */\n      tag_123\n        /* \"#utility.yul\":3619:3623   */\n      dup2\n        /* \"#utility.yul\":3610:3616   */\n      dup6\n        /* \"#utility.yul\":3546:3624   */\n      tag_98\n      jump\t// in\n    tag_123:\n        /* \"#utility.yul\":3538:3624   */\n      swap1\n      pop\n        /* \"#utility.yul\":3634:3706   */\n      tag_124\n        /* \"#utility.yul\":3702:3704   */\n      0x20\n        /* \"#utility.yul\":3691:3700   */\n      dup4\n        /* \"#utility.yul\":3687:3705   */\n      add\n        /* \"#utility.yul\":3678:3684   */\n      dup5\n        /* \"#utility.yul\":3634:3706   */\n      tag_114\n      jump\t// in\n    tag_124:\n        /* \"#utility.yul\":3290:3713   */\n      swap4\n      swap3\n      pop\n      pop\n      pop\n      jump\t// out\n        /* \"#utility.yul\":3719:4252   */\n    tag_49:\n        /* \"#utility.yul\":3888:3892   */\n      0x00\n        /* \"#utility.yul\":3926:3928   */\n      0x60\n        /* \"#utility.yul\":3915:3924   */\n      dup3\n        /* \"#utility.yul\":3911:3929   */\n      add\n        /* \"#utility.yul\":3903:3929   */\n      swap1\n      pop\n        /* \"#utility.yul\":3939:4010   */\n      tag_126\n        /* \"#utility.yul\":4007:4008   */\n      0x00\n        /* \"#utility.yul\":3996:4005   */\n      dup4\n        /* \"#utility.yul\":3992:4009   */\n      add\n        /* \"#utility.yul\":3983:3989   */\n      dup7\n        /* \"#utility.yul\":3939:4010   */\n      tag_114\n      jump\t// in\n    tag_126:\n        /* \"#utility.yul\":4057:4066   */\n      dup2\n        /* \"#utility.yul\":4051:4055   */\n      dup2\n        /* \"#utility.yul\":4047:4067   */\n      sub\n        /* \"#utility.yul\":4042:4044   */\n      0x20\n        /* \"#utility.yul\":4031:4040   */\n      dup4\n        /* \"#utility.yul\":4027:4045   */\n      add\n        /* \"#utility.yul\":4020:4068   */\n      mstore\n        /* \"#utility.yul\":4085:4163   */\n      tag_127\n        /* \"#utility.yul\":4158:4162   */\n      dup2\n        /* \"#utility.yul\":4149:4155   */\n      dup6\n        /* \"#utility.yul\":4085:4163   */\n      tag_98\n      jump\t// in\n    tag_127:\n        /* \"#utility.yul\":4077:4163   */\n      swap1\n      pop\n        /* \"#utility.yul\":4173:4245   */\n      tag_128\n        /* \"#utility.yul\":4241:4243   */\n      0x40\n        /* \"#utility.yul\":4230:4239   */\n      dup4\n        /* \"#utility.yul\":4226:4244   */\n      add\n        /* \"#utility.yul\":4217:4223   */\n      dup5\n        /* \"#utility.yul\":4173:4245   */\n      tag_114\n      jump\t// in\n    tag_128:\n        /* \"#utility.yul\":3719:4252   */\n      swap5\n      swap4\n      pop\n      pop\n      pop\n      pop\n      jump\t// out\n        /* \"#utility.yul\":4258:4387   */\n    tag_66:\n        /* \"#utility.yul\":4292:4298   */\n      0x00\n        /* \"#utility.yul\":4319:4339   */\n      tag_130\n      tag_131\n      jump\t// in\n    tag_130:\n        /* \"#utility.yul\":4309:4339   */\n      swap1\n      pop\n        /* \"#utility.yul\":4348:4381   */\n      tag_132\n        /* \"#utility.yul\":4376:4380   */\n      dup3\n        /* \"#utility.yul\":4368:4374   */\n      dup3\n        /* \"#utility.yul\":4348:4381   */\n      tag_133\n      jump\t// in\n    tag_132:\n        /* \"#utility.yul\":4258:4387   */\n      swap2\n      swap1\n      pop\n      jump\t// out\n        /* \"#utility.yul\":4393:4468   */\n    tag_131:\n        /* \"#utility.yul\":4426:4432   */\n      0x00\n        /* \"#utility.yul\":4459:4461   */\n      0x40\n        /* \"#utility.yul\":4453:4462   */\n      mload\n        /* \"#utility.yul\":4443:4462   */\n      swap1\n      pop\n        /* \"#utility.yul\":4393:4468   */\n      swap1\n      jump\t// out\n        /* \"#utility.yul\":4474:4782   */\n    tag_65:\n        /* \"#utility.yul\":4536:4540   */\n      0x00\n        /* \"#utility.yul\":4626:4644   */\n      0xffffffffffffffff\n        /* \"#utility.yul\":4618:4624   */\n      dup3\n        /* \"#utility.yul\":4615:4645   */\n      gt\n        /* \"#utility.yul\":4612:4668   */\n      iszero\n      tag_136\n      jumpi\n        /* \"#utility.yul\":4648:4666   */\n      tag_137\n      tag_138\n      jump\t// in\n    tag_137:\n        /* \"#utility.yul\":4612:4668   */\n    tag_136:\n        /* \"#utility.yul\":4686:4715   */\n      tag_139\n        /* \"#utility.yul\":4708:4714   */\n      dup3\n        /* \"#utility.yul\":4686:4715   */\n      tag_107\n      jump\t// in\n    tag_139:\n        /* \"#utility.yul\":4678:4715   */\n      swap1\n      pop\n        /* \"#utility.yul\":4770:4774   */\n      0x20\n        /* \"#utility.yul\":4764:4768   */\n      dup2\n        /* \"#utility.yul\":4760:4775   */\n      add\n        /* \"#utility.yul\":4752:4775   */\n      swap1\n      pop\n        /* \"#utility.yul\":4474:4782   */\n      swap2\n      swap1\n      pop\n      jump\t// out\n        /* \"#utility.yul\":4788:4887   */\n    tag_101:\n        /* \"#utility.yul\":4840:4846   */\n      0x00\n        /* \"#utility.yul\":4874:4879   */\n      dup2\n        /* \"#utility.yul\":4868:4880   */\n      mload\n        /* \"#utility.yul\":4858:4880   */\n      swap1\n      pop\n        /* \"#utility.yul\":4788:4887   */\n      swap2\n      swap1\n      pop\n      jump\t// out\n        /* \"#utility.yul\":4893:5062   */\n    tag_103:\n        /* \"#utility.yul\":4977:4988   */\n      0x00\n        /* \"#utility.yul\":5011:5017   */\n      dup3\n        /* \"#utility.yul\":5006:5009   */\n      dup3\n        /* \"#utility.yul\":4999:5018   */\n      mstore\n        /* \"#utility.yul\":5051:5055   */\n      0x20\n        /* \"#utility.yul\":5046:5049   */\n      dup3\n        /* \"#utility.yul\":5042:5056   */\n      add\n        /* \"#utility.yul\":5027:5056   */\n      swap1\n      pop\n        /* \"#utility.yul\":4893:5062   */\n      swap3\n      swap2\n      pop\n      pop\n      jump\t// out\n        /* \"#utility.yul\":5068:5216   */\n    tag_112:\n        /* \"#utility.yul\":5170:5181   */\n      0x00\n        /* \"#utility.yul\":5207:5210   */\n      dup2\n        /* \"#utility.yul\":5192:5210   */\n      swap1\n      pop\n        /* \"#utility.yul\":5068:5216   */\n      swap3\n      swap2\n      pop\n      pop\n      jump\t// out\n        /* \"#utility.yul\":5222:5413   */\n    tag_45:\n        /* \"#utility.yul\":5262:5266   */\n      0x00\n        /* \"#utility.yul\":5282:5302   */\n      tag_144\n        /* \"#utility.yul\":5300:5301   */\n      dup3\n        /* \"#utility.yul\":5282:5302   */\n      tag_117\n      jump\t// in\n    tag_144:\n        /* \"#utility.yul\":5277:5302   */\n      swap2\n      pop\n        /* \"#utility.yul\":5316:5336   */\n      tag_145\n        /* \"#utility.yul\":5334:5335   */\n      dup4\n        /* \"#utility.yul\":5316:5336   */\n      tag_117\n      jump\t// in\n    tag_145:\n        /* \"#utility.yul\":5311:5336   */\n      swap3\n      pop\n        /* \"#utility.yul\":5355:5356   */\n      dup3\n        /* \"#utility.yul\":5352:5353   */\n      dup3\n        /* \"#utility.yul\":5349:5357   */\n      lt\n        /* \"#utility.yul\":5346:5380   */\n      iszero\n      tag_146\n      jumpi\n        /* \"#utility.yul\":5360:5378   */\n      tag_147\n      tag_148\n      jump\t// in\n    tag_147:\n        /* \"#utility.yul\":5346:5380   */\n    tag_146:\n        /* \"#utility.yul\":5405:5406   */\n      dup3\n        /* \"#utility.yul\":5402:5403   */\n      dup3\n        /* \"#utility.yul\":5398:5407   */\n      sub\n        /* \"#utility.yul\":5390:5407   */\n      swap1\n      pop\n        /* \"#utility.yul\":5222:5413   */\n      swap3\n      swap2\n      pop\n      pop\n      jump\t// out\n        /* \"#utility.yul\":5419:5515   */\n    tag_97:\n        /* \"#utility.yul\":5456:5463   */\n      0x00\n        /* \"#utility.yul\":5485:5509   */\n      tag_150\n        /* \"#utility.yul\":5503:5508   */\n      dup3\n        /* \"#utility.yul\":5485:5509   */\n      tag_151\n      jump\t// in\n    tag_150:\n        /* \"#utility.yul\":5474:5509   */\n      swap1\n      pop\n        /* \"#utility.yul\":5419:5515   */\n      swap2\n      swap1\n      pop\n      jump\t// out\n        /* \"#utility.yul\":5521:5647   */\n    tag_151:\n        /* \"#utility.yul\":5558:5565   */\n      0x00\n        /* \"#utility.yul\":5598:5640   */\n      0xffffffffffffffffffffffffffffffffffffffff\n        /* \"#utility.yul\":5591:5596   */\n      dup3\n        /* \"#utility.yul\":5587:5641   */\n      and\n        /* \"#utility.yul\":5576:5641   */\n      swap1\n      pop\n        /* \"#utility.yul\":5521:5647   */\n      swap2\n      swap1\n      pop\n      jump\t// out\n        /* \"#utility.yul\":5653:5730   */\n    tag_117:\n        /* \"#utility.yul\":5690:5697   */\n      0x00\n        /* \"#utility.yul\":5719:5724   */\n      dup2\n        /* \"#utility.yul\":5708:5724   */\n      swap1\n      pop\n        /* \"#utility.yul\":5653:5730   */\n      swap2\n      swap1\n      pop\n      jump\t// out\n        /* \"#utility.yul\":5736:5890   */\n    tag_71:\n        /* \"#utility.yul\":5820:5826   */\n      dup3\n        /* \"#utility.yul\":5815:5818   */\n      dup2\n        /* \"#utility.yul\":5810:5813   */\n      dup4\n        /* \"#utility.yul\":5797:5827   */\n      calldatacopy\n        /* \"#utility.yul\":5882:5883   */\n      0x00\n        /* \"#utility.yul\":5873:5879   */\n      dup4\n        /* \"#utility.yul\":5868:5871   */\n      dup4\n        /* \"#utility.yul\":5864:5880   */\n      add\n        /* \"#utility.yul\":5857:5884   */\n      mstore\n        /* \"#utility.yul\":5736:5890   */\n      pop\n      pop\n      pop\n      jump\t// out\n        /* \"#utility.yul\":5896:6203   */\n    tag_105:\n        /* \"#utility.yul\":5964:5965   */\n      0x00\n        /* \"#utility.yul\":5974:6087   */\n    tag_156:\n        /* \"#utility.yul\":5988:5994   */\n      dup4\n        /* \"#utility.yul\":5985:5986   */\n      dup2\n        /* \"#utility.yul\":5982:5995   */\n      lt\n        /* \"#utility.yul\":5974:6087   */\n      iszero\n      tag_158\n      jumpi\n        /* \"#utility.yul\":6073:6074   */\n      dup1\n        /* \"#utility.yul\":6068:6071   */\n      dup3\n        /* \"#utility.yul\":6064:6075   */\n      add\n        /* \"#utility.yul\":6058:6076   */\n      mload\n        /* \"#utility.yul\":6054:6055   */\n      dup2\n        /* \"#utility.yul\":6049:6052   */\n      dup5\n        /* \"#utility.yul\":6045:6056   */\n      add\n        /* \"#utility.yul\":6038:6077   */\n      mstore\n        /* \"#utility.yul\":6010:6012   */\n      0x20\n        /* \"#utility.yul\":6007:6008   */\n      dup2\n        /* \"#utility.yul\":6003:6013   */\n      add\n        /* \"#utility.yul\":5998:6013   */\n      swap1\n      pop\n        /* \"#utility.yul\":5974:6087   */\n      jump(tag_156)\n    tag_158:\n        /* \"#utility.yul\":6105:6111   */\n      dup4\n        /* \"#utility.yul\":6102:6103   */\n      dup2\n        /* \"#utility.yul\":6099:6112   */\n      gt\n        /* \"#utility.yul\":6096:6197   */\n      iszero\n      tag_159\n      jumpi\n        /* \"#utility.yul\":6185:6186   */\n      0x00\n        /* \"#utility.yul\":6176:6182   */\n      dup5\n        /* \"#utility.yul\":6171:6174   */\n      dup5\n        /* \"#utility.yul\":6167:6183   */\n      add\n        /* \"#utility.yul\":6160:6187   */\n      mstore\n        /* \"#utility.yul\":6096:6197   */\n    tag_159:\n        /* \"#utility.yul\":5945:6203   */\n      pop\n        /* \"#utility.yul\":5896:6203   */\n      pop\n      pop\n      pop\n      jump\t// out\n        /* \"#utility.yul\":6209:6529   */\n    tag_24:\n        /* \"#utility.yul\":6253:6259   */\n      0x00\n        /* \"#utility.yul\":6290:6291   */\n      0x02\n        /* \"#utility.yul\":6284:6288   */\n      dup3\n        /* \"#utility.yul\":6280:6292   */\n      div\n        /* \"#utility.yul\":6270:6292   */\n      swap1\n      pop\n        /* \"#utility.yul\":6337:6338   */\n      0x01\n        /* \"#utility.yul\":6331:6335   */\n      dup3\n        /* \"#utility.yul\":6327:6339   */\n      and\n        /* \"#utility.yul\":6358:6376   */\n      dup1\n        /* \"#utility.yul\":6348:6429   */\n      tag_161\n      jumpi\n        /* \"#utility.yul\":6414:6418   */\n      0x7f\n        /* \"#utility.yul\":6406:6412   */\n      dup3\n        /* \"#utility.yul\":6402:6419   */\n      and\n        /* \"#utility.yul\":6392:6419   */\n      swap2\n      pop\n        /* \"#utility.yul\":6348:6429   */\n    tag_161:\n        /* \"#utility.yul\":6476:6478   */\n      0x20\n        /* \"#utility.yul\":6468:6474   */\n      dup3\n        /* \"#utility.yul\":6465:6479   */\n      lt\n        /* \"#utility.yul\":6445:6463   */\n      dup2\n        /* \"#utility.yul\":6442:6480   */\n      eq\n        /* \"#utility.yul\":6439:6523   */\n      iszero\n      tag_162\n      jumpi\n        /* \"#utility.yul\":6495:6513   */\n      tag_163\n      tag_164\n      jump\t// in\n    tag_163:\n        /* \"#utility.yul\":6439:6523   */\n    tag_162:\n        /* \"#utility.yul\":6260:6529   */\n      pop\n        /* \"#utility.yul\":6209:6529   */\n      swap2\n      swap1\n      pop\n      jump\t// out\n        /* \"#utility.yul\":6535:6816   */\n    tag_133:\n        /* \"#utility.yul\":6618:6645   */\n      tag_166\n        /* \"#utility.yul\":6640:6644   */\n      dup3\n        /* \"#utility.yul\":6618:6645   */\n      tag_107\n      jump\t// in\n    tag_166:\n        /* \"#utility.yul\":6610:6616   */\n      dup2\n        /* \"#utility.yul\":6606:6646   */\n      add\n        /* \"#utility.yul\":6748:6754   */\n      dup2\n        /* \"#utility.yul\":6736:6746   */\n      dup2\n        /* \"#utility.yul\":6733:6755   */\n      lt\n        /* \"#utility.yul\":6712:6730   */\n      0xffffffffffffffff\n        /* \"#utility.yul\":6700:6710   */\n      dup3\n        /* \"#utility.yul\":6697:6731   */\n      gt\n        /* \"#utility.yul\":6694:6756   */\n      or\n        /* \"#utility.yul\":6691:6779   */\n      iszero\n      tag_167\n      jumpi\n        /* \"#utility.yul\":6759:6777   */\n      tag_168\n      tag_138\n      jump\t// in\n    tag_168:\n        /* \"#utility.yul\":6691:6779   */\n    tag_167:\n        /* \"#utility.yul\":6799:6809   */\n      dup1\n        /* \"#utility.yul\":6795:6797   */\n      0x40\n        /* \"#utility.yul\":6788:6810   */\n      mstore\n        /* \"#utility.yul\":6578:6816   */\n      pop\n        /* \"#utility.yul\":6535:6816   */\n      pop\n      pop\n      jump\t// out\n        /* \"#utility.yul\":6822:7055   */\n    tag_47:\n        /* \"#utility.yul\":6861:6864   */\n      0x00\n        /* \"#utility.yul\":6884:6908   */\n      tag_170\n        /* \"#utility.yul\":6902:6907   */\n      dup3\n        /* \"#utility.yul\":6884:6908   */\n      tag_117\n      jump\t// in\n    tag_170:\n        /* \"#utility.yul\":6875:6908   */\n      swap2\n      pop\n        /* \"#utility.yul\":6930:6996   */\n      0xffffffffffffffffffffffffffffffffffffffffffffffffffffffffffffffff\n        /* \"#utility.yul\":6923:6928   */\n      dup3\n        /* \"#utility.yul\":6920:6997   */\n      eq\n        /* \"#utility.yul\":6917:7020   */\n      iszero\n      tag_171\n      jumpi\n        /* \"#utility.yul\":7000:7018   */\n      tag_172\n      tag_148\n      jump\t// in\n    tag_172:\n        /* \"#utility.yul\":6917:7020   */\n    tag_171:\n        /* \"#utility.yul\":7047:7048   */\n      0x01\n        /* \"#utility.yul\":7040:7045   */\n      dup3\n        /* \"#utility.yul\":7036:7049   */\n      add\n        /* \"#utility.yul\":7029:7049   */\n      swap1\n      pop\n        /* \"#utility.yul\":6822:7055   */\n      swap2\n      swap1\n      pop\n      jump\t// out\n        /* \"#utility.yul\":7061:7237   */\n    tag_39:\n        /* \"#utility.yul\":7093:7094   */\n      0x00\n        /* \"#utility.yul\":7110:7130   */\n      tag_174\n        /* \"#utility.yul\":7128:7129   */\n      dup3\n        /* \"#utility.yul\":7110:7130   */\n      tag_117\n      jump\t// in\n    tag_174:\n        /* \"#utility.yul\":7105:7130   */\n      swap2\n      pop\n        /* \"#utility.yul\":7144:7164   */\n      tag_175\n        /* \"#utility.yul\":7162:7163   */\n      dup4\n        /* \"#utility.yul\":7144:7164   */\n      tag_117\n      jump\t// in\n    tag_175:\n        /* \"#utility.yul\":7139:7164   */\n      swap3\n      pop\n        /* \"#utility.yul\":7183:7184   */\n      dup3\n        /* \"#utility.yul\":7173:7208   */\n      tag_176\n      jumpi\n        /* \"#utility.yul\":7188:7206   */\n      tag_177\n      tag_178\n      jump\t// in\n    tag_177:\n        /* \"#utility.yul\":7173:7208   */\n    tag_176:\n        /* \"#utility.yul\":7229:7230   */\n      dup3\n        /* \"#utility.yul\":7226:7227   */\n      dup3\n        /* \"#utility.yul\":7222:7231   */\n      mod\n        /* \"#utility.yul\":7217:7231   */\n      swap1\n      pop\n        /* \"#utility.yul\":7061:7237   */\n      swap3\n      swap2\n      pop\n      pop\n      jump\t// out\n        /* \"#utility.yul\":7243:7423   */\n    tag_148:\n        /* \"#utility.yul\":7291:7368   */\n      0x4e487b7100000000000000000000000000000000000000000000000000000000\n        /* \"#utility.yul\":7288:7289   */\n      0x00\n        /* \"#utility.yul\":7281:7369   */\n      mstore\n        /* \"#utility.yul\":7388:7392   */\n      0x11\n        /* \"#utility.yul\":7385:7386   */\n      0x04\n        /* \"#utility.yul\":7378:7393   */\n      mstore\n        /* \"#utility.yul\":7412:7416   */\n      0x24\n        /* \"#utility.yul\":7409:7410   */\n      0x00\n        /* \"#utility.yul\":7402:7417   */\n      revert\n        /* \"#utility.yul\":7429:7609   */\n    tag_178:\n        /* \"#utility.yul\":7477:7554   */\n      0x4e487b7100000000000000000000000000000000000000000000000000000000\n        /* \"#utility.yul\":7474:7475   */\n      0x00\n        /* \"#utility.yul\":7467:7555   */\n      mstore\n        /* \"#utility.yul\":7574:7578   */\n      0x12\n        /* \"#utility.yul\":7571:7572   */\n      0x04\n        /* \"#utility.yul\":7564:7579   */\n      mstore\n        /* \"#utility.yul\":7598:7602   */\n      0x24\n        /* \"#utility.yul\":7595:7596   */\n      0x00\n        /* \"#utility.yul\":7588:7603   */\n      revert\n        /* \"#utility.yul\":7615:7795   */\n    tag_164:\n        /* \"#utility.yul\":7663:7740   */\n      0x4e487b7100000000000000000000000000000000000000000000000000000000\n        /* \"#utility.yul\":7660:7661   */\n      0x00\n        /* \"#utility.yul\":7653:7741   */\n      mstore\n        /* \"#utility.yul\":7760:7764   */\n      0x22\n        /* \"#utility.yul\":7757:7758   */\n      0x04\n        /* \"#utility.yul\":7750:7765   */\n      mstore\n        /* \"#utility.yul\":7784:7788   */\n      0x24\n        /* \"#utility.yul\":7781:7782   */\n      0x00\n        /* \"#utility.yul\":7774:7789   */\n      revert\n        /* \"#utility.yul\":7801:7981   */\n    tag_138:\n        /* \"#utility.yul\":7849:7926   */\n      0x4e487b7100000000000000000000000000000000000000000000000000000000\n        /* \"#utility.yul\":7846:7847   */\n      0x00\n        /* \"#utility.yul\":7839:7927   */\n      mstore\n        /* \"#utility.yul\":7946:7950   */\n      0x41\n        /* \"#utility.yul\":7943:7944   */\n      0x04\n        /* \"#utility.yul\":7936:7951   */\n      mstore\n        /* \"#utility.yul\":7970:7974   */\n      0x24\n        /* \"#utility.yul\":7967:7968   */\n      0x00\n        /* \"#utility.yul\":7960:7975   */\n      revert\n        /* \"#utility.yul\":7987:8104   */\n    tag_76:\n        /* \"#utility.yul\":8096:8097   */\n      0x00\n        /* \"#utility.yul\":8093:8094   */\n      dup1\n        /* \"#utility.yul\":8086:8098   */\n      revert\n        /* \"#utility.yul\":8110:8227   */\n    tag_69:\n        /* \"#utility.yul\":8219:8220   */\n      0x00\n        /* \"#utility.yul\":8216:8217   */\n      dup1\n        /* \"#utility.yul\":8209:8221   */\n      revert\n        /* \"#utility.yul\":8233:8350   */\n    tag_88:\n        /* \"#utility.yul\":8342:8343   */\n      0x00\n        /* \"#utility.yul\":8339:8340   */\n      dup1\n        /* \"#utility.yul\":8332:8344   */\n      revert\n        /* \"#utility.yul\":8356:8473   */\n    tag_85:\n        /* \"#utility.yul\":8465:8466   */\n      0x00\n        /* \"#utility.yul\":8462:8463   */\n      dup1\n        /* \"#utility.yul\":8455:8467   */\n      revert\n        /* \"#utility.yul\":8479:8581   */\n    tag_107:\n        /* \"#utility.yul\":8520:8526   */\n      0x00\n        /* \"#utility.yul\":8571:8573   */\n      0x1f\n        /* \"#utility.yul\":8567:8574   */\n      not\n        /* \"#utility.yul\":8562:8564   */\n      0x1f\n        /* \"#utility.yul\":8555:8560   */\n      dup4\n        /* \"#utility.yul\":8551:8565   */\n      add\n        /* \"#utility.yul\":8547:8575   */\n      and\n        /* \"#utility.yul\":8537:8575   */\n      swap1\n      pop\n        /* \"#utility.yul\":8479:8581   */\n      swap2\n      swap1\n      pop\n      jump\t// out\n        /* \"#utility.yul\":8587:8709   */\n    tag_81:\n        /* \"#utility.yul\":8660:8684   */\n      tag_189\n        /* \"#utility.yul\":8678:8683   */\n      dup2\n        /* \"#utility.yul\":8660:8684   */\n      tag_117\n      jump\t// in\n    tag_189:\n        /* \"#utility.yul\":8653:8658   */\n      dup2\n        /* \"#utility.yul\":8650:8685   */\n      eq\n        /* \"#utility.yul\":8640:8703   */\n      tag_190\n      jumpi\n        /* \"#utility.yul\":8699:8700   */\n      0x00\n        /* \"#utility.yul\":8696:8697   */\n      dup1\n        /* \"#utility.yul\":8689:8701   */\n      revert\n        /* \"#utility.yul\":8640:8703   */\n    tag_190:\n        /* \"#utility.yul\":8587:8709   */\n      pop\n      jump\t// out\n\n    auxdata: 0xa264697066735822122044ce2eddfcb89517924ff87fea81160cced17d68fe13f6ec7d2d256b2030683264736f6c63430008070033\n}\n",
				"bytecode": {
					"linkReferences": {},
					"object": "60806040526010600055600054600a6200001a91906200008c565b6001553480156200002a57600080fd5b506200020f565b6000808291508390505b600185111562000083578086048111156200005b576200005a620001d3565b5b60018516156200006b5780820291505b80810290506200007b8562000202565b94506200003b565b94509492505050565b60006200009982620001c9565b9150620000a683620001c9565b9250620000d57fffffffffffffffffffffffffffffffffffffffffffffffffffffffffffffffff8484620000dd565b905092915050565b600082620000ef5760019050620001c2565b81620000ff5760009050620001c2565b8160018114620001185760028114620001235762000159565b6001915050620001c2565b60ff841115620001385762000137620001d3565b5b8360020a915084821115620001525762000151620001d3565b5b50620001c2565b5060208310610133831016604e8410600b8410161715620001935782820a9050838111156200018d576200018c620001d3565b5b620001c2565b620001a2848484600162000031565b92509050818404811115620001bc57620001bb620001d3565b5b81810290505b9392505050565b6000819050919050565b7f4e487b7100000000000000000000000000000000000000000000000000000000600052601160045260246000fd5b60008160011c9050919050565b6109c4806200021f6000396000f3fe608060405234801561001057600080fd5b50600436106100415760003560e01c80632052465e14610046578063528b7b8f146100775780637bff0a01146100a7575b600080fd5b610060600480360381019061005b9190610535565b6100c3565b60405161006e92919061061c565b60405180910390f35b610091600480360381019061008c9190610535565b61017f565b60405161009e9190610601565b60405180910390f35b6100c160048036038101906100bc91906104ec565b6101b2565b005b600281815481106100d357600080fd5b90600052602060002090600202016000915090508060000180546100f6906107b9565b80601f0160208091040260200160405190810160405280929190818152602001828054610122906107b9565b801561016f5780601f106101445761010080835404028352916020019161016f565b820191906000526020600020905b81548152906001019060200180831161015257829003601f168201915b5050505050908060010154905082565b60036020528060005260406000206000915054906101000a900473ffffffffffffffffffffffffffffffffffffffff1681565b6000600460003373ffffffffffffffffffffffffffffffffffffffff1673ffffffffffffffffffffffffffffffffffffffff16815260200190815260200160002054146101fe57600080fd5b600061020982610219565b9050610215828261025e565b5050565b6000808260405160200161022d91906105ea565b6040516020818303038152906040528051906020012060001c9050600154816102569190610865565b915050919050565b6002604051806040016040528084815260200183815250908060018154018082558091505060019003906000526020600020906002020160009091909190915060008201518160000190805190602001906102ba9291906103c4565b50602082015181600101555050600060016002805490506102db9190610707565b9050336003600083815260200190815260200160002060006101000a81548173ffffffffffffffffffffffffffffffffffffffff021916908373ffffffffffffffffffffffffffffffffffffffff160217905550600460003373ffffffffffffffffffffffffffffffffffffffff1673ffffffffffffffffffffffffffffffffffffffff168152602001908152602001600020600081548092919061037f9061081c565b91905055507f88f026aacbbecc90c18411df4b1185fd8d9be2470f1962f192bf84a27d0704b78184846040516103b79392919061064c565b60405180910390a1505050565b8280546103d0906107b9565b90600052602060002090601f0160209004810192826103f25760008555610439565b82601f1061040b57805160ff1916838001178555610439565b82800160010185558215610439579182015b8281111561043857825182559160200191906001019061041d565b5b509050610446919061044a565b5090565b5b8082111561046357600081600090555060010161044b565b5090565b600061047a610475846106af565b61068a565b90508281526020810184848401111561049657610495610957565b5b6104a1848285610777565b509392505050565b600082601f8301126104be576104bd610952565b5b81356104ce848260208601610467565b91505092915050565b6000813590506104e681610977565b92915050565b60006020828403121561050257610501610961565b5b600082013567ffffffffffffffff8111156105205761051f61095c565b5b61052c848285016104a9565b91505092915050565b60006020828403121561054b5761054a610961565b5b6000610559848285016104d7565b91505092915050565b61056b8161073b565b82525050565b600061057c826106e0565b61058681856106eb565b9350610596818560208601610786565b61059f81610966565b840191505092915050565b60006105b5826106e0565b6105bf81856106fc565b93506105cf818560208601610786565b80840191505092915050565b6105e48161076d565b82525050565b60006105f682846105aa565b915081905092915050565b60006020820190506106166000830184610562565b92915050565b600060408201905081810360008301526106368185610571565b905061064560208301846105db565b9392505050565b600060608201905061066160008301866105db565b81810360208301526106738185610571565b905061068260408301846105db565b949350505050565b60006106946106a5565b90506106a082826107eb565b919050565b6000604051905090565b600067ffffffffffffffff8211156106ca576106c9610923565b5b6106d382610966565b9050602081019050919050565b600081519050919050565b600082825260208201905092915050565b600081905092915050565b60006107128261076d565b915061071d8361076d565b9250828210156107305761072f610896565b5b828203905092915050565b60006107468261074d565b9050919050565b600073ffffffffffffffffffffffffffffffffffffffff82169050919050565b6000819050919050565b82818337600083830152505050565b60005b838110156107a4578082015181840152602081019050610789565b838111156107b3576000848401525b50505050565b600060028204905060018216806107d157607f821691505b602082108114156107e5576107e46108f4565b5b50919050565b6107f482610966565b810181811067ffffffffffffffff8211171561081357610812610923565b5b80604052505050565b60006108278261076d565b91507fffffffffffffffffffffffffffffffffffffffffffffffffffffffffffffffff82141561085a57610859610896565b5b600182019050919050565b60006108708261076d565b915061087b8361076d565b92508261088b5761088a6108c5565b5b828206905092915050565b7f4e487b7100000000000000000000000000000000000000000000000000000000600052601160045260246000fd5b7f4e487b7100000000000000000000000000000000000000000000000000000000600052601260045260246000fd5b7f4e487b7100000000000000000000000000000000000000000000000000000000600052602260045260246000fd5b7f4e487b7100000000000000000000000000000000000000000000000000000000600052604160045260246000fd5b600080fd5b600080fd5b600080fd5b600080fd5b6000601f19601f8301169050919050565b6109808161076d565b811461098b57600080fd5b5056fea264697066735822122044ce2eddfcb89517924ff87fea81160cced17d68fe13f6ec7d2d256b2030683264736f6c63430008070033",
					"opcodes": "PUSH1 0x80 PUSH1 0x40 MSTORE PUSH1 0x10 PUSH1 0x0 SSTORE PUSH1 0x0 SLOAD PUSH1 0xA PUSH3 0x1A SWAP2 SWAP1 PUSH3 0x8C JUMP JUMPDEST PUSH1 0x1 SSTORE CALLVALUE DUP1 ISZERO PUSH3 0x2A JUMPI PUSH1 0x0 DUP1 REVERT JUMPDEST POP PUSH3 0x20F JUMP JUMPDEST PUSH1 0x0 DUP1 DUP3 SWAP2 POP DUP4 SWAP1 POP JUMPDEST PUSH1 0x1 DUP6 GT ISZERO PUSH3 0x83 JUMPI DUP1 DUP7 DIV DUP2 GT ISZERO PUSH3 0x5B JUMPI PUSH3 0x5A PUSH3 0x1D3 JUMP JUMPDEST JUMPDEST PUSH1 0x1 DUP6 AND ISZERO PUSH3 0x6B JUMPI DUP1 DUP3 MUL SWAP2 POP JUMPDEST DUP1 DUP2 MUL SWAP1 POP PUSH3 0x7B DUP6 PUSH3 0x202 JUMP JUMPDEST SWAP5 POP PUSH3 0x3B JUMP JUMPDEST SWAP5 POP SWAP5 SWAP3 POP POP POP JUMP JUMPDEST PUSH1 0x0 PUSH3 0x99 DUP3 PUSH3 0x1C9 JUMP JUMPDEST SWAP2 POP PUSH3 0xA6 DUP4 PUSH3 0x1C9 JUMP JUMPDEST SWAP3 POP PUSH3 0xD5 PUSH32 0xFFFFFFFFFFFFFFFFFFFFFFFFFFFFFFFFFFFFFFFFFFFFFFFFFFFFFFFFFFFFFFFF DUP5 DUP5 PUSH3 0xDD JUMP JUMPDEST SWAP1 POP SWAP3 SWAP2 POP POP JUMP JUMPDEST PUSH1 0x0 DUP3 PUSH3 0xEF JUMPI PUSH1 0x1 SWAP1 POP PUSH3 0x1C2 JUMP JUMPDEST DUP2 PUSH3 0xFF JUMPI PUSH1 0x0 SWAP1 POP PUSH3 0x1C2 JUMP JUMPDEST DUP2 PUSH1 0x1 DUP2 EQ PUSH3 0x118 JUMPI PUSH1 0x2 DUP2 EQ PUSH3 0x123 JUMPI PUSH3 0x159 JUMP JUMPDEST PUSH1 0x1 SWAP2 POP POP PUSH3 0x1C2 JUMP JUMPDEST PUSH1 0xFF DUP5 GT ISZERO PUSH3 0x138 JUMPI PUSH3 0x137 PUSH3 0x1D3 JUMP JUMPDEST JUMPDEST DUP4 PUSH1 0x2 EXP SWAP2 POP DUP5 DUP3 GT ISZERO PUSH3 0x152 JUMPI PUSH3 0x151 PUSH3 0x1D3 JUMP JUMPDEST JUMPDEST POP PUSH3 0x1C2 JUMP JUMPDEST POP PUSH1 0x20 DUP4 LT PUSH2 0x133 DUP4 LT AND PUSH1 0x4E DUP5 LT PUSH1 0xB DUP5 LT AND OR ISZERO PUSH3 0x193 JUMPI DUP3 DUP3 EXP SWAP1 POP DUP4 DUP2 GT ISZERO PUSH3 0x18D JUMPI PUSH3 0x18C PUSH3 0x1D3 JUMP JUMPDEST JUMPDEST PUSH3 0x1C2 JUMP JUMPDEST PUSH3 0x1A2 DUP5 DUP5 DUP5 PUSH1 0x1 PUSH3 0x31 JUMP JUMPDEST SWAP3 POP SWAP1 POP DUP2 DUP5 DIV DUP2 GT ISZERO PUSH3 0x1BC JUMPI PUSH3 0x1BB PUSH3 0x1D3 JUMP JUMPDEST JUMPDEST DUP2 DUP2 MUL SWAP1 POP JUMPDEST SWAP4 SWAP3 POP POP POP JUMP JUMPDEST PUSH1 0x0 DUP2 SWAP1 POP SWAP2 SWAP1 POP JUMP JUMPDEST PUSH32 0x4E487B7100000000000000000000000000000000000000000000000000000000 PUSH1 0x0 MSTORE PUSH1 0x11 PUSH1 0x4 MSTORE PUSH1 0x24 PUSH1 0x0 REVERT JUMPDEST PUSH1 0x0 DUP2 PUSH1 0x1 SHR SWAP1 POP SWAP2 SWAP1 POP JUMP JUMPDEST PUSH2 0x9C4 DUP1 PUSH3 0x21F PUSH1 0x0 CODECOPY PUSH1 0x0 RETURN INVALID PUSH1 0x80 PUSH1 0x40 MSTORE CALLVALUE DUP1 ISZERO PUSH2 0x10 JUMPI PUSH1 0x0 DUP1 REVERT JUMPDEST POP PUSH1 0x4 CALLDATASIZE LT PUSH2 0x41 JUMPI PUSH1 0x0 CALLDATALOAD PUSH1 0xE0 SHR DUP1 PUSH4 0x2052465E EQ PUSH2 0x46 JUMPI DUP1 PUSH4 0x528B7B8F EQ PUSH2 0x77 JUMPI DUP1 PUSH4 0x7BFF0A01 EQ PUSH2 0xA7 JUMPI JUMPDEST PUSH1 0x0 DUP1 REVERT JUMPDEST PUSH2 0x60 PUSH1 0x4 DUP1 CALLDATASIZE SUB DUP2 ADD SWAP1 PUSH2 0x5B SWAP2 SWAP1 PUSH2 0x535 JUMP JUMPDEST PUSH2 0xC3 JUMP JUMPDEST PUSH1 0x40 MLOAD PUSH2 0x6E SWAP3 SWAP2 SWAP1 PUSH2 0x61C JUMP JUMPDEST PUSH1 0x40 MLOAD DUP1 SWAP2 SUB SWAP1 RETURN JUMPDEST PUSH2 0x91 PUSH1 0x4 DUP1 CALLDATASIZE SUB DUP2 ADD SWAP1 PUSH2 0x8C SWAP2 SWAP1 PUSH2 0x535 JUMP JUMPDEST PUSH2 0x17F JUMP JUMPDEST PUSH1 0x40 MLOAD PUSH2 0x9E SWAP2 SWAP1 PUSH2 0x601 JUMP JUMPDEST PUSH1 0x40 MLOAD DUP1 SWAP2 SUB SWAP1 RETURN JUMPDEST PUSH2 0xC1 PUSH1 0x4 DUP1 CALLDATASIZE SUB DUP2 ADD SWAP1 PUSH2 0xBC SWAP2 SWAP1 PUSH2 0x4EC JUMP JUMPDEST PUSH2 0x1B2 JUMP JUMPDEST STOP JUMPDEST PUSH1 0x2 DUP2 DUP2 SLOAD DUP2 LT PUSH2 0xD3 JUMPI PUSH1 0x0 DUP1 REVERT JUMPDEST SWAP1 PUSH1 0x0 MSTORE PUSH1 0x20 PUSH1 0x0 KECCAK256 SWAP1 PUSH1 0x2 MUL ADD PUSH1 0x0 SWAP2 POP SWAP1 POP DUP1 PUSH1 0x0 ADD DUP1 SLOAD PUSH2 0xF6 SWAP1 PUSH2 0x7B9 JUMP JUMPDEST DUP1 PUSH1 0x1F ADD PUSH1 0x20 DUP1 SWAP2 DIV MUL PUSH1 0x20 ADD PUSH1 0x40 MLOAD SWAP1 DUP2 ADD PUSH1 0x40 MSTORE DUP1 SWAP3 SWAP2 SWAP1 DUP2 DUP2 MSTORE PUSH1 0x20 ADD DUP3 DUP1 SLOAD PUSH2 0x122 SWAP1 PUSH2 0x7B9 JUMP JUMPDEST DUP1 ISZERO PUSH2 0x16F JUMPI DUP1 PUSH1 0x1F LT PUSH2 0x144 JUMPI PUSH2 0x100 DUP1 DUP4 SLOAD DIV MUL DUP4 MSTORE SWAP2 PUSH1 0x20 ADD SWAP2 PUSH2 0x16F JUMP JUMPDEST DUP3 ADD SWAP2 SWAP1 PUSH1 0x0 MSTORE PUSH1 0x20 PUSH1 0x0 KECCAK256 SWAP1 JUMPDEST DUP2 SLOAD DUP2 MSTORE SWAP1 PUSH1 0x1 ADD SWAP1 PUSH1 0x20 ADD DUP1 DUP4 GT PUSH2 0x152 JUMPI DUP3 SWAP1 SUB PUSH1 0x1F AND DUP3 ADD SWAP2 JUMPDEST POP POP POP POP POP SWAP1 DUP1 PUSH1 0x1 ADD SLOAD SWAP1 POP DUP3 JUMP JUMPDEST PUSH1 0x3 PUSH1 0x20 MSTORE DUP1 PUSH1 0x0 MSTORE PUSH1 0x40 PUSH1 0x0 KECCAK256 PUSH1 0x0 SWAP2 POP SLOAD SWAP1 PUSH2 0x100 EXP SWAP1 DIV PUSH20 0xFFFFFFFFFFFFFFFFFFFFFFFFFFFFFFFFFFFFFFFF AND DUP2 JUMP JUMPDEST PUSH1 0x0 PUSH1 0x4 PUSH1 0x0 CALLER PUSH20 0xFFFFFFFFFFFFFFFFFFFFFFFFFFFFFFFFFFFFFFFF AND PUSH20 0xFFFFFFFFFFFFFFFFFFFFFFFFFFFFFFFFFFFFFFFF AND DUP2 MSTORE PUSH1 0x20 ADD SWAP1 DUP2 MSTORE PUSH1 0x20 ADD PUSH1 0x0 KECCAK256 SLOAD EQ PUSH2 0x1FE JUMPI PUSH1 0x0 DUP1 REVERT JUMPDEST PUSH1 0x0 PUSH2 0x209 DUP3 PUSH2 0x219 JUMP JUMPDEST SWAP1 POP PUSH2 0x215 DUP3 DUP3 PUSH2 0x25E JUMP JUMPDEST POP POP JUMP JUMPDEST PUSH1 0x0 DUP1 DUP3 PUSH1 0x40 MLOAD PUSH1 0x20 ADD PUSH2 0x22D SWAP2 SWAP1 PUSH2 0x5EA JUMP JUMPDEST PUSH1 0x40 MLOAD PUSH1 0x20 DUP2 DUP4 SUB SUB DUP2 MSTORE SWAP1 PUSH1 0x40 MSTORE DUP1 MLOAD SWAP1 PUSH1 0x20 ADD KECCAK256 PUSH1 0x0 SHR SWAP1 POP PUSH1 0x1 SLOAD DUP2 PUSH2 0x256 SWAP2 SWAP1 PUSH2 0x865 JUMP JUMPDEST SWAP2 POP POP SWAP2 SWAP1 POP JUMP JUMPDEST PUSH1 0x2 PUSH1 0x40 MLOAD DUP1 PUSH1 0x40 ADD PUSH1 0x40 MSTORE DUP1 DUP5 DUP2 MSTORE PUSH1 0x20 ADD DUP4 DUP2 MSTORE POP SWAP1 DUP1 PUSH1 0x1 DUP2 SLOAD ADD DUP1 DUP3 SSTORE DUP1 SWAP2 POP POP PUSH1 0x1 SWAP1 SUB SWAP1 PUSH1 0x0 MSTORE PUSH1 0x20 PUSH1 0x0 KECCAK256 SWAP1 PUSH1 0x2 MUL ADD PUSH1 0x0 SWAP1 SWAP2 SWAP1 SWAP2 SWAP1 SWAP2 POP PUSH1 0x0 DUP3 ADD MLOAD DUP2 PUSH1 0x0 ADD SWAP1 DUP1 MLOAD SWAP1 PUSH1 0x20 ADD SWAP1 PUSH2 0x2BA SWAP3 SWAP2 SWAP1 PUSH2 0x3C4 JUMP JUMPDEST POP PUSH1 0x20 DUP3 ADD MLOAD DUP2 PUSH1 0x1 ADD SSTORE POP POP PUSH1 0x0 PUSH1 0x1 PUSH1 0x2 DUP1 SLOAD SWAP1 POP PUSH2 0x2DB SWAP2 SWAP1 PUSH2 0x707 JUMP JUMPDEST SWAP1 POP CALLER PUSH1 0x3 PUSH1 0x0 DUP4 DUP2 MSTORE PUSH1 0x20 ADD SWAP1 DUP2 MSTORE PUSH1 0x20 ADD PUSH1 0x0 KECCAK256 PUSH1 0x0 PUSH2 0x100 EXP DUP2 SLOAD DUP2 PUSH20 0xFFFFFFFFFFFFFFFFFFFFFFFFFFFFFFFFFFFFFFFF MUL NOT AND SWAP1 DUP4 PUSH20 0xFFFFFFFFFFFFFFFFFFFFFFFFFFFFFFFFFFFFFFFF AND MUL OR SWAP1 SSTORE POP PUSH1 0x4 PUSH1 0x0 CALLER PUSH20 0xFFFFFFFFFFFFFFFFFFFFFFFFFFFFFFFFFFFFFFFF AND PUSH20 0xFFFFFFFFFFFFFFFFFFFFFFFFFFFFFFFFFFFFFFFF AND DUP2 MSTORE PUSH1 0x20 ADD SWAP1 DUP2 MSTORE PUSH1 0x20 ADD PUSH1 0x0 KECCAK256 PUSH1 0x0 DUP2 SLOAD DUP1 SWAP3 SWAP2 SWAP1 PUSH2 0x37F SWAP1 PUSH2 0x81C JUMP JUMPDEST SWAP2 SWAP1 POP SSTORE POP PUSH32 0x88F026AACBBECC90C18411DF4B1185FD8D9BE2470F1962F192BF84A27D0704B7 DUP2 DUP5 DUP5 PUSH1 0x40 MLOAD PUSH2 0x3B7 SWAP4 SWAP3 SWAP2 SWAP1 PUSH2 0x64C JUMP JUMPDEST PUSH1 0x40 MLOAD DUP1 SWAP2 SUB SWAP1 LOG1 POP POP POP JUMP JUMPDEST DUP3 DUP1 SLOAD PUSH2 0x3D0 SWAP1 PUSH2 0x7B9 JUMP JUMPDEST SWAP1 PUSH1 0x0 MSTORE PUSH1 0x20 PUSH1 0x0 KECCAK256 SWAP1 PUSH1 0x1F ADD PUSH1 0x20 SWAP1 DIV DUP2 ADD SWAP3 DUP3 PUSH2 0x3F2 JUMPI PUSH1 0x0 DUP6 SSTORE PUSH2 0x439 JUMP JUMPDEST DUP3 PUSH1 0x1F LT PUSH2 0x40B JUMPI DUP1 MLOAD PUSH1 0xFF NOT AND DUP4 DUP1 ADD OR DUP6 SSTORE PUSH2 0x439 JUMP JUMPDEST DUP3 DUP1 ADD PUSH1 0x1 ADD DUP6 SSTORE DUP3 ISZERO PUSH2 0x439 JUMPI SWAP2 DUP3 ADD JUMPDEST DUP3 DUP2 GT ISZERO PUSH2 0x438 JUMPI DUP3 MLOAD DUP3 SSTORE SWAP2 PUSH1 0x20 ADD SWAP2 SWAP1 PUSH1 0x1 ADD SWAP1 PUSH2 0x41D JUMP JUMPDEST JUMPDEST POP SWAP1 POP PUSH2 0x446 SWAP2 SWAP1 PUSH2 0x44A JUMP JUMPDEST POP SWAP1 JUMP JUMPDEST JUMPDEST DUP1 DUP3 GT ISZERO PUSH2 0x463 JUMPI PUSH1 0x0 DUP2 PUSH1 0x0 SWAP1 SSTORE POP PUSH1 0x1 ADD PUSH2 0x44B JUMP JUMPDEST POP SWAP1 JUMP JUMPDEST PUSH1 0x0 PUSH2 0x47A PUSH2 0x475 DUP5 PUSH2 0x6AF JUMP JUMPDEST PUSH2 0x68A JUMP JUMPDEST SWAP1 POP DUP3 DUP2 MSTORE PUSH1 0x20 DUP2 ADD DUP5 DUP5 DUP5 ADD GT ISZERO PUSH2 0x496 JUMPI PUSH2 0x495 PUSH2 0x957 JUMP JUMPDEST JUMPDEST PUSH2 0x4A1 DUP5 DUP3 DUP6 PUSH2 0x777 JUMP JUMPDEST POP SWAP4 SWAP3 POP POP POP JUMP JUMPDEST PUSH1 0x0 DUP3 PUSH1 0x1F DUP4 ADD SLT PUSH2 0x4BE JUMPI PUSH2 0x4BD PUSH2 0x952 JUMP JUMPDEST JUMPDEST DUP2 CALLDATALOAD PUSH2 0x4CE DUP5 DUP3 PUSH1 0x20 DUP7 ADD PUSH2 0x467 JUMP JUMPDEST SWAP2 POP POP SWAP3 SWAP2 POP POP JUMP JUMPDEST PUSH1 0x0 DUP2 CALLDATALOAD SWAP1 POP PUSH2 0x4E6 DUP2 PUSH2 0x977 JUMP JUMPDEST SWAP3 SWAP2 POP POP JUMP JUMPDEST PUSH1 0x0 PUSH1 0x20 DUP3 DUP5 SUB SLT ISZERO PUSH2 0x502 JUMPI PUSH2 0x501 PUSH2 0x961 JUMP JUMPDEST JUMPDEST PUSH1 0x0 DUP3 ADD CALLDATALOAD PUSH8 0xFFFFFFFFFFFFFFFF DUP2 GT ISZERO PUSH2 0x520 JUMPI PUSH2 0x51F PUSH2 0x95C JUMP JUMPDEST JUMPDEST PUSH2 0x52C DUP5 DUP3 DUP6 ADD PUSH2 0x4A9 JUMP JUMPDEST SWAP2 POP POP SWAP3 SWAP2 POP POP JUMP JUMPDEST PUSH1 0x0 PUSH1 0x20 DUP3 DUP5 SUB SLT ISZERO PUSH2 0x54B JUMPI PUSH2 0x54A PUSH2 0x961 JUMP JUMPDEST JUMPDEST PUSH1 0x0 PUSH2 0x559 DUP5 DUP3 DUP6 ADD PUSH2 0x4D7 JUMP JUMPDEST SWAP2 POP POP SWAP3 SWAP2 POP POP JUMP JUMPDEST PUSH2 0x56B DUP2 PUSH2 0x73B JUMP JUMPDEST DUP3 MSTORE POP POP JUMP JUMPDEST PUSH1 0x0 PUSH2 0x57C DUP3 PUSH2 0x6E0 JUMP JUMPDEST PUSH2 0x586 DUP2 DUP6 PUSH2 0x6EB JUMP JUMPDEST SWAP4 POP PUSH2 0x596 DUP2 DUP6 PUSH1 0x20 DUP7 ADD PUSH2 0x786 JUMP JUMPDEST PUSH2 0x59F DUP2 PUSH2 0x966 JUMP JUMPDEST DUP5 ADD SWAP2 POP POP SWAP3 SWAP2 POP POP JUMP JUMPDEST PUSH1 0x0 PUSH2 0x5B5 DUP3 PUSH2 0x6E0 JUMP JUMPDEST PUSH2 0x5BF DUP2 DUP6 PUSH2 0x6FC JUMP JUMPDEST SWAP4 POP PUSH2 0x5CF DUP2 DUP6 PUSH1 0x20 DUP7 ADD PUSH2 0x786 JUMP JUMPDEST DUP1 DUP5 ADD SWAP2 POP POP SWAP3 SWAP2 POP POP JUMP JUMPDEST PUSH2 0x5E4 DUP2 PUSH2 0x76D JUMP JUMPDEST DUP3 MSTORE POP POP JUMP JUMPDEST PUSH1 0x0 PUSH2 0x5F6 DUP3 DUP5 PUSH2 0x5AA JUMP JUMPDEST SWAP2 POP DUP2 SWAP1 POP SWAP3 SWAP2 POP POP JUMP JUMPDEST PUSH1 0x0 PUSH1 0x20 DUP3 ADD SWAP1 POP PUSH2 0x616 PUSH1 0x0 DUP4 ADD DUP5 PUSH2 0x562 JUMP JUMPDEST SWAP3 SWAP2 POP POP JUMP JUMPDEST PUSH1 0x0 PUSH1 0x40 DUP3 ADD SWAP1 POP DUP2 DUP2 SUB PUSH1 0x0 DUP4 ADD MSTORE PUSH2 0x636 DUP2 DUP6 PUSH2 0x571 JUMP JUMPDEST SWAP1 POP PUSH2 0x645 PUSH1 0x20 DUP4 ADD DUP5 PUSH2 0x5DB JUMP JUMPDEST SWAP4 SWAP3 POP POP POP JUMP JUMPDEST PUSH1 0x0 PUSH1 0x60 DUP3 ADD SWAP1 POP PUSH2 0x661 PUSH1 0x0 DUP4 ADD DUP7 PUSH2 0x5DB JUMP JUMPDEST DUP2 DUP2 SUB PUSH1 0x20 DUP4 ADD MSTORE PUSH2 0x673 DUP2 DUP6 PUSH2 0x571 JUMP JUMPDEST SWAP1 POP PUSH2 0x682 PUSH1 0x40 DUP4 ADD DUP5 PUSH2 0x5DB JUMP JUMPDEST SWAP5 SWAP4 POP POP POP POP JUMP JUMPDEST PUSH1 0x0 PUSH2 0x694 PUSH2 0x6A5 JUMP JUMPDEST SWAP1 POP PUSH2 0x6A0 DUP3 DUP3 PUSH2 0x7EB JUMP JUMPDEST SWAP2 SWAP1 POP JUMP JUMPDEST PUSH1 0x0 PUSH1 0x40 MLOAD SWAP1 POP SWAP1 JUMP JUMPDEST PUSH1 0x0 PUSH8 0xFFFFFFFFFFFFFFFF DUP3 GT ISZERO PUSH2 0x6CA JUMPI PUSH2 0x6C9 PUSH2 0x923 JUMP JUMPDEST JUMPDEST PUSH2 0x6D3 DUP3 PUSH2 0x966 JUMP JUMPDEST SWAP1 POP PUSH1 0x20 DUP2 ADD SWAP1 POP SWAP2 SWAP1 POP JUMP JUMPDEST PUSH1 0x0 DUP2 MLOAD SWAP1 POP SWAP2 SWAP1 POP JUMP JUMPDEST PUSH1 0x0 DUP3 DUP3 MSTORE PUSH1 0x20 DUP3 ADD SWAP1 POP SWAP3 SWAP2 POP POP JUMP JUMPDEST PUSH1 0x0 DUP2 SWAP1 POP SWAP3 SWAP2 POP POP JUMP JUMPDEST PUSH1 0x0 PUSH2 0x712 DUP3 PUSH2 0x76D JUMP JUMPDEST SWAP2 POP PUSH2 0x71D DUP4 PUSH2 0x76D JUMP JUMPDEST SWAP3 POP DUP3 DUP3 LT ISZERO PUSH2 0x730 JUMPI PUSH2 0x72F PUSH2 0x896 JUMP JUMPDEST JUMPDEST DUP3 DUP3 SUB SWAP1 POP SWAP3 SWAP2 POP POP JUMP JUMPDEST PUSH1 0x0 PUSH2 0x746 DUP3 PUSH2 0x74D JUMP JUMPDEST SWAP1 POP SWAP2 SWAP1 POP JUMP JUMPDEST PUSH1 0x0 PUSH20 0xFFFFFFFFFFFFFFFFFFFFFFFFFFFFFFFFFFFFFFFF DUP3 AND SWAP1 POP SWAP2 SWAP1 POP JUMP JUMPDEST PUSH1 0x0 DUP2 SWAP1 POP SWAP2 SWAP1 POP JUMP JUMPDEST DUP3 DUP2 DUP4 CALLDATACOPY PUSH1 0x0 DUP4 DUP4 ADD MSTORE POP POP POP JUMP JUMPDEST PUSH1 0x0 JUMPDEST DUP4 DUP2 LT ISZERO PUSH2 0x7A4 JUMPI DUP1 DUP3 ADD MLOAD DUP2 DUP5 ADD MSTORE PUSH1 0x20 DUP2 ADD SWAP1 POP PUSH2 0x789 JUMP JUMPDEST DUP4 DUP2 GT ISZERO PUSH2 0x7B3 JUMPI PUSH1 0x0 DUP5 DUP5 ADD MSTORE JUMPDEST POP POP POP POP JUMP JUMPDEST PUSH1 0x0 PUSH1 0x2 DUP3 DIV SWAP1 POP PUSH1 0x1 DUP3 AND DUP1 PUSH2 0x7D1 JUMPI PUSH1 0x7F DUP3 AND SWAP2 POP JUMPDEST PUSH1 0x20 DUP3 LT DUP2 EQ ISZERO PUSH2 0x7E5 JUMPI PUSH2 0x7E4 PUSH2 0x8F4 JUMP JUMPDEST JUMPDEST POP SWAP2 SWAP1 POP JUMP JUMPDEST PUSH2 0x7F4 DUP3 PUSH2 0x966 JUMP JUMPDEST DUP2 ADD DUP2 DUP2 LT PUSH8 0xFFFFFFFFFFFFFFFF DUP3 GT OR ISZERO PUSH2 0x813 JUMPI PUSH2 0x812 PUSH2 0x923 JUMP JUMPDEST JUMPDEST DUP1 PUSH1 0x40 MSTORE POP POP POP JUMP JUMPDEST PUSH1 0x0 PUSH2 0x827 DUP3 PUSH2 0x76D JUMP JUMPDEST SWAP2 POP PUSH32 0xFFFFFFFFFFFFFFFFFFFFFFFFFFFFFFFFFFFFFFFFFFFFFFFFFFFFFFFFFFFFFFFF DUP3 EQ ISZERO PUSH2 0x85A JUMPI PUSH2 0x859 PUSH2 0x896 JUMP JUMPDEST JUMPDEST PUSH1 0x1 DUP3 ADD SWAP1 POP SWAP2 SWAP1 POP JUMP JUMPDEST PUSH1 0x0 PUSH2 0x870 DUP3 PUSH2 0x76D JUMP JUMPDEST SWAP2 POP PUSH2 0x87B DUP4 PUSH2 0x76D JUMP JUMPDEST SWAP3 POP DUP3 PUSH2 0x88B JUMPI PUSH2 0x88A PUSH2 0x8C5 JUMP JUMPDEST JUMPDEST DUP3 DUP3 MOD SWAP1 POP SWAP3 SWAP2 POP POP JUMP JUMPDEST PUSH32 0x4E487B7100000000000000000000000000000000000000000000000000000000 PUSH1 0x0 MSTORE PUSH1 0x11 PUSH1 0x4 MSTORE PUSH1 0x24 PUSH1 0x0 REVERT JUMPDEST PUSH32 0x4E487B7100000000000000000000000000000000000000000000000000000000 PUSH1 0x0 MSTORE PUSH1 0x12 PUSH1 0x4 MSTORE PUSH1 0x24 PUSH1 0x0 REVERT JUMPDEST PUSH32 0x4E487B7100000000000000000000000000000000000000000000000000000000 PUSH1 0x0 MSTORE PUSH1 0x22 PUSH1 0x4 MSTORE PUSH1 0x24 PUSH1 0x0 REVERT JUMPDEST PUSH32 0x4E487B7100000000000000000000000000000000000000000000000000000000 PUSH1 0x0 MSTORE PUSH1 0x41 PUSH1 0x4 MSTORE PUSH1 0x24 PUSH1 0x0 REVERT JUMPDEST PUSH1 0x0 DUP1 REVERT JUMPDEST PUSH1 0x0 DUP1 REVERT JUMPDEST PUSH1 0x0 DUP1 REVERT JUMPDEST PUSH1 0x0 DUP1 REVERT JUMPDEST PUSH1 0x0 PUSH1 0x1F NOT PUSH1 0x1F DUP4 ADD AND SWAP1 POP SWAP2 SWAP1 POP JUMP JUMPDEST PUSH2 0x980 DUP2 PUSH2 0x76D JUMP JUMPDEST DUP2 EQ PUSH2 0x98B JUMPI PUSH1 0x0 DUP1 REVERT JUMPDEST POP JUMP INVALID LOG2 PUSH5 0x6970667358 0x22 SLT KECCAK256 DIFFICULTY 0xCE 0x2E 0xDD 0xFC 0xB8 SWAP6 OR SWAP3 0x4F 0xF8 PUSH32 0xEA81160CCED17D68FE13F6EC7D2D256B2030683264736F6C6343000807003300 "
				},
				"gasEstimates": {
					"creation": {
						"codeDepositCost": "500000",
						"executionCost": "infinite",
						"totalCost": "infinite"
					},
					"external": {
						"createRandomZombie(string)": "infinite",
						"zombieToOwner(uint256)": "2839",
						"zombies(uint256)": "infinite"
					},
					"internal": {
						"_createZombie(string memory,uint256)": "infinite",
						"_generateRandomDna(string memory)": "infinite"
					}
				},
				"methodIdentifiers": {
					"createRandomZombie(string)": "7bff0a01",
					"zombieToOwner(uint256)": "528b7b8f",
					"zombies(uint256)": "2052465e"
				}
			},
			"storageLayout": {
				"storage": [
					{
						"astId": 12,
						"contract": "zombiearmy.sol:ZombieArmy",
						"label": "dnaDigits",
						"offset": 0,
						"slot": "0",
						"type": "t_uint256"
					},
					{
						"astId": 17,
						"contract": "zombiearmy.sol:ZombieArmy",
						"label": "dnaModulus",
						"offset": 0,
						"slot": "1",
						"type": "t_uint256"
					},
					{
						"astId": 26,
						"contract": "zombiearmy.sol:ZombieArmy",
						"label": "zombies",
						"offset": 0,
						"slot": "2",
						"type": "t_array(t_struct(Zombie)22_storage)dyn_storage"
					},
					{
						"astId": 30,
						"contract": "zombiearmy.sol:ZombieArmy",
						"label": "zombieToOwner",
						"offset": 0,
						"slot": "3",
						"type": "t_mapping(t_uint256,t_address)"
					},
					{
						"astId": 34,
						"contract": "zombiearmy.sol:ZombieArmy",
						"label": "ownerZombieCount",
						"offset": 0,
						"slot": "4",
						"type": "t_mapping(t_address,t_uint256)"
					}
				],
				"types": {
					"t_address": {
						"encoding": "inplace",
						"label": "address",
						"numberOfBytes": "20"
					},
					"t_array(t_struct(Zombie)22_storage)dyn_storage": {
						"base": "t_struct(Zombie)22_storage",
						"encoding": "dynamic_array",
						"label": "struct ZombieArmy.Zombie[]",
						"numberOfBytes": "32"
					},
					"t_mapping(t_address,t_uint256)": {
						"encoding": "mapping",
						"key": "t_address",
						"label": "mapping(address => uint256)",
						"numberOfBytes": "32",
						"value": "t_uint256"
					},
					"t_mapping(t_uint256,t_address)": {
						"encoding": "mapping",
						"key": "t_uint256",
						"label": "mapping(uint256 => address)",
						"numberOfBytes": "32",
						"value": "t_address"
					},
					"t_string_storage": {
						"encoding": "bytes",
						"label": "string",
						"numberOfBytes": "32"
					},
					"t_struct(Zombie)22_storage": {
						"encoding": "inplace",
						"label": "struct ZombieArmy.Zombie",
						"members": [
							{
								"astId": 19,
								"contract": "zombiearmy.sol:ZombieArmy",
								"label": "name",
								"offset": 0,
								"slot": "0",
								"type": "t_string_storage"
							},
							{
								"astId": 21,
								"contract": "zombiearmy.sol:ZombieArmy",
								"label": "dna",
								"offset": 0,
								"slot": "1",
								"type": "t_uint256"
							}
						],
						"numberOfBytes": "64"
					},
					"t_uint256": {
						"encoding": "inplace",
						"label": "uint256",
						"numberOfBytes": "32"
					}
				}
			},
			"userdoc": {
				"kind": "user",
				"methods": {},
				"version": 1
			}
		}
	}
}